{
  "contractName": "ClaimVPU",
  "abi": [
    {
      "inputs": [
        {
          "internalType": "uint256",
          "name": "expirationAfterDay",
          "type": "uint256"
        }
      ],
      "stateMutability": "nonpayable",
      "type": "constructor"
    },
    {
      "anonymous": false,
      "inputs": [
        {
          "indexed": true,
          "internalType": "address",
          "name": "previousOwner",
          "type": "address"
        },
        {
          "indexed": true,
          "internalType": "address",
          "name": "newOwner",
          "type": "address"
        }
      ],
      "name": "OwnershipTransferred",
      "type": "event"
    },
    {
      "inputs": [],
      "name": "expirationTime",
      "outputs": [
        {
          "internalType": "uint256",
          "name": "",
          "type": "uint256"
        }
      ],
      "stateMutability": "view",
      "type": "function",
      "constant": true
    },
    {
      "inputs": [],
      "name": "owner",
      "outputs": [
        {
          "internalType": "address",
          "name": "",
          "type": "address"
        }
      ],
      "stateMutability": "view",
      "type": "function",
      "constant": true
    },
    {
      "inputs": [],
      "name": "renounceOwnership",
      "outputs": [],
      "stateMutability": "nonpayable",
      "type": "function"
    },
    {
      "inputs": [
        {
          "internalType": "address",
          "name": "newOwner",
          "type": "address"
        }
      ],
      "name": "transferOwnership",
      "outputs": [],
      "stateMutability": "nonpayable",
      "type": "function"
    },
    {
      "inputs": [
        {
          "internalType": "address",
          "name": "",
          "type": "address"
        }
      ],
      "name": "userClaimCount",
      "outputs": [
        {
          "internalType": "uint256",
          "name": "",
          "type": "uint256"
        }
      ],
      "stateMutability": "view",
      "type": "function",
      "constant": true
    },
    {
      "inputs": [],
      "name": "claim",
      "outputs": [],
      "stateMutability": "nonpayable",
      "type": "function"
    },
    {
      "inputs": [
        {
          "internalType": "address payable",
          "name": "recipient",
          "type": "address"
        },
        {
          "internalType": "uint256",
          "name": "amount",
          "type": "uint256"
        }
      ],
      "name": "ownerWithdrawVPU",
      "outputs": [],
      "stateMutability": "nonpayable",
      "type": "function"
    },
    {
      "inputs": [
        {
          "internalType": "address",
          "name": "account",
          "type": "address"
        }
      ],
      "name": "getClaimCount",
      "outputs": [
        {
          "internalType": "uint256",
          "name": "",
          "type": "uint256"
        },
        {
          "internalType": "uint256",
          "name": "",
          "type": "uint256"
        }
      ],
      "stateMutability": "view",
      "type": "function",
      "constant": true
    },
    {
      "inputs": [],
      "name": "getVPUBalance",
      "outputs": [
        {
          "internalType": "uint256",
          "name": "",
          "type": "uint256"
        }
      ],
      "stateMutability": "view",
      "type": "function",
      "constant": true
    }
  ],
  "bytecode": "0x6080604052681b1ae4d6e2ef50000060035534801561001d57600080fd5b506040516111713803806111718339818101604052602081101561004057600080fd5b8101908080519060200190929190505050600061006161012460201b60201c565b9050806000806101000a81548173ffffffffffffffffffffffffffffffffffffffff021916908373ffffffffffffffffffffffffffffffffffffffff1602179055508073ffffffffffffffffffffffffffffffffffffffff16600073ffffffffffffffffffffffffffffffffffffffff167f8be0079c531659141344cd1fd0a4f28419497f9722a3daafe3b4186f6b6457e060405160405180910390a3506101184282620151800261012c60201b610d4b1760201c565b600281905550506101b4565b600033905090565b6000808284019050838110156101aa576040517f08c379a000000000000000000000000000000000000000000000000000000000815260040180806020018281038252601b8152602001807f536166654d6174683a206164646974696f6e206f766572666c6f77000000000081525060200191505060405180910390fd5b8091505092915050565b610fae806101c36000396000f3fe608060405234801561001057600080fd5b50600436106100935760003560e01c80637e51f9fc116100665780637e51f9fc146101225780638da5cb5b14610170578063d5fdfe87146101a4578063da284dcc14610203578063f2fde38b1461022157610093565b80633ed429cf146100985780634e71d92d146100b6578063715018a6146100c05780637daf9036146100ca575b600080fd5b6100a0610265565b6040518082815260200191505060405180910390f35b6100be610322565b005b6100c86106b8565b005b61010c600480360360208110156100e057600080fd5b81019080803573ffffffffffffffffffffffffffffffffffffffff169060200190929190505050610825565b6040518082815260200191505060405180910390f35b61016e6004803603604081101561013857600080fd5b81019080803573ffffffffffffffffffffffffffffffffffffffff1690602001909291908035906020019092919050505061083d565b005b610178610a28565b604051808273ffffffffffffffffffffffffffffffffffffffff16815260200191505060405180910390f35b6101e6600480360360208110156101ba57600080fd5b81019080803573ffffffffffffffffffffffffffffffffffffffff169060200190929190505050610a51565b604051808381526020018281526020019250505060405180910390f35b61020b610b53565b6040518082815260200191505060405180910390f35b6102636004803603602081101561023757600080fd5b81019080803573ffffffffffffffffffffffffffffffffffffffff169060200190929190505050610b59565b005b600073b0821559723db89e0bd14fee81e13a3aae007e6573ffffffffffffffffffffffffffffffffffffffff166370a08231306040518263ffffffff1660e01b8152600401808273ffffffffffffffffffffffffffffffffffffffff16815260200191505060206040518083038186803b1580156102e257600080fd5b505afa1580156102f6573d6000803e3d6000fd5b505050506040513d602081101561030c57600080fd5b8101908080519060200190929190505050905090565b60025442111561039a576040517f08c379a00000000000000000000000000000000000000000000000000000000081526004018080602001828103825260188152602001807f436c61696d5650553a3a636c61696d3a2065787069726564000000000000000081525060200191505060405180910390fd5b600073e92fddd633008c1bca6e738725d2190cd46df4a173ffffffffffffffffffffffffffffffffffffffff16633950891f336040518263ffffffff1660e01b8152600401808273ffffffffffffffffffffffffffffffffffffffff16815260200191505060206040518083038186803b15801561041757600080fd5b505afa15801561042b573d6000803e3d6000fd5b505050506040513d602081101561044157600080fd5b810190808051906020019092919050505090506000811180156104a25750600160003373ffffffffffffffffffffffffffffffffffffffff1673ffffffffffffffffffffffffffffffffffffffff1681526020019081526020016000205481115b6104f7576040517f08c379a0000000000000000000000000000000000000000000000000000000008152600401808060200182810382526028815260200180610f2c6028913960400191505060405180910390fd5b600061054d61054583600160003373ffffffffffffffffffffffffffffffffffffffff1673ffffffffffffffffffffffffffffffffffffffff16815260200190815260200160002054610dd3565b600354610e56565b905080610558610265565b10156105af576040517f08c379a0000000000000000000000000000000000000000000000000000000008152600401808060200182810382526025815260200180610f546025913960400191505060405180910390fd5b81600160003373ffffffffffffffffffffffffffffffffffffffff1673ffffffffffffffffffffffffffffffffffffffff1681526020019081526020016000208190555073b0821559723db89e0bd14fee81e13a3aae007e6573ffffffffffffffffffffffffffffffffffffffff1663a9059cbb33836040518363ffffffff1660e01b8152600401808373ffffffffffffffffffffffffffffffffffffffff16815260200182815260200192505050602060405180830381600087803b15801561067857600080fd5b505af115801561068c573d6000803e3d6000fd5b505050506040513d60208110156106a257600080fd5b8101908080519060200190929190505050505050565b6106c0610edc565b73ffffffffffffffffffffffffffffffffffffffff166106de610a28565b73ffffffffffffffffffffffffffffffffffffffff1614610767576040517f08c379a00000000000000000000000000000000000000000000000000000000081526004018080602001828103825260208152602001807f4f776e61626c653a2063616c6c6572206973206e6f7420746865206f776e657281525060200191505060405180910390fd5b600073ffffffffffffffffffffffffffffffffffffffff1660008054906101000a900473ffffffffffffffffffffffffffffffffffffffff1673ffffffffffffffffffffffffffffffffffffffff167f8be0079c531659141344cd1fd0a4f28419497f9722a3daafe3b4186f6b6457e060405160405180910390a360008060006101000a81548173ffffffffffffffffffffffffffffffffffffffff021916908373ffffffffffffffffffffffffffffffffffffffff160217905550565b60016020528060005260406000206000915090505481565b610845610edc565b73ffffffffffffffffffffffffffffffffffffffff16610863610a28565b73ffffffffffffffffffffffffffffffffffffffff16146108ec576040517f08c379a00000000000000000000000000000000000000000000000000000000081526004018080602001828103825260208152602001807f4f776e61626c653a2063616c6c6572206973206e6f7420746865206f776e657281525060200191505060405180910390fd5b6002544211610963576040517f08c379a000000000000000000000000000000000000000000000000000000000815260040180806020018281038252601c8152602001807f436c61696d5650553a3a636c61696d3a206e6f7420657870697265640000000081525060200191505060405180910390fd5b73b0821559723db89e0bd14fee81e13a3aae007e6573ffffffffffffffffffffffffffffffffffffffff1663a9059cbb83836040518363ffffffff1660e01b8152600401808373ffffffffffffffffffffffffffffffffffffffff16815260200182815260200192505050602060405180830381600087803b1580156109e857600080fd5b505af11580156109fc573d6000803e3d6000fd5b505050506040513d6020811015610a1257600080fd5b8101908080519060200190929190505050505050565b60008060009054906101000a900473ffffffffffffffffffffffffffffffffffffffff16905090565b60008073e92fddd633008c1bca6e738725d2190cd46df4a173ffffffffffffffffffffffffffffffffffffffff16633950891f846040518263ffffffff1660e01b8152600401808273ffffffffffffffffffffffffffffffffffffffff16815260200191505060206040518083038186803b158015610acf57600080fd5b505afa158015610ae3573d6000803e3d6000fd5b505050506040513d6020811015610af957600080fd5b8101908080519060200190929190505050600160008573ffffffffffffffffffffffffffffffffffffffff1673ffffffffffffffffffffffffffffffffffffffff1681526020019081526020016000205491509150915091565b60025481565b610b61610edc565b73ffffffffffffffffffffffffffffffffffffffff16610b7f610a28565b73ffffffffffffffffffffffffffffffffffffffff1614610c08576040517f08c379a00000000000000000000000000000000000000000000000000000000081526004018080602001828103825260208152602001807f4f776e61626c653a2063616c6c6572206973206e6f7420746865206f776e657281525060200191505060405180910390fd5b600073ffffffffffffffffffffffffffffffffffffffff168173ffffffffffffffffffffffffffffffffffffffff161415610c8e576040517f08c379a0000000000000000000000000000000000000000000000000000000008152600401808060200182810382526026815260200180610ee56026913960400191505060405180910390fd5b8073ffffffffffffffffffffffffffffffffffffffff1660008054906101000a900473ffffffffffffffffffffffffffffffffffffffff1673ffffffffffffffffffffffffffffffffffffffff167f8be0079c531659141344cd1fd0a4f28419497f9722a3daafe3b4186f6b6457e060405160405180910390a3806000806101000a81548173ffffffffffffffffffffffffffffffffffffffff021916908373ffffffffffffffffffffffffffffffffffffffff16021790555050565b600080828401905083811015610dc9576040517f08c379a000000000000000000000000000000000000000000000000000000000815260040180806020018281038252601b8152602001807f536166654d6174683a206164646974696f6e206f766572666c6f77000000000081525060200191505060405180910390fd5b8091505092915050565b600082821115610e4b576040517f08c379a000000000000000000000000000000000000000000000000000000000815260040180806020018281038252601e8152602001807f536166654d6174683a207375627472616374696f6e206f766572666c6f77000081525060200191505060405180910390fd5b818303905092915050565b600080831415610e695760009050610ed6565b6000828402905082848281610e7a57fe5b0414610ed1576040517f08c379a0000000000000000000000000000000000000000000000000000000008152600401808060200182810382526021815260200180610f0b6021913960400191505060405180910390fd5b809150505b92915050565b60003390509056fe4f776e61626c653a206e6577206f776e657220697320746865207a65726f2061646472657373536166654d6174683a206d756c7469706c69636174696f6e206f766572666c6f77436c61696d5650553a3a636c61696d3a206e6f7468696e67206973206e65776c79206d696e746564436c61696d5650553a3a636c61696d3a20696e73756666696369656e742062616c616e6365a26469706673582212208d9b45b7123609bb87b12b1dee4fddc833cc437d56c727584e56dc3363984d5664736f6c63430007000033",
  "immutableReferences": {},
  "source": "// SPDX-License-Identifier: MIT\r\n\r\npragma solidity >=0.6.0 <0.8.0;\r\n// pragma experimental ABIEncoderV2;\r\n\r\n/*\r\nimport \"https://github.com/OpenZeppelin/openzeppelin-contracts/blob/v3.4.0/contracts/access/Ownable.sol\";\r\nimport \"https://github.com/OpenZeppelin/openzeppelin-contracts/blob/v3.4.0/contracts/math/SafeMath.sol\";*/\r\n\r\nimport \"@openzeppelin/contracts/access/Ownable.sol\";\r\nimport \"@openzeppelin/contracts/math/SafeMath.sol\";\r\n\r\ninterface VPU {\r\n    function balanceOf(address account) external view returns (uint);\r\n    function transfer(address dst, uint rawAmount) external returns (bool);\r\n}\r\n\r\ninterface VPunks {\r\n    function userMintCount(address) external view returns (uint256);\r\n}\r\n\r\ncontract ClaimVPU is Ownable {\r\n    VPU constant VPUAccount = VPU(0xb0821559723dB89e0Bd14FEE81E13a3aaE007e65); // mainnet\r\n    VPunks constant VPunksAccount = VPunks(0xe92FDDD633008C1bca6E738725d2190cD46DF4a1); // mainnet\r\n\r\n    mapping (address => uint256) public userClaimCount;\r\n    uint public expirationTime;\r\n\r\n    uint256 amountForClaim = 500e18; // 500 VPU\r\n    \r\n    // ----------------------------------------------------------------------------\r\n    constructor(uint expirationAfterDay) {\r\n        expirationTime = SafeMath.add(block.timestamp, 1 days * expirationAfterDay);\r\n    }\r\n\r\n    function claim() public {\r\n        require(block.timestamp <= expirationTime, \"ClaimVPU::claim: expired\");\r\n        uint256 minted = VPunksAccount.userMintCount(msg.sender);\r\n        require(minted > 0 && minted > userClaimCount[msg.sender], \"ClaimVPU::claim: nothing is newly minted\");\r\n        uint256 newClaim = SafeMath.mul(SafeMath.sub(minted, userClaimCount[msg.sender]), amountForClaim);\r\n        require(getVPUBalance() >= newClaim, \"ClaimVPU::claim: insufficient balance\");\r\n        userClaimCount[msg.sender] = minted;\r\n        VPUAccount.transfer(msg.sender, newClaim);\r\n    }\r\n\r\n    // ----------------------------------------------------------------------------\r\n    function ownerWithdrawVPU(address payable recipient, uint256 amount) external onlyOwner {\r\n        require(block.timestamp > expirationTime, \"ClaimVPU::claim: not expired\");\r\n        VPUAccount.transfer(recipient, amount);\r\n    }\r\n\r\n    // ----------------------------------------------------------------------------\r\n    function getClaimCount(address account) public view returns (uint256, uint256) {\r\n        return (VPunksAccount.userMintCount(account), userClaimCount[account]);\r\n    }\r\n\r\n    function getVPUBalance() public view returns (uint256) {\r\n        return (VPUAccount.balanceOf(address(this)));\r\n    }\r\n}\r\n",
  "sourcePath": "C:/Working/Blockchain/Vechain/0_tvt/Vpunks/contracts/ClaimVPU.sol",
  "compiler": {
    "name": "solc",
    "version": "0.7.0+commit.9e61f92b.Emscripten.clang"
  },
  "schemaVersion": "3.3.4",
  "updatedAt": "2021-08-05T09:00:49.631Z",
  "networkType": "ethereum",
  "devdoc": {
    "kind": "dev",
    "methods": {
      "owner()": {
        "details": "Returns the address of the current owner."
      },
      "renounceOwnership()": {
        "details": "Leaves the contract without owner. It will not be possible to call `onlyOwner` functions anymore. Can only be called by the current owner. NOTE: Renouncing ownership will leave the contract without an owner, thereby removing any functionality that is only available to the owner."
      },
      "transferOwnership(address)": {
        "details": "Transfers ownership of the contract to a new account (`newOwner`). Can only be called by the current owner."
      }
    },
    "version": 1
  },
  "userdoc": {
    "kind": "user",
    "methods": {},
    "version": 1
  }
}