{
  "contractName": "ERC721BidV1",
  "abi": [
    {
      "anonymous": false,
      "inputs": [
        {
          "indexed": true,
          "internalType": "address",
          "name": "seller",
          "type": "address"
        },
        {
          "indexed": true,
          "internalType": "address",
          "name": "tokenAddress",
          "type": "address"
        },
        {
          "indexed": true,
          "internalType": "uint256",
          "name": "tokenId",
          "type": "uint256"
        },
        {
          "indexed": false,
          "internalType": "address",
          "name": "bidder",
          "type": "address"
        },
        {
          "indexed": false,
          "internalType": "address",
          "name": "paymentAddress",
          "type": "address"
        },
        {
          "indexed": false,
          "internalType": "uint256",
          "name": "price",
          "type": "uint256"
        },
        {
          "indexed": false,
          "internalType": "uint256",
          "name": "fee",
          "type": "uint256"
        }
      ],
      "name": "BidAccepted",
      "type": "event"
    },
    {
      "anonymous": false,
      "inputs": [
        {
          "indexed": true,
          "internalType": "address",
          "name": "bidder",
          "type": "address"
        },
        {
          "indexed": false,
          "internalType": "uint256",
          "name": "id",
          "type": "uint256"
        }
      ],
      "name": "BidCancelled",
      "type": "event"
    },
    {
      "anonymous": false,
      "inputs": [
        {
          "indexed": true,
          "internalType": "address",
          "name": "bidder",
          "type": "address"
        },
        {
          "indexed": false,
          "internalType": "uint256",
          "name": "id",
          "type": "uint256"
        }
      ],
      "name": "BidCreated",
      "type": "event"
    },
    {
      "anonymous": false,
      "inputs": [
        {
          "indexed": true,
          "internalType": "address",
          "name": "bidder",
          "type": "address"
        },
        {
          "indexed": true,
          "internalType": "address",
          "name": "tokenAddress",
          "type": "address"
        },
        {
          "indexed": true,
          "internalType": "uint256",
          "name": "tokenId",
          "type": "uint256"
        },
        {
          "indexed": false,
          "internalType": "address",
          "name": "seller",
          "type": "address"
        },
        {
          "indexed": false,
          "internalType": "address",
          "name": "paymentAddress",
          "type": "address"
        },
        {
          "indexed": false,
          "internalType": "uint256",
          "name": "price",
          "type": "uint256"
        }
      ],
      "name": "BidSuccessful",
      "type": "event"
    },
    {
      "anonymous": false,
      "inputs": [
        {
          "indexed": true,
          "internalType": "address",
          "name": "previousOwner",
          "type": "address"
        },
        {
          "indexed": true,
          "internalType": "address",
          "name": "newOwner",
          "type": "address"
        }
      ],
      "name": "OwnershipTransferred",
      "type": "event"
    },
    {
      "anonymous": false,
      "inputs": [
        {
          "indexed": false,
          "internalType": "address",
          "name": "account",
          "type": "address"
        }
      ],
      "name": "Paused",
      "type": "event"
    },
    {
      "anonymous": false,
      "inputs": [
        {
          "indexed": false,
          "internalType": "address",
          "name": "account",
          "type": "address"
        }
      ],
      "name": "Unpaused",
      "type": "event"
    },
    {
      "anonymous": false,
      "inputs": [
        {
          "indexed": true,
          "internalType": "address",
          "name": "tokenAddress",
          "type": "address"
        },
        {
          "indexed": true,
          "internalType": "address",
          "name": "from",
          "type": "address"
        },
        {
          "indexed": false,
          "internalType": "uint256",
          "name": "value",
          "type": "uint256"
        }
      ],
      "name": "UserDeposit",
      "type": "event"
    },
    {
      "anonymous": false,
      "inputs": [
        {
          "indexed": true,
          "internalType": "address",
          "name": "tokenAddress",
          "type": "address"
        },
        {
          "indexed": true,
          "internalType": "address",
          "name": "from",
          "type": "address"
        },
        {
          "indexed": true,
          "internalType": "address",
          "name": "to",
          "type": "address"
        },
        {
          "indexed": false,
          "internalType": "uint256",
          "name": "value",
          "type": "uint256"
        }
      ],
      "name": "UserWithdraw",
      "type": "event"
    },
    {
      "inputs": [],
      "name": "INCREASE_BID_RATE",
      "outputs": [
        {
          "internalType": "uint256",
          "name": "",
          "type": "uint256"
        }
      ],
      "stateMutability": "view",
      "type": "function",
      "constant": true
    },
    {
      "inputs": [],
      "name": "MAX_BID_DURATION",
      "outputs": [
        {
          "internalType": "uint256",
          "name": "",
          "type": "uint256"
        }
      ],
      "stateMutability": "view",
      "type": "function",
      "constant": true
    },
    {
      "inputs": [
        {
          "internalType": "uint256",
          "name": "",
          "type": "uint256"
        }
      ],
      "name": "bidIdToBid",
      "outputs": [
        {
          "internalType": "address",
          "name": "bidder",
          "type": "address"
        },
        {
          "internalType": "address",
          "name": "tokenAddress",
          "type": "address"
        },
        {
          "internalType": "address",
          "name": "paymentAddress",
          "type": "address"
        },
        {
          "internalType": "uint256",
          "name": "tokenId",
          "type": "uint256"
        },
        {
          "internalType": "uint256",
          "name": "price",
          "type": "uint256"
        },
        {
          "internalType": "uint256",
          "name": "startedAt",
          "type": "uint256"
        },
        {
          "internalType": "uint256",
          "name": "duration",
          "type": "uint256"
        }
      ],
      "stateMutability": "view",
      "type": "function",
      "constant": true
    },
    {
      "inputs": [],
      "name": "owner",
      "outputs": [
        {
          "internalType": "address",
          "name": "",
          "type": "address"
        }
      ],
      "stateMutability": "view",
      "type": "function",
      "constant": true
    },
    {
      "inputs": [],
      "name": "paused",
      "outputs": [
        {
          "internalType": "bool",
          "name": "",
          "type": "bool"
        }
      ],
      "stateMutability": "view",
      "type": "function",
      "constant": true
    },
    {
      "inputs": [],
      "name": "renounceOwnership",
      "outputs": [],
      "stateMutability": "nonpayable",
      "type": "function"
    },
    {
      "inputs": [
        {
          "internalType": "address",
          "name": "",
          "type": "address"
        }
      ],
      "name": "supportedErc721Map",
      "outputs": [
        {
          "internalType": "bool",
          "name": "enable",
          "type": "bool"
        },
        {
          "internalType": "uint256",
          "name": "feeRate",
          "type": "uint256"
        }
      ],
      "stateMutability": "view",
      "type": "function",
      "constant": true
    },
    {
      "inputs": [
        {
          "internalType": "address",
          "name": "",
          "type": "address"
        }
      ],
      "name": "supportedPaymentMap",
      "outputs": [
        {
          "internalType": "uint256",
          "name": "minPrice",
          "type": "uint256"
        },
        {
          "internalType": "uint256",
          "name": "lockRequired",
          "type": "uint256"
        },
        {
          "internalType": "uint256",
          "name": "feeRate",
          "type": "uint256"
        },
        {
          "internalType": "bool",
          "name": "enable",
          "type": "bool"
        }
      ],
      "stateMutability": "view",
      "type": "function",
      "constant": true
    },
    {
      "inputs": [],
      "name": "totalBidCount",
      "outputs": [
        {
          "internalType": "uint256",
          "name": "",
          "type": "uint256"
        }
      ],
      "stateMutability": "view",
      "type": "function",
      "constant": true
    },
    {
      "inputs": [
        {
          "internalType": "address",
          "name": "",
          "type": "address"
        }
      ],
      "name": "totalErc20OfUsers",
      "outputs": [
        {
          "internalType": "uint256",
          "name": "",
          "type": "uint256"
        }
      ],
      "stateMutability": "view",
      "type": "function",
      "constant": true
    },
    {
      "inputs": [
        {
          "internalType": "address",
          "name": "newOwner",
          "type": "address"
        }
      ],
      "name": "transferOwnership",
      "outputs": [],
      "stateMutability": "nonpayable",
      "type": "function"
    },
    {
      "inputs": [
        {
          "internalType": "address",
          "name": "",
          "type": "address"
        },
        {
          "internalType": "address",
          "name": "",
          "type": "address"
        },
        {
          "internalType": "uint256",
          "name": "",
          "type": "uint256"
        }
      ],
      "name": "userBidIdByTokenId",
      "outputs": [
        {
          "internalType": "uint256",
          "name": "",
          "type": "uint256"
        }
      ],
      "stateMutability": "view",
      "type": "function",
      "constant": true
    },
    {
      "inputs": [
        {
          "internalType": "address",
          "name": "",
          "type": "address"
        },
        {
          "internalType": "address",
          "name": "",
          "type": "address"
        }
      ],
      "name": "userErc20Balance",
      "outputs": [
        {
          "internalType": "uint256",
          "name": "",
          "type": "uint256"
        }
      ],
      "stateMutability": "view",
      "type": "function",
      "constant": true
    },
    {
      "inputs": [
        {
          "internalType": "address",
          "name": "",
          "type": "address"
        }
      ],
      "name": "userErc20Locked",
      "outputs": [
        {
          "internalType": "address",
          "name": "paymentAddress",
          "type": "address"
        },
        {
          "internalType": "uint256",
          "name": "amount",
          "type": "uint256"
        }
      ],
      "stateMutability": "view",
      "type": "function",
      "constant": true
    },
    {
      "inputs": [
        {
          "internalType": "bool",
          "name": "pause",
          "type": "bool"
        }
      ],
      "name": "setPause",
      "outputs": [],
      "stateMutability": "nonpayable",
      "type": "function"
    },
    {
      "inputs": [
        {
          "internalType": "uint256",
          "name": "maxDuration",
          "type": "uint256"
        },
        {
          "internalType": "uint256",
          "name": "increaseRate",
          "type": "uint256"
        }
      ],
      "name": "settings",
      "outputs": [],
      "stateMutability": "nonpayable",
      "type": "function"
    },
    {
      "inputs": [
        {
          "internalType": "address",
          "name": "tokenAddress",
          "type": "address"
        },
        {
          "internalType": "uint256",
          "name": "tokenId",
          "type": "uint256"
        },
        {
          "internalType": "address",
          "name": "recipient",
          "type": "address"
        }
      ],
      "name": "erc721Withdraw",
      "outputs": [],
      "stateMutability": "nonpayable",
      "type": "function"
    },
    {
      "inputs": [
        {
          "internalType": "address",
          "name": "erc20Address",
          "type": "address"
        },
        {
          "internalType": "uint256",
          "name": "minPrice",
          "type": "uint256"
        },
        {
          "internalType": "uint256",
          "name": "lockRequired",
          "type": "uint256"
        },
        {
          "internalType": "uint256",
          "name": "feeRate",
          "type": "uint256"
        },
        {
          "internalType": "bool",
          "name": "enable",
          "type": "bool"
        },
        {
          "internalType": "bool",
          "name": "resetFee",
          "type": "bool"
        }
      ],
      "name": "addPayment",
      "outputs": [],
      "stateMutability": "nonpayable",
      "type": "function"
    },
    {
      "inputs": [
        {
          "internalType": "address",
          "name": "erc20Address",
          "type": "address"
        },
        {
          "internalType": "address",
          "name": "recipient",
          "type": "address"
        },
        {
          "internalType": "uint256",
          "name": "amount",
          "type": "uint256"
        }
      ],
      "name": "ownerWithdraw",
      "outputs": [],
      "stateMutability": "nonpayable",
      "type": "function"
    },
    {
      "inputs": [
        {
          "internalType": "address",
          "name": "erc721Address",
          "type": "address"
        },
        {
          "internalType": "bool",
          "name": "enable",
          "type": "bool"
        },
        {
          "internalType": "uint256",
          "name": "feeRate",
          "type": "uint256"
        }
      ],
      "name": "setErc721Support",
      "outputs": [],
      "stateMutability": "nonpayable",
      "type": "function"
    },
    {
      "inputs": [
        {
          "internalType": "uint256[]",
          "name": "bidIds",
          "type": "uint256[]"
        }
      ],
      "name": "adminRemoveBids",
      "outputs": [],
      "stateMutability": "nonpayable",
      "type": "function"
    },
    {
      "inputs": [
        {
          "internalType": "address",
          "name": "erc20Address",
          "type": "address"
        },
        {
          "internalType": "uint256",
          "name": "amount",
          "type": "uint256"
        }
      ],
      "name": "userDeposit",
      "outputs": [],
      "stateMutability": "payable",
      "type": "function",
      "payable": true
    },
    {
      "inputs": [
        {
          "internalType": "address",
          "name": "erc20Address",
          "type": "address"
        },
        {
          "internalType": "address",
          "name": "recipient",
          "type": "address"
        },
        {
          "internalType": "uint256",
          "name": "amount",
          "type": "uint256"
        }
      ],
      "name": "userWithdraw",
      "outputs": [],
      "stateMutability": "nonpayable",
      "type": "function"
    },
    {
      "inputs": [
        {
          "internalType": "address",
          "name": "erc20Address",
          "type": "address"
        }
      ],
      "name": "lockBalance",
      "outputs": [],
      "stateMutability": "nonpayable",
      "type": "function"
    },
    {
      "inputs": [],
      "name": "unlockBalance",
      "outputs": [],
      "stateMutability": "nonpayable",
      "type": "function"
    },
    {
      "inputs": [
        {
          "internalType": "address",
          "name": "tokenAddress",
          "type": "address"
        },
        {
          "internalType": "uint256",
          "name": "tokenId",
          "type": "uint256"
        },
        {
          "internalType": "address",
          "name": "paymentAddress",
          "type": "address"
        },
        {
          "internalType": "uint256",
          "name": "price",
          "type": "uint256"
        },
        {
          "internalType": "uint256",
          "name": "duration",
          "type": "uint256"
        }
      ],
      "name": "placeBid",
      "outputs": [],
      "stateMutability": "nonpayable",
      "type": "function"
    },
    {
      "inputs": [
        {
          "internalType": "uint256[]",
          "name": "bidIds",
          "type": "uint256[]"
        }
      ],
      "name": "acceptBids",
      "outputs": [],
      "stateMutability": "nonpayable",
      "type": "function"
    },
    {
      "inputs": [
        {
          "internalType": "uint256[]",
          "name": "bidIds",
          "type": "uint256[]"
        }
      ],
      "name": "cancelBids",
      "outputs": [],
      "stateMutability": "nonpayable",
      "type": "function"
    },
    {
      "inputs": [],
      "name": "paymentAddressList",
      "outputs": [
        {
          "internalType": "address[]",
          "name": "",
          "type": "address[]"
        }
      ],
      "stateMutability": "view",
      "type": "function",
      "constant": true
    },
    {
      "inputs": [
        {
          "internalType": "address",
          "name": "bidder",
          "type": "address"
        }
      ],
      "name": "totalBidOfBidder",
      "outputs": [
        {
          "internalType": "uint256",
          "name": "",
          "type": "uint256"
        }
      ],
      "stateMutability": "view",
      "type": "function",
      "constant": true
    },
    {
      "inputs": [
        {
          "internalType": "address",
          "name": "bidder",
          "type": "address"
        },
        {
          "internalType": "uint256",
          "name": "index",
          "type": "uint256"
        }
      ],
      "name": "bidOfBidderByIndex",
      "outputs": [
        {
          "internalType": "uint256",
          "name": "bidId",
          "type": "uint256"
        },
        {
          "internalType": "address",
          "name": "tokenAddress",
          "type": "address"
        },
        {
          "internalType": "address",
          "name": "paymentAddress",
          "type": "address"
        },
        {
          "internalType": "uint256",
          "name": "tokenId",
          "type": "uint256"
        },
        {
          "internalType": "uint256",
          "name": "price",
          "type": "uint256"
        },
        {
          "internalType": "uint256",
          "name": "startedAt",
          "type": "uint256"
        },
        {
          "internalType": "uint256",
          "name": "duration",
          "type": "uint256"
        }
      ],
      "stateMutability": "view",
      "type": "function",
      "constant": true
    },
    {
      "inputs": [
        {
          "internalType": "address",
          "name": "tokenAddress",
          "type": "address"
        },
        {
          "internalType": "uint256",
          "name": "tokenId",
          "type": "uint256"
        }
      ],
      "name": "totalBidOfTokenId",
      "outputs": [
        {
          "internalType": "uint256",
          "name": "",
          "type": "uint256"
        }
      ],
      "stateMutability": "view",
      "type": "function",
      "constant": true
    },
    {
      "inputs": [
        {
          "internalType": "address",
          "name": "tokenAddress",
          "type": "address"
        },
        {
          "internalType": "uint256",
          "name": "tokenId",
          "type": "uint256"
        },
        {
          "internalType": "uint256",
          "name": "index",
          "type": "uint256"
        }
      ],
      "name": "bidOfTokenIdByIndex",
      "outputs": [
        {
          "internalType": "uint256",
          "name": "bidId",
          "type": "uint256"
        },
        {
          "internalType": "address",
          "name": "bidder",
          "type": "address"
        },
        {
          "internalType": "address",
          "name": "paymentAddress",
          "type": "address"
        },
        {
          "internalType": "uint256",
          "name": "price",
          "type": "uint256"
        },
        {
          "internalType": "uint256",
          "name": "startedAt",
          "type": "uint256"
        },
        {
          "internalType": "uint256",
          "name": "duration",
          "type": "uint256"
        }
      ],
      "stateMutability": "view",
      "type": "function",
      "constant": true
    },
    {
      "inputs": [
        {
          "internalType": "address",
          "name": "tokenAddress",
          "type": "address"
        },
        {
          "internalType": "uint256",
          "name": "tokenId",
          "type": "uint256"
        },
        {
          "internalType": "address",
          "name": "paymentAddress",
          "type": "address"
        }
      ],
      "name": "highBidByTokenId",
      "outputs": [
        {
          "internalType": "uint256",
          "name": "highBid",
          "type": "uint256"
        },
        {
          "internalType": "uint256",
          "name": "nextBidRequire",
          "type": "uint256"
        }
      ],
      "stateMutability": "view",
      "type": "function",
      "constant": true
    },
    {
      "inputs": [
        {
          "internalType": "uint256[]",
          "name": "bidIds",
          "type": "uint256[]"
        }
      ],
      "name": "validBidByBidIds",
      "outputs": [
        {
          "internalType": "bool[]",
          "name": "results",
          "type": "bool[]"
        }
      ],
      "stateMutability": "view",
      "type": "function",
      "constant": true
    }
  ],
  "bytecode": "0x60806040526301e13380600e55610bb8600f553480156200001f57600080fd5b5062000040620000346200006760201b60201c565b6200006f60201b60201c565b60008060146101000a81548160ff0219169083151502179055506001808190555062000133565b600033905090565b60008060009054906101000a900473ffffffffffffffffffffffffffffffffffffffff169050816000806101000a81548173ffffffffffffffffffffffffffffffffffffffff021916908373ffffffffffffffffffffffffffffffffffffffff1602179055508173ffffffffffffffffffffffffffffffffffffffff168173ffffffffffffffffffffffffffffffffffffffff167f8be0079c531659141344cd1fd0a4f28419497f9722a3daafe3b4186f6b6457e060405160405180910390a35050565b615fa780620001436000396000f3fe6080604052600436106102045760003560e01c80639205223f11610118578063c553bc3d116100a0578063da92d5531161006f578063da92d553146107c8578063df097a62146107f1578063e3ab4bc61461081a578063ebe9f9bd1461085a578063f2fde38b1461087157610204565b8063c553bc3d1461070e578063cb41269d14610737578063cd05a91a14610762578063ce2f98151461079f57610204565b8063a750066e116100e7578063a750066e14610638578063a9a52a0514610663578063b3276eb1146106a0578063b52d7343146106c9578063bedb86fb146106e557610204565b80639205223f146105525780639b7b35131461058f578063a2965c24146105cd578063a36561db146105f657610204565b80635da6b8f71161019b57806377ecf4111161016a57806377ecf411146104595780637cbc6903146104825780637ce337bd146104ad5780637eba034e146104ea5780638da5cb5b1461052757610204565b80635da6b8f7146103b05780635e15ff4b146103db578063715018a6146104195780637441b8bb1461043057610204565b8063400f5dd2116101d7578063400f5dd2146102c757806344049f6d146103045780634d275a63146103475780635c975abb1461038557610204565b806301fe45e11461020957806322097145146102325780632bcaa0e21461025b5780633e4f9abc14610284575b600080fd5b34801561021557600080fd5b50610230600480360381019061022b919061522d565b61089a565b005b34801561023e57600080fd5b5061025960048036038101906102549190614f1f565b610928565b005b34801561026757600080fd5b50610282600480360381019061027d9190614ed0565b610a96565b005b34801561029057600080fd5b506102ab60048036038101906102a69190614f6e565b610d15565b6040516102be9796959493929190615b31565b60405180910390f35b3480156102d357600080fd5b506102ee60048036038101906102e99190614e94565b610ef9565b6040516102fb9190615ab5565b60405180910390f35b34801561031057600080fd5b5061032b600480360381019061032691906151db565b610f1e565b60405161033e9796959493929190615779565b60405180910390f35b34801561035357600080fd5b5061036e60048036038101906103699190614e42565b610fc0565b60405161037c929190615864565b60405180910390f35b34801561039157600080fd5b5061039a611004565b6040516103a791906158d1565b60405180910390f35b3480156103bc57600080fd5b506103c561101a565b6040516103d2919061588d565b60405180910390f35b3480156103e757600080fd5b5061040260048036038101906103fd9190614e42565b61102b565b6040516104109291906158ec565b60405180910390f35b34801561042557600080fd5b5061042e61105c565b005b34801561043c57600080fd5b5061045760048036038101906104529190614e42565b6110e4565b005b34801561046557600080fd5b50610480600480360381019061047b9190614ed0565b6113ba565b005b34801561048e57600080fd5b506104976119b4565b6040516104a49190615ab5565b60405180910390f35b3480156104b957600080fd5b506104d460048036038101906104cf9190614e42565b6119ba565b6040516104e19190615ab5565b60405180910390f35b3480156104f657600080fd5b50610511600480360381019061050c9190614ed0565b6119d2565b60405161051e9190615ab5565b60405180910390f35b34801561053357600080fd5b5061053c611a04565b6040516105499190615735565b60405180910390f35b34801561055e57600080fd5b5061057960048036038101906105749190614e42565b611a2d565b6040516105869190615ab5565b60405180910390f35b34801561059b57600080fd5b506105b660048036038101906105b19190614faa565b611a7d565b6040516105c4929190615ba0565b60405180910390f35b3480156105d957600080fd5b506105f460048036038101906105ef9190615148565b611d71565b005b34801561060257600080fd5b5061061d60048036038101906106189190615070565b61202c565b60405161062f96959493929190615ad0565b60405180910390f35b34801561064457600080fd5b5061064d612218565b60405161065a9190615ab5565b60405180910390f35b34801561066f57600080fd5b5061068a60048036038101906106859190614f6e565b61221e565b6040516106979190615ab5565b60405180910390f35b3480156106ac57600080fd5b506106c760048036038101906106c29190615148565b612280565b005b6106e360048036038101906106de9190614f6e565b612524565b005b3480156106f157600080fd5b5061070c60048036038101906107079190615189565b6126ea565b005b34801561071a57600080fd5b5061073560048036038101906107309190615148565b612784565b005b34801561074357600080fd5b5061074c612c28565b6040516107599190615ab5565b60405180910390f35b34801561076e57600080fd5b5061078960048036038101906107849190615148565b612c2e565b60405161079691906158af565b60405180910390f35b3480156107ab57600080fd5b506107c660048036038101906107c19190614faa565b612ea8565b005b3480156107d457600080fd5b506107ef60048036038101906107ea9190614ff9565b612f98565b005b3480156107fd57600080fd5b50610818600480360381019061081391906150bf565b61368a565b005b34801561082657600080fd5b50610841600480360381019061083c9190614e42565b61384f565b6040516108519493929190615bc9565b60405180910390f35b34801561086657600080fd5b5061086f61388c565b005b34801561087d57600080fd5b5061089860048036038101906108939190614e42565b613af4565b005b6108a2613bec565b73ffffffffffffffffffffffffffffffffffffffff166108c0611a04565b73ffffffffffffffffffffffffffffffffffffffff1614610916576040517f08c379a000000000000000000000000000000000000000000000000000000000815260040161090d90615a55565b60405180910390fd5b81600e8190555080600f819055505050565b610930613bec565b73ffffffffffffffffffffffffffffffffffffffff1661094e611a04565b73ffffffffffffffffffffffffffffffffffffffff16146109a4576040517f08c379a000000000000000000000000000000000000000000000000000000000815260040161099b90615a55565b60405180910390fd5b8115610a32576040518060400160405280831515815260200182815250600260008573ffffffffffffffffffffffffffffffffffffffff1673ffffffffffffffffffffffffffffffffffffffff16815260200190815260200160002060008201518160000160006101000a81548160ff02191690831515021790555060208201518160010155905050610a91565b600260008473ffffffffffffffffffffffffffffffffffffffff1673ffffffffffffffffffffffffffffffffffffffff168152602001908152602001600020600080820160006101000a81549060ff0219169055600182016000905550505b505050565b610a9e613bec565b73ffffffffffffffffffffffffffffffffffffffff16610abc611a04565b73ffffffffffffffffffffffffffffffffffffffff1614610b12576040517f08c379a0000000000000000000000000000000000000000000000000000000008152600401610b0990615a55565b60405180910390fd5b600081600660008673ffffffffffffffffffffffffffffffffffffffff1673ffffffffffffffffffffffffffffffffffffffff16815260200190815260200160002054610b5f9190615cf9565b9050600073ffffffffffffffffffffffffffffffffffffffff168473ffffffffffffffffffffffffffffffffffffffff161415610bea57804710610be5578273ffffffffffffffffffffffffffffffffffffffff166108fc839081150290604051600060405180830381858888f19350505050158015610be3573d6000803e3d6000fd5b505b610d0f565b6000849050818173ffffffffffffffffffffffffffffffffffffffff166370a08231306040518263ffffffff1660e01b8152600401610c299190615735565b60206040518083038186803b158015610c4157600080fd5b505afa158015610c55573d6000803e3d6000fd5b505050506040513d601f19601f82011682018060405250810190610c799190615204565b10610d0d578073ffffffffffffffffffffffffffffffffffffffff1663a9059cbb85856040518363ffffffff1660e01b8152600401610cb9929190615864565b602060405180830381600087803b158015610cd357600080fd5b505af1158015610ce7573d6000803e3d6000fd5b505050506040513d601f19601f82011682018060405250810190610d0b91906151b2565b505b505b50505050565b6000806000806000806000610d7188600c60008c73ffffffffffffffffffffffffffffffffffffffff1673ffffffffffffffffffffffffffffffffffffffff168152602001908152602001600020613bf490919063ffffffff16565b96506000600860008981526020019081526020016000206040518060e00160405290816000820160009054906101000a900473ffffffffffffffffffffffffffffffffffffffff1673ffffffffffffffffffffffffffffffffffffffff1673ffffffffffffffffffffffffffffffffffffffff1681526020016001820160009054906101000a900473ffffffffffffffffffffffffffffffffffffffff1673ffffffffffffffffffffffffffffffffffffffff1673ffffffffffffffffffffffffffffffffffffffff1681526020016002820160009054906101000a900473ffffffffffffffffffffffffffffffffffffffff1673ffffffffffffffffffffffffffffffffffffffff1673ffffffffffffffffffffffffffffffffffffffff16815260200160038201548152602001600482015481526020016005820154815260200160068201548152505090508781602001518260400151836060015184608001518560a001518660c0015197509750975097509750975097505092959891949750929550565b600b602052816000526040600020602052806000526040600020600091509150505481565b60086020528060005260406000206000915090508060000160009054906101000a900473ffffffffffffffffffffffffffffffffffffffff16908060010160009054906101000a900473ffffffffffffffffffffffffffffffffffffffff16908060020160009054906101000a900473ffffffffffffffffffffffffffffffffffffffff16908060030154908060040154908060050154908060060154905087565b600a6020528060005260406000206000915090508060000160009054906101000a900473ffffffffffffffffffffffffffffffffffffffff16908060010154905082565b60008060149054906101000a900460ff16905090565b60606110266004613c0e565b905090565b60026020528060005260406000206000915090508060000160009054906101000a900460ff16908060010154905082565b611064613bec565b73ffffffffffffffffffffffffffffffffffffffff16611082611a04565b73ffffffffffffffffffffffffffffffffffffffff16146110d8576040517f08c379a00000000000000000000000000000000000000000000000000000000081526004016110cf90615a55565b60405180910390fd5b6110e26000613c2f565b565b60006110ee613bec565b90506000600360008473ffffffffffffffffffffffffffffffffffffffff1673ffffffffffffffffffffffffffffffffffffffff1681526020019081526020016000206001015490506000811180156111c3575080600b60008473ffffffffffffffffffffffffffffffffffffffff1673ffffffffffffffffffffffffffffffffffffffff16815260200190815260200160002060008573ffffffffffffffffffffffffffffffffffffffff1673ffffffffffffffffffffffffffffffffffffffff1681526020019081526020016000205410155b156113b5576000600a60008473ffffffffffffffffffffffffffffffffffffffff1673ffffffffffffffffffffffffffffffffffffffff16815260200190815260200160002090506000816001015411156112d4578060010154600b60008573ffffffffffffffffffffffffffffffffffffffff1673ffffffffffffffffffffffffffffffffffffffff16815260200190815260200160002060008360000160009054906101000a900473ffffffffffffffffffffffffffffffffffffffff1673ffffffffffffffffffffffffffffffffffffffff1673ffffffffffffffffffffffffffffffffffffffff16815260200190815260200160002060008282546112cc9190615cf9565b925050819055505b81600b60008573ffffffffffffffffffffffffffffffffffffffff1673ffffffffffffffffffffffffffffffffffffffff16815260200190815260200160002060008673ffffffffffffffffffffffffffffffffffffffff1673ffffffffffffffffffffffffffffffffffffffff16815260200190815260200160002060008282546113609190615dda565b92505081905550838160000160006101000a81548173ffffffffffffffffffffffffffffffffffffffff021916908373ffffffffffffffffffffffffffffffffffffffff160217905550818160010181905550505b505050565b60026001541415611400576040517f08c379a00000000000000000000000000000000000000000000000000000000081526004016113f790615a95565b60405180910390fd5b6002600181905550611410611004565b15611450576040517f08c379a0000000000000000000000000000000000000000000000000000000008152600401611447906159f5565b60405180910390fd5b600061145a613bec565b90506000600b60008373ffffffffffffffffffffffffffffffffffffffff1673ffffffffffffffffffffffffffffffffffffffff16815260200190815260200160002060008673ffffffffffffffffffffffffffffffffffffffff1673ffffffffffffffffffffffffffffffffffffffff168152602001908152602001600020549050600073ffffffffffffffffffffffffffffffffffffffff168473ffffffffffffffffffffffffffffffffffffffff161415801561151a5750600083115b80156115265750808311155b611565576040517f08c379a000000000000000000000000000000000000000000000000000000000815260040161155c90615a35565b60405180910390fd5b60006115ae600c60008573ffffffffffffffffffffffffffffffffffffffff1673ffffffffffffffffffffffffffffffffffffffff168152602001908152602001600020613cf3565b90506000805b82518110156116ec578773ffffffffffffffffffffffffffffffffffffffff1660086000858481518110611611577f4e487b7100000000000000000000000000000000000000000000000000000000600052603260045260246000fd5b6020026020010151815260200190815260200160002060020160009054906101000a900473ffffffffffffffffffffffffffffffffffffffff1673ffffffffffffffffffffffffffffffffffffffff1614156116cc57600860008483815181106116a4577f4e487b7100000000000000000000000000000000000000000000000000000000600052603260045260246000fd5b6020026020010151815260200190815260200160002060040154826116c99190615cf9565b91505b838211156116d9576116ec565b80806116e490615e56565b9150506115b4565b508085846116fa9190615dda565b106119a45760008073ffffffffffffffffffffffffffffffffffffffff168873ffffffffffffffffffffffffffffffffffffffff1614156117a6578673ffffffffffffffffffffffffffffffffffffffff168660405161175990615720565b60006040518083038185875af1925050503d8060008114611796576040519150601f19603f3d011682016040523d82523d6000602084013e61179b565b606091505b505080915050611836565b8773ffffffffffffffffffffffffffffffffffffffff1663a9059cbb88886040518363ffffffff1660e01b81526004016117e1929190615864565b602060405180830381600087803b1580156117fb57600080fd5b505af115801561180f573d6000803e3d6000fd5b505050506040513d601f19601f8201168201806040525081019061183391906151b2565b90505b80156119a25785600b60008773ffffffffffffffffffffffffffffffffffffffff1673ffffffffffffffffffffffffffffffffffffffff16815260200190815260200160002060008a73ffffffffffffffffffffffffffffffffffffffff1673ffffffffffffffffffffffffffffffffffffffff16815260200190815260200160002060008282546118c89190615dda565b9250508190555085600660008a73ffffffffffffffffffffffffffffffffffffffff1673ffffffffffffffffffffffffffffffffffffffff168152602001908152602001600020600082825461191e9190615dda565b925050819055508673ffffffffffffffffffffffffffffffffffffffff168573ffffffffffffffffffffffffffffffffffffffff168973ffffffffffffffffffffffffffffffffffffffff167f2745f732cf34ff38388d76781c87235a1b552193a2fc9ecbdd3e401f7cb3115f896040516119999190615ab5565b60405180910390a45b505b5050505060018081905550505050565b60075481565b60066020528060005260406000206000915090505481565b600d60205282600052604060002060205281600052604060002060205280600052604060002060009250925050505481565b60008060009054906101000a900473ffffffffffffffffffffffffffffffffffffffff16905090565b6000611a76600c60008473ffffffffffffffffffffffffffffffffffffffff1673ffffffffffffffffffffffffffffffffffffffff168152602001908152602001600020613d14565b9050919050565b6000806000611ada600960008873ffffffffffffffffffffffffffffffffffffffff1673ffffffffffffffffffffffffffffffffffffffff1681526020019081526020016000206000878152602001908152602001600020613cf3565b90506000925060005b8151811015611cef57600060086000848481518110611b2b577f4e487b7100000000000000000000000000000000000000000000000000000000600052603260045260246000fd5b602002602001015181526020019081526020016000206040518060e00160405290816000820160009054906101000a900473ffffffffffffffffffffffffffffffffffffffff1673ffffffffffffffffffffffffffffffffffffffff1673ffffffffffffffffffffffffffffffffffffffff1681526020016001820160009054906101000a900473ffffffffffffffffffffffffffffffffffffffff1673ffffffffffffffffffffffffffffffffffffffff1673ffffffffffffffffffffffffffffffffffffffff1681526020016002820160009054906101000a900473ffffffffffffffffffffffffffffffffffffffff1673ffffffffffffffffffffffffffffffffffffffff1673ffffffffffffffffffffffffffffffffffffffff16815260200160038201548152602001600482015481526020016005820154815260200160068201548152505090508573ffffffffffffffffffffffffffffffffffffffff16816040015173ffffffffffffffffffffffffffffffffffffffff1614611cb55750611cdc565b848160800151118015611ccd5750611ccc81613d29565b5b15611cda57806080015194505b505b8080611ce790615e56565b915050611ae3565b50600360008573ffffffffffffffffffffffffffffffffffffffff1673ffffffffffffffffffffffffffffffffffffffff1681526020019081526020016000206000015491506000831115611d6857620186a0600f5484611d509190615d80565b611d5a9190615d4f565b83611d659190615cf9565b91505b50935093915050565b611d79611004565b15611db9576040517f08c379a0000000000000000000000000000000000000000000000000000000008152600401611db0906159f5565b60405180910390fd5b6000611dc3613bec565b905060005b825181101561202757600060086000858481518110611e10577f4e487b7100000000000000000000000000000000000000000000000000000000600052603260045260246000fd5b602002602001015181526020019081526020016000206040518060e00160405290816000820160009054906101000a900473ffffffffffffffffffffffffffffffffffffffff1673ffffffffffffffffffffffffffffffffffffffff1673ffffffffffffffffffffffffffffffffffffffff1681526020016001820160009054906101000a900473ffffffffffffffffffffffffffffffffffffffff1673ffffffffffffffffffffffffffffffffffffffff1673ffffffffffffffffffffffffffffffffffffffff1681526020016002820160009054906101000a900473ffffffffffffffffffffffffffffffffffffffff1673ffffffffffffffffffffffffffffffffffffffff1673ffffffffffffffffffffffffffffffffffffffff1681526020016003820154815260200160048201548152602001600582015481526020016006820154815250509050806000015173ffffffffffffffffffffffffffffffffffffffff168373ffffffffffffffffffffffffffffffffffffffff1614611f9a5750612014565b6000611fb3826000015183602001518460600151613eaf565b9050600081111561201157816000015173ffffffffffffffffffffffffffffffffffffffff167f8d38c62ee74cd9e3dbcc09feaa7d1f5568aeaa35cbf8a0f167f513c07e2fd0b8826040516120089190615ab5565b60405180910390a25b50505b808061201f90615e56565b915050611dc8565b505050565b60008060008060008061209787600960008c73ffffffffffffffffffffffffffffffffffffffff1673ffffffffffffffffffffffffffffffffffffffff16815260200190815260200160002060008b8152602001908152602001600020613bf490919063ffffffff16565b95506000600860008881526020019081526020016000206040518060e00160405290816000820160009054906101000a900473ffffffffffffffffffffffffffffffffffffffff1673ffffffffffffffffffffffffffffffffffffffff1673ffffffffffffffffffffffffffffffffffffffff1681526020016001820160009054906101000a900473ffffffffffffffffffffffffffffffffffffffff1673ffffffffffffffffffffffffffffffffffffffff1673ffffffffffffffffffffffffffffffffffffffff1681526020016002820160009054906101000a900473ffffffffffffffffffffffffffffffffffffffff1673ffffffffffffffffffffffffffffffffffffffff1673ffffffffffffffffffffffffffffffffffffffff1681526020016003820154815260200160048201548152602001600582015481526020016006820154815250509050868160000151826040015183608001518460a001518560c001519650965096509650965096505093975093979195509350565b600e5481565b6000612278600960008573ffffffffffffffffffffffffffffffffffffffff1673ffffffffffffffffffffffffffffffffffffffff1681526020019081526020016000206000848152602001908152602001600020613d14565b905092915050565b612288613bec565b73ffffffffffffffffffffffffffffffffffffffff166122a6611a04565b73ffffffffffffffffffffffffffffffffffffffff16146122fc576040517f08c379a00000000000000000000000000000000000000000000000000000000081526004016122f390615a55565b60405180910390fd5b60005b815181101561252057600060086000848481518110612347577f4e487b7100000000000000000000000000000000000000000000000000000000600052603260045260246000fd5b602002602001015181526020019081526020016000206040518060e00160405290816000820160009054906101000a900473ffffffffffffffffffffffffffffffffffffffff1673ffffffffffffffffffffffffffffffffffffffff1673ffffffffffffffffffffffffffffffffffffffff1681526020016001820160009054906101000a900473ffffffffffffffffffffffffffffffffffffffff1673ffffffffffffffffffffffffffffffffffffffff1673ffffffffffffffffffffffffffffffffffffffff1681526020016002820160009054906101000a900473ffffffffffffffffffffffffffffffffffffffff1673ffffffffffffffffffffffffffffffffffffffff1673ffffffffffffffffffffffffffffffffffffffff168152602001600382015481526020016004820154815260200160058201548152602001600682015481525050905060006124ad826000015183602001518460600151613eaf565b9050600081111561250b57816000015173ffffffffffffffffffffffffffffffffffffffff167f8d38c62ee74cd9e3dbcc09feaa7d1f5568aeaa35cbf8a0f167f513c07e2fd0b8826040516125029190615ab5565b60405180910390a25b5050808061251890615e56565b9150506122ff565b5050565b6002600154141561256a576040517f08c379a000000000000000000000000000000000000000000000000000000000815260040161256190615a95565b60405180910390fd5b600260018190555061257a611004565b156125ba576040517f08c379a00000000000000000000000000000000000000000000000000000000081526004016125b1906159f5565b60405180910390fd5b60006125c4613bec565b905060003411156125dc576125db81600034614148565b5b600360008473ffffffffffffffffffffffffffffffffffffffff1673ffffffffffffffffffffffffffffffffffffffff16815260200190815260200160002060030160009054906101000a900460ff1680156126385750600082115b156126de578273ffffffffffffffffffffffffffffffffffffffff166323b872dd8230856040518463ffffffff1660e01b815260040161267a939291906157e8565b602060405180830381600087803b15801561269457600080fd5b505af11580156126a8573d6000803e3d6000fd5b505050506040513d601f19601f820116820180604052508101906126cc91906151b2565b156126dd576126dc818484614148565b5b5b50600180819055505050565b6126f2613bec565b73ffffffffffffffffffffffffffffffffffffffff16612710611a04565b73ffffffffffffffffffffffffffffffffffffffff1614612766576040517f08c379a000000000000000000000000000000000000000000000000000000000815260040161275d90615a55565b60405180910390fd5b806127785761277361429b565b612781565b61278061433c565b5b50565b600260015414156127ca576040517f08c379a00000000000000000000000000000000000000000000000000000000081526004016127c190615a95565b60405180910390fd5b60026001819055506127da611004565b1561281a576040517f08c379a0000000000000000000000000000000000000000000000000000000008152600401612811906159f5565b60405180910390fd5b6000612824613bec565b905060005b8251811015612c1c57600060086000858481518110612871577f4e487b7100000000000000000000000000000000000000000000000000000000600052603260045260246000fd5b602002602001015181526020019081526020016000206040518060e00160405290816000820160009054906101000a900473ffffffffffffffffffffffffffffffffffffffff1673ffffffffffffffffffffffffffffffffffffffff1673ffffffffffffffffffffffffffffffffffffffff1681526020016001820160009054906101000a900473ffffffffffffffffffffffffffffffffffffffff1673ffffffffffffffffffffffffffffffffffffffff1673ffffffffffffffffffffffffffffffffffffffff1681526020016002820160009054906101000a900473ffffffffffffffffffffffffffffffffffffffff1673ffffffffffffffffffffffffffffffffffffffff1673ffffffffffffffffffffffffffffffffffffffff168152602001600382015481526020016004820154815260200160058201548152602001600682015481525050905060008160200151905060008173ffffffffffffffffffffffffffffffffffffffff16636352211e84606001516040518263ffffffff1660e01b8152600401612a069190615ab5565b60206040518083038186803b158015612a1e57600080fd5b505afa158015612a32573d6000803e3d6000fd5b505050506040513d601f19601f82011682018060405250810190612a569190614e6b565b905060008273ffffffffffffffffffffffffffffffffffffffff1663081812fc85606001516040518263ffffffff1660e01b8152600401612a979190615ab5565b60206040518083038186803b158015612aaf57600080fd5b505afa158015612ac3573d6000803e3d6000fd5b505050506040513d601f19601f82011682018060405250810190612ae79190614e6b565b905060008373ffffffffffffffffffffffffffffffffffffffff1663e985e9c588306040518363ffffffff1660e01b8152600401612b26929190615750565b60206040518083038186803b158015612b3e57600080fd5b505afa158015612b52573d6000803e3d6000fd5b505050506040513d601f19601f82011682018060405250810190612b7691906151b2565b905060008560800151118015612bb757508673ffffffffffffffffffffffffffffffffffffffff168373ffffffffffffffffffffffffffffffffffffffff16145b15612c04578080612bf357503073ffffffffffffffffffffffffffffffffffffffff168273ffffffffffffffffffffffffffffffffffffffff16145b15612c0357612c0285886143df565b5b5b50505050508080612c1490615e56565b915050612829565b50506001808190555050565b600f5481565b6060815167ffffffffffffffff811115612c71577f4e487b7100000000000000000000000000000000000000000000000000000000600052604160045260246000fd5b604051908082528060200260200182016040528015612c9f5781602001602082028036833780820191505090505b50905060005b8251811015612ea257600060086000858481518110612ced577f4e487b7100000000000000000000000000000000000000000000000000000000600052603260045260246000fd5b602002602001015181526020019081526020016000206040518060e00160405290816000820160009054906101000a900473ffffffffffffffffffffffffffffffffffffffff1673ffffffffffffffffffffffffffffffffffffffff1673ffffffffffffffffffffffffffffffffffffffff1681526020016001820160009054906101000a900473ffffffffffffffffffffffffffffffffffffffff1673ffffffffffffffffffffffffffffffffffffffff1673ffffffffffffffffffffffffffffffffffffffff1681526020016002820160009054906101000a900473ffffffffffffffffffffffffffffffffffffffff1673ffffffffffffffffffffffffffffffffffffffff1673ffffffffffffffffffffffffffffffffffffffff1681526020016003820154815260200160048201548152602001600582015481526020016006820154815250509050612e4381613d29565b838381518110612e7c577f4e487b7100000000000000000000000000000000000000000000000000000000600052603260045260246000fd5b602002602001019015159081151581525050508080612e9a90615e56565b915050612ca5565b50919050565b612eb0613bec565b73ffffffffffffffffffffffffffffffffffffffff16612ece611a04565b73ffffffffffffffffffffffffffffffffffffffff1614612f24576040517f08c379a0000000000000000000000000000000000000000000000000000000008152600401612f1b90615a55565b60405180910390fd5b8273ffffffffffffffffffffffffffffffffffffffff166323b872dd3083856040518463ffffffff1660e01b8152600401612f61939291906157e8565b600060405180830381600087803b158015612f7b57600080fd5b505af1158015612f8f573d6000803e3d6000fd5b50505050505050565b60026001541415612fde576040517f08c379a0000000000000000000000000000000000000000000000000000000008152600401612fd590615a95565b60405180910390fd5b6002600181905550612fee611004565b1561302e576040517f08c379a0000000000000000000000000000000000000000000000000000000008152600401613025906159f5565b60405180910390fd5b6000613038613bec565b9050600260008773ffffffffffffffffffffffffffffffffffffffff1673ffffffffffffffffffffffffffffffffffffffff16815260200190815260200160002060000160009054906101000a900460ff166130c9576040517f08c379a00000000000000000000000000000000000000000000000000000000081526004016130c090615915565b60405180910390fd5b600086905060008173ffffffffffffffffffffffffffffffffffffffff16636352211e886040518263ffffffff1660e01b81526004016131099190615ab5565b60206040518083038186803b15801561312157600080fd5b505afa158015613135573d6000803e3d6000fd5b505050506040513d601f19601f820116820180604052508101906131599190614e6b565b90508273ffffffffffffffffffffffffffffffffffffffff168173ffffffffffffffffffffffffffffffffffffffff1614156131ca576040517f08c379a00000000000000000000000000000000000000000000000000000000081526004016131c190615a75565b60405180910390fd5b600e5484111561320f576040517f08c379a000000000000000000000000000000000000000000000000000000000815260040161320690615935565b60405180910390fd5b61321a838989613eaf565b50600360008773ffffffffffffffffffffffffffffffffffffffff1673ffffffffffffffffffffffffffffffffffffffff16815260200190815260200160002060030160009054906101000a900460ff166132aa576040517f08c379a00000000000000000000000000000000000000000000000000000000081526004016132a1906159b5565b60405180910390fd5b600360008773ffffffffffffffffffffffffffffffffffffffff1673ffffffffffffffffffffffffffffffffffffffff1681526020019081526020016000206000015485101561332f576040517f08c379a000000000000000000000000000000000000000000000000000000000815260040161332690615a15565b60405180910390fd5b61333a838787614884565b60016007600082825461334d9190615cf9565b92505081905550600060075490506133ac81600c60008773ffffffffffffffffffffffffffffffffffffffff1673ffffffffffffffffffffffffffffffffffffffff1681526020019081526020016000206149f390919063ffffffff16565b5061340f81600960008c73ffffffffffffffffffffffffffffffffffffffff1673ffffffffffffffffffffffffffffffffffffffff16815260200190815260200160002060008b81526020019081526020016000206149f390919063ffffffff16565b5080600d60008673ffffffffffffffffffffffffffffffffffffffff1673ffffffffffffffffffffffffffffffffffffffff16815260200190815260200160002060008b73ffffffffffffffffffffffffffffffffffffffff1673ffffffffffffffffffffffffffffffffffffffff16815260200190815260200160002060008a8152602001908152602001600020819055506040518060e001604052808573ffffffffffffffffffffffffffffffffffffffff1681526020018a73ffffffffffffffffffffffffffffffffffffffff1681526020018873ffffffffffffffffffffffffffffffffffffffff168152602001898152602001878152602001428152602001868152506008600083815260200190815260200160002060008201518160000160006101000a81548173ffffffffffffffffffffffffffffffffffffffff021916908373ffffffffffffffffffffffffffffffffffffffff16021790555060208201518160010160006101000a81548173ffffffffffffffffffffffffffffffffffffffff021916908373ffffffffffffffffffffffffffffffffffffffff16021790555060408201518160020160006101000a81548173ffffffffffffffffffffffffffffffffffffffff021916908373ffffffffffffffffffffffffffffffffffffffff160217905550606082015181600301556080820151816004015560a0820151816005015560c082015181600601559050508373ffffffffffffffffffffffffffffffffffffffff167fff2d32ce56b0b5d23a2d2e0fa74261ef152c762e716daa7e6eb1cc0fafa0a4e8826040516136709190615ab5565b60405180910390a250505050600180819055505050505050565b613692613bec565b73ffffffffffffffffffffffffffffffffffffffff166136b0611a04565b73ffffffffffffffffffffffffffffffffffffffff1614613706576040517f08c379a00000000000000000000000000000000000000000000000000000000081526004016136fd90615a55565b60405180910390fd5b61371a866004614a0d90919063ffffffff16565b506040518060800160405280868152602001858152602001848152602001831515815250600360008873ffffffffffffffffffffffffffffffffffffffff1673ffffffffffffffffffffffffffffffffffffffff16815260200190815260200160002060008201518160000155602082015181600101556040820151816002015560608201518160030160006101000a81548160ff0219169083151502179055509050508015613847576000600b60003073ffffffffffffffffffffffffffffffffffffffff1673ffffffffffffffffffffffffffffffffffffffff16815260200190815260200160002060008873ffffffffffffffffffffffffffffffffffffffff1673ffffffffffffffffffffffffffffffffffffffff168152602001908152602001600020819055505b505050505050565b60036020528060005260406000206000915090508060000154908060010154908060020154908060030160009054906101000a900460ff16905084565b6000613896613bec565b905060006138e1600c60008473ffffffffffffffffffffffffffffffffffffffff1673ffffffffffffffffffffffffffffffffffffffff168152602001908152602001600020613d14565b90506001811115613927576040517f08c379a000000000000000000000000000000000000000000000000000000000815260040161391e90615975565b60405180910390fd5b6000600a60008473ffffffffffffffffffffffffffffffffffffffff1673ffffffffffffffffffffffffffffffffffffffff1681526020019081526020016000206040518060400160405290816000820160009054906101000a900473ffffffffffffffffffffffffffffffffffffffff1673ffffffffffffffffffffffffffffffffffffffff1673ffffffffffffffffffffffffffffffffffffffff1681526020016001820154815250509050600081602001511115613a7e578060200151600b60008573ffffffffffffffffffffffffffffffffffffffff1673ffffffffffffffffffffffffffffffffffffffff1681526020019081526020016000206000836000015173ffffffffffffffffffffffffffffffffffffffff1673ffffffffffffffffffffffffffffffffffffffff1681526020019081526020016000206000828254613a769190615cf9565b925050819055505b600a60008473ffffffffffffffffffffffffffffffffffffffff1673ffffffffffffffffffffffffffffffffffffffff168152602001908152602001600020600080820160006101000a81549073ffffffffffffffffffffffffffffffffffffffff021916905560018201600090555050505050565b613afc613bec565b73ffffffffffffffffffffffffffffffffffffffff16613b1a611a04565b73ffffffffffffffffffffffffffffffffffffffff1614613b70576040517f08c379a0000000000000000000000000000000000000000000000000000000008152600401613b6790615a55565b60405180910390fd5b600073ffffffffffffffffffffffffffffffffffffffff168173ffffffffffffffffffffffffffffffffffffffff161415613be0576040517f08c379a0000000000000000000000000000000000000000000000000000000008152600401613bd790615995565b60405180910390fd5b613be981613c2f565b50565b600033905090565b6000613c038360000183614a3d565b60001c905092915050565b60606000613c1e83600001614a8e565b905060608190508092505050919050565b60008060009054906101000a900473ffffffffffffffffffffffffffffffffffffffff169050816000806101000a81548173ffffffffffffffffffffffffffffffffffffffff021916908373ffffffffffffffffffffffffffffffffffffffff1602179055508173ffffffffffffffffffffffffffffffffffffffff168173ffffffffffffffffffffffffffffffffffffffff167f8be0079c531659141344cd1fd0a4f28419497f9722a3daafe3b4186f6b6457e060405160405180910390a35050565b60606000613d0383600001614a8e565b905060608190508092505050919050565b6000613d2282600001614aea565b9050919050565b600080600b6000846000015173ffffffffffffffffffffffffffffffffffffffff1673ffffffffffffffffffffffffffffffffffffffff1681526020019081526020016000206000846040015173ffffffffffffffffffffffffffffffffffffffff1673ffffffffffffffffffffffffffffffffffffffff16815260200190815260200160002054905060008360c001511480613dd95750428360c001518460a00151613dd69190615cf9565b10155b8015613de9575082608001518110155b15613ea4576000613e3b600c6000866000015173ffffffffffffffffffffffffffffffffffffffff1673ffffffffffffffffffffffffffffffffffffffff168152602001908152602001600020613d14565b90506001811480613e9257506000600a6000866000015173ffffffffffffffffffffffffffffffffffffffff1673ffffffffffffffffffffffffffffffffffffffff16815260200190815260200160002060010154115b15613ea257600192505050613eaa565b505b60009150505b919050565b600080600d60008673ffffffffffffffffffffffffffffffffffffffff1673ffffffffffffffffffffffffffffffffffffffff16815260200190815260200160002060008573ffffffffffffffffffffffffffffffffffffffff1673ffffffffffffffffffffffffffffffffffffffff1681526020019081526020016000206000848152602001908152602001600020549050600081111561413d57613f9c81600c60008873ffffffffffffffffffffffffffffffffffffffff1673ffffffffffffffffffffffffffffffffffffffff168152602001908152602001600020614afb90919063ffffffff16565b50613fff81600960008773ffffffffffffffffffffffffffffffffffffffff1673ffffffffffffffffffffffffffffffffffffffff1681526020019081526020016000206000868152602001908152602001600020614afb90919063ffffffff16565b50600d60008673ffffffffffffffffffffffffffffffffffffffff1673ffffffffffffffffffffffffffffffffffffffff16815260200190815260200160002060008573ffffffffffffffffffffffffffffffffffffffff1673ffffffffffffffffffffffffffffffffffffffff16815260200190815260200160002060008481526020019081526020016000206000905560086000828152602001908152602001600020600080820160006101000a81549073ffffffffffffffffffffffffffffffffffffffff02191690556001820160006101000a81549073ffffffffffffffffffffffffffffffffffffffff02191690556002820160006101000a81549073ffffffffffffffffffffffffffffffffffffffff0219169055600382016000905560048201600090556005820160009055600682016000905550505b809150509392505050565b80600b60008573ffffffffffffffffffffffffffffffffffffffff1673ffffffffffffffffffffffffffffffffffffffff16815260200190815260200160002060008473ffffffffffffffffffffffffffffffffffffffff1673ffffffffffffffffffffffffffffffffffffffff16815260200190815260200160002060008282546141d49190615cf9565b9250508190555080600660008473ffffffffffffffffffffffffffffffffffffffff1673ffffffffffffffffffffffffffffffffffffffff168152602001908152602001600020600082825461422a9190615cf9565b925050819055508273ffffffffffffffffffffffffffffffffffffffff168273ffffffffffffffffffffffffffffffffffffffff167f3bc57f469ad6d10d7723ea226cd22bd2b9e527def2b529f6ab44645a166895828360405161428e9190615ab5565b60405180910390a3505050565b6142a3611004565b6142e2576040517f08c379a00000000000000000000000000000000000000000000000000000000081526004016142d990615955565b60405180910390fd5b60008060146101000a81548160ff0219169083151502179055507f5db9ee0a495bf2e6ff9c91a7834c1ba4fdd244a5e8aa4e537bd38aeae4b073aa614325613bec565b6040516143329190615735565b60405180910390a1565b614344611004565b15614384576040517f08c379a000000000000000000000000000000000000000000000000000000000815260040161437b906159f5565b60405180910390fd5b6001600060146101000a81548160ff0219169083151502179055507f62e78cea01bee320cd4e420270b5ea74000d11b0c9f74754ebdbfc544b05a2586143c8613bec565b6040516143d59190615735565b60405180910390a1565b6143e882613d29565b1561488057614404826000015183602001518460600151613eaf565b50816020015173ffffffffffffffffffffffffffffffffffffffff166323b872dd82846000015185606001516040518463ffffffff1660e01b815260040161444e939291906157e8565b600060405180830381600087803b15801561446857600080fd5b505af115801561447c573d6000803e3d6000fd5b5050505060008060026000856020015173ffffffffffffffffffffffffffffffffffffffff1673ffffffffffffffffffffffffffffffffffffffff168152602001908152602001600020600101549050600081141561451f5760036000856040015173ffffffffffffffffffffffffffffffffffffffff1673ffffffffffffffffffffffffffffffffffffffff1681526020019081526020016000206002015490505b600981111561454957620186a081856080015161453c9190615d80565b6145469190615d4f565b91505b8360800151600b6000866000015173ffffffffffffffffffffffffffffffffffffffff1673ffffffffffffffffffffffffffffffffffffffff1681526020019081526020016000206000866040015173ffffffffffffffffffffffffffffffffffffffff1673ffffffffffffffffffffffffffffffffffffffff16815260200190815260200160002060008282546145e19190615dda565b925050819055508184608001516145f89190615dda565b600b60008573ffffffffffffffffffffffffffffffffffffffff1673ffffffffffffffffffffffffffffffffffffffff1681526020019081526020016000206000866040015173ffffffffffffffffffffffffffffffffffffffff1673ffffffffffffffffffffffffffffffffffffffff16815260200190815260200160002060008282546146879190615cf9565b9250508190555081600b60003073ffffffffffffffffffffffffffffffffffffffff1673ffffffffffffffffffffffffffffffffffffffff1681526020019081526020016000206000866040015173ffffffffffffffffffffffffffffffffffffffff1673ffffffffffffffffffffffffffffffffffffffff168152602001908152602001600020600082825461471e9190615cf9565b925050819055508160066000866040015173ffffffffffffffffffffffffffffffffffffffff1673ffffffffffffffffffffffffffffffffffffffff16815260200190815260200160002060008282546147789190615dda565b925050819055508360600151846020015173ffffffffffffffffffffffffffffffffffffffff168473ffffffffffffffffffffffffffffffffffffffff167f04aabef1b4dd55bb6f717357575b852d032ac8aaddbf92e8c8faa90b747cd1a8876000015188604001518960800151886040516147f7949392919061581f565b60405180910390a48360600151846020015173ffffffffffffffffffffffffffffffffffffffff16856000015173ffffffffffffffffffffffffffffffffffffffff167f3c3b3ef27f8567e997401dade76040a4358829dbd1043b99ee8904935edc77c98688604001518960800151604051614875939291906157e8565b60405180910390a450505b5050565b6000600b60008573ffffffffffffffffffffffffffffffffffffffff1673ffffffffffffffffffffffffffffffffffffffff16815260200190815260200160002060008473ffffffffffffffffffffffffffffffffffffffff1673ffffffffffffffffffffffffffffffffffffffff168152602001908152602001600020549050600061494e600c60008773ffffffffffffffffffffffffffffffffffffffff1673ffffffffffffffffffffffffffffffffffffffff168152602001908152602001600020613d14565b90508282101580156149605750600081145b806149ad57506000600a60008773ffffffffffffffffffffffffffffffffffffffff1673ffffffffffffffffffffffffffffffffffffffff16815260200190815260200160002060010154115b6149ec576040517f08c379a00000000000000000000000000000000000000000000000000000000081526004016149e3906159d5565b60405180910390fd5b5050505050565b6000614a05836000018360001b614b15565b905092915050565b6000614a35836000018373ffffffffffffffffffffffffffffffffffffffff1660001b614b15565b905092915050565b6000826000018281548110614a7b577f4e487b7100000000000000000000000000000000000000000000000000000000600052603260045260246000fd5b9060005260206000200154905092915050565b606081600001805480602002602001604051908101604052809291908181526020018280548015614ade57602002820191906000526020600020905b815481526020019060010190808311614aca575b50505050509050919050565b600081600001805490509050919050565b6000614b0d836000018360001b614b85565b905092915050565b6000614b218383614d0b565b614b7a578260000182908060018154018082558091505060019003906000526020600020016000909190919091505582600001805490508360010160008481526020019081526020016000208190555060019050614b7f565b600090505b92915050565b60008083600101600084815260200190815260200160002054905060008114614cff576000600182614bb79190615dda565b9050600060018660000180549050614bcf9190615dda565b9050818114614c8a576000866000018281548110614c16577f4e487b7100000000000000000000000000000000000000000000000000000000600052603260045260246000fd5b9060005260206000200154905080876000018481548110614c60577f4e487b7100000000000000000000000000000000000000000000000000000000600052603260045260246000fd5b90600052602060002001819055508387600101600083815260200190815260200160002081905550505b85600001805480614cc4577f4e487b7100000000000000000000000000000000000000000000000000000000600052603160045260246000fd5b600190038181906000526020600020016000905590558560010160008681526020019081526020016000206000905560019350505050614d05565b60009150505b92915050565b600080836001016000848152602001908152602001600020541415905092915050565b6000614d41614d3c84615c3f565b615c0e565b90508083825260208201905082856020860282011115614d6057600080fd5b60005b85811015614d905781614d768882614e18565b845260208401935060208301925050600181019050614d63565b5050509392505050565b600081359050614da981615f2c565b92915050565b600081519050614dbe81615f2c565b92915050565b600082601f830112614dd557600080fd5b8135614de5848260208601614d2e565b91505092915050565b600081359050614dfd81615f43565b92915050565b600081519050614e1281615f43565b92915050565b600081359050614e2781615f5a565b92915050565b600081519050614e3c81615f5a565b92915050565b600060208284031215614e5457600080fd5b6000614e6284828501614d9a565b91505092915050565b600060208284031215614e7d57600080fd5b6000614e8b84828501614daf565b91505092915050565b60008060408385031215614ea757600080fd5b6000614eb585828601614d9a565b9250506020614ec685828601614d9a565b9150509250929050565b600080600060608486031215614ee557600080fd5b6000614ef386828701614d9a565b9350506020614f0486828701614d9a565b9250506040614f1586828701614e18565b9150509250925092565b600080600060608486031215614f3457600080fd5b6000614f4286828701614d9a565b9350506020614f5386828701614dee565b9250506040614f6486828701614e18565b9150509250925092565b60008060408385031215614f8157600080fd5b6000614f8f85828601614d9a565b9250506020614fa085828601614e18565b9150509250929050565b600080600060608486031215614fbf57600080fd5b6000614fcd86828701614d9a565b9350506020614fde86828701614e18565b9250506040614fef86828701614d9a565b9150509250925092565b600080600080600060a0868803121561501157600080fd5b600061501f88828901614d9a565b955050602061503088828901614e18565b945050604061504188828901614d9a565b935050606061505288828901614e18565b925050608061506388828901614e18565b9150509295509295909350565b60008060006060848603121561508557600080fd5b600061509386828701614d9a565b93505060206150a486828701614e18565b92505060406150b586828701614e18565b9150509250925092565b60008060008060008060c087890312156150d857600080fd5b60006150e689828a01614d9a565b96505060206150f789828a01614e18565b955050604061510889828a01614e18565b945050606061511989828a01614e18565b935050608061512a89828a01614dee565b92505060a061513b89828a01614dee565b9150509295509295509295565b60006020828403121561515a57600080fd5b600082013567ffffffffffffffff81111561517457600080fd5b61518084828501614dc4565b91505092915050565b60006020828403121561519b57600080fd5b60006151a984828501614dee565b91505092915050565b6000602082840312156151c457600080fd5b60006151d284828501614e03565b91505092915050565b6000602082840312156151ed57600080fd5b60006151fb84828501614e18565b91505092915050565b60006020828403121561521657600080fd5b600061522484828501614e2d565b91505092915050565b6000806040838503121561524057600080fd5b600061524e85828601614e18565b925050602061525f85828601614e18565b9150509250929050565b60006152758383615299565b60208301905092915050565b600061528d8383615373565b60208301905092915050565b6152a281615e0e565b82525050565b6152b181615e0e565b82525050565b60006152c282615c8b565b6152cc8185615cbb565b93506152d783615c6b565b8060005b838110156153085781516152ef8882615269565b97506152fa83615ca1565b9250506001810190506152db565b5085935050505092915050565b600061532082615c96565b61532a8185615ccc565b935061533583615c7b565b8060005b8381101561536657815161534d8882615281565b975061535883615cae565b925050600181019050615339565b5085935050505092915050565b61537c81615e20565b82525050565b61538b81615e20565b82525050565b600061539e600283615ce8565b91507f45330000000000000000000000000000000000000000000000000000000000006000830152602082019050919050565b60006153de600283615ce8565b91507f45350000000000000000000000000000000000000000000000000000000000006000830152602082019050919050565b600061541e601483615ce8565b91507f5061757361626c653a206e6f74207061757365640000000000000000000000006000830152602082019050919050565b600061545e600283615ce8565b91507f45320000000000000000000000000000000000000000000000000000000000006000830152602082019050919050565b600061549e602683615ce8565b91507f4f776e61626c653a206e6577206f776e657220697320746865207a65726f206160008301527f64647265737300000000000000000000000000000000000000000000000000006020830152604082019050919050565b6000615504600283615ce8565b91507f45360000000000000000000000000000000000000000000000000000000000006000830152602082019050919050565b6000615544600283615ce8565b91507f45380000000000000000000000000000000000000000000000000000000000006000830152602082019050919050565b6000615584601083615ce8565b91507f5061757361626c653a20706175736564000000000000000000000000000000006000830152602082019050919050565b60006155c4600283615ce8565b91507f45370000000000000000000000000000000000000000000000000000000000006000830152602082019050919050565b6000615604600283615ce8565b91507f45310000000000000000000000000000000000000000000000000000000000006000830152602082019050919050565b6000615644602083615ce8565b91507f4f776e61626c653a2063616c6c6572206973206e6f7420746865206f776e65726000830152602082019050919050565b6000615684600083615cdd565b9150600082019050919050565b600061569e600283615ce8565b91507f45340000000000000000000000000000000000000000000000000000000000006000830152602082019050919050565b60006156de601f83615ce8565b91507f5265656e7472616e637947756172643a207265656e7472616e742063616c6c006000830152602082019050919050565b61571a81615e4c565b82525050565b600061572b82615677565b9150819050919050565b600060208201905061574a60008301846152a8565b92915050565b600060408201905061576560008301856152a8565b61577260208301846152a8565b9392505050565b600060e08201905061578e600083018a6152a8565b61579b60208301896152a8565b6157a860408301886152a8565b6157b56060830187615711565b6157c26080830186615711565b6157cf60a0830185615711565b6157dc60c0830184615711565b98975050505050505050565b60006060820190506157fd60008301866152a8565b61580a60208301856152a8565b6158176040830184615711565b949350505050565b600060808201905061583460008301876152a8565b61584160208301866152a8565b61584e6040830185615711565b61585b6060830184615711565b95945050505050565b600060408201905061587960008301856152a8565b6158866020830184615711565b9392505050565b600060208201905081810360008301526158a781846152b7565b905092915050565b600060208201905081810360008301526158c98184615315565b905092915050565b60006020820190506158e66000830184615382565b92915050565b60006040820190506159016000830185615382565b61590e6020830184615711565b9392505050565b6000602082019050818103600083015261592e81615391565b9050919050565b6000602082019050818103600083015261594e816153d1565b9050919050565b6000602082019050818103600083015261596e81615411565b9050919050565b6000602082019050818103600083015261598e81615451565b9050919050565b600060208201905081810360008301526159ae81615491565b9050919050565b600060208201905081810360008301526159ce816154f7565b9050919050565b600060208201905081810360008301526159ee81615537565b9050919050565b60006020820190508181036000830152615a0e81615577565b9050919050565b60006020820190508181036000830152615a2e816155b7565b9050919050565b60006020820190508181036000830152615a4e816155f7565b9050919050565b60006020820190508181036000830152615a6e81615637565b9050919050565b60006020820190508181036000830152615a8e81615691565b9050919050565b60006020820190508181036000830152615aae816156d1565b9050919050565b6000602082019050615aca6000830184615711565b92915050565b600060c082019050615ae56000830189615711565b615af260208301886152a8565b615aff60408301876152a8565b615b0c6060830186615711565b615b196080830185615711565b615b2660a0830184615711565b979650505050505050565b600060e082019050615b46600083018a615711565b615b5360208301896152a8565b615b6060408301886152a8565b615b6d6060830187615711565b615b7a6080830186615711565b615b8760a0830185615711565b615b9460c0830184615711565b98975050505050505050565b6000604082019050615bb56000830185615711565b615bc26020830184615711565b9392505050565b6000608082019050615bde6000830187615711565b615beb6020830186615711565b615bf86040830185615711565b615c056060830184615382565b95945050505050565b6000604051905081810181811067ffffffffffffffff82111715615c3557615c34615efd565b5b8060405250919050565b600067ffffffffffffffff821115615c5a57615c59615efd565b5b602082029050602081019050919050565b6000819050602082019050919050565b6000819050602082019050919050565b600081519050919050565b600081519050919050565b6000602082019050919050565b6000602082019050919050565b600082825260208201905092915050565b600082825260208201905092915050565b600081905092915050565b600082825260208201905092915050565b6000615d0482615e4c565b9150615d0f83615e4c565b9250827fffffffffffffffffffffffffffffffffffffffffffffffffffffffffffffffff03821115615d4457615d43615e9f565b5b828201905092915050565b6000615d5a82615e4c565b9150615d6583615e4c565b925082615d7557615d74615ece565b5b828204905092915050565b6000615d8b82615e4c565b9150615d9683615e4c565b9250817fffffffffffffffffffffffffffffffffffffffffffffffffffffffffffffffff0483118215151615615dcf57615dce615e9f565b5b828202905092915050565b6000615de582615e4c565b9150615df083615e4c565b925082821015615e0357615e02615e9f565b5b828203905092915050565b6000615e1982615e2c565b9050919050565b60008115159050919050565b600073ffffffffffffffffffffffffffffffffffffffff82169050919050565b6000819050919050565b6000615e6182615e4c565b91507fffffffffffffffffffffffffffffffffffffffffffffffffffffffffffffffff821415615e9457615e93615e9f565b5b600182019050919050565b7f4e487b7100000000000000000000000000000000000000000000000000000000600052601160045260246000fd5b7f4e487b7100000000000000000000000000000000000000000000000000000000600052601260045260246000fd5b7f4e487b7100000000000000000000000000000000000000000000000000000000600052604160045260246000fd5b615f3581615e0e565b8114615f4057600080fd5b50565b615f4c81615e20565b8114615f5757600080fd5b50565b615f6381615e4c565b8114615f6e57600080fd5b5056fea264697066735822122074c083806cf40b1ae7b43f541ffa26ef5644b0c72759def491fd2049d8fe625064736f6c63430008000033",
  "immutableReferences": {},
  "source": "\r\n// SPDX-License-Identifier: MIT\r\npragma solidity ^0.8.0;\r\n// pragma experimental ABIEncoderV2;\r\n// cc bin u vo v u ra khng nn s dng tin t _, u ra 1 bin th k cn to tn bin, >= 2 bin th nn to tn bin\r\n    // c th khng to tn bin  tit kim dung lng\r\n// cc mng tham s u vo v u ra s dng \"memory\" ch khng s dng \"calldata\" v c gii hn dung lng\r\n// connex v1: u vo khng h tr Tuple v Tuple[], u ra khng h tr Tuple v Tuple[], call trc tip t bin public th h tr Tuple\r\n// connex v2: u vo khng h tr Tuple v Tuple[] ->  bo co vi vechain\r\n// u vo cn h tr connex v1,v2, u ra c th khng cn h tr v1 nu call thng qua server\r\n// VeChain h tr clauses nn khng cn dng Tuple cho u vo, mt clauses b reverted th c giao dch  b reverted\r\n// address(0) khng th l contract nn lm a ch Payment cho native token c\r\n\r\n/*\r\n// import \"https://github.com/tv-truong/openzeppelin-contracts-4.3.2/contracts/utils/Context.sol\"; // @ c import trong Ownable, Pausable\r\n// import \"https://github.com/tv-truong/openzeppelin-contracts-4.3.2/contracts/utils/Address.sol\"; // nhiu trng hp khng s dng nn lng ph gas\r\n// import \"https://github.com/tv-truong/openzeppelin-contracts-4.3.2/contracts/utils/math/SafeMath.sol\"; // @ solidity >= 0.8.0 khng cn dng\r\nimport \"https://github.com/tv-truong/openzeppelin-contracts-4.3.2/contracts/utils/structs/EnumerableSet.sol\"; // @\r\nimport \"https://github.com/tv-truong/openzeppelin-contracts-4.3.2/contracts/access/Ownable.sol\"; // @ [import: Context]\r\nimport \"https://github.com/tv-truong/openzeppelin-contracts-4.3.2/contracts/security/Pausable.sol\"; // @ [import: Context]\r\n    // Pausable.sol: nu s dng th cn gi _pause() v _unpause()\r\nimport \"https://github.com/tv-truong/openzeppelin-contracts-4.3.2/contracts/security/ReentrancyGuard.sol\";\r\n    // ReentrancyGuard.sol: s dng khi gi n contract khng phi do mnh trin khai, multiple clauses vn h tr\r\n*/\r\nimport \"@openzeppelin/contracts/utils/structs/EnumerableSet.sol\";\r\nimport \"@openzeppelin/contracts/access/Ownable.sol\";\r\nimport \"@openzeppelin/contracts/security/Pausable.sol\";\r\nimport \"@openzeppelin/contracts/security/ReentrancyGuard.sol\";\r\n\r\n// openzeppelin-contracts/v4.3.2\r\ninterface IERC20 {\r\n    // event Transfer(address indexed from, address indexed to, uint256 value);\r\n    // event Approval(address indexed owner, address indexed spender, uint256 value);\r\n    // function totalSupply() external view returns (uint256);\r\n    function balanceOf(address account) external view returns (uint256);\r\n    function transfer(address recipient, uint256 amount) external returns (bool);\r\n    // function allowance(address owner, address spender) external view returns (uint256);\r\n    // function approve(address spender, uint256 amount) external returns (bool);\r\n    function transferFrom(address sender, address recipient, uint256 amount) external returns (bool);\r\n    // function permit(address owner, address spender, uint256 value, uint256 deadline, uint8 v, bytes32 r, bytes32 s) external; VPU\r\n}\r\n\r\n// openzeppelin-contracts/v4.3.2\r\ninterface IERC721 {\r\n    // event Transfer(address indexed from, address indexed to, uint256 indexed tokenId);\r\n    // event Approval(address indexed owner, address indexed approved, uint256 indexed tokenId);\r\n    // event ApprovalForAll(address indexed owner, address indexed operator, bool approved);\r\n    // function balanceOf(address owner) external view returns (uint256 balance);\r\n    function ownerOf(uint256 tokenId) external view returns (address owner);\r\n    // function safeTransferFrom(address from, address to, uint256 tokenId) external;\r\n    function transferFrom(address from, address to, uint256 tokenId) external;\r\n    // function approve(address to, uint256 tokenId) external;\r\n    function getApproved(uint256 tokenId) external view returns (address operator);\r\n    // function setApprovalForAll(address operator, bool _approved) external;\r\n    function isApprovedForAll(address owner, address operator) external view returns (bool);\r\n    // function safeTransferFrom(address from, address to, uint256 tokenId, bytes calldata data) external;\r\n    function supportsInterface(bytes4 interfaceId) external view returns (bool);\r\n}\r\n//---------------------------------\r\n\r\n// ERC721BidV1\r\ncontract ERC721BidV1 is Ownable, Pausable, ReentrancyGuard {\r\n    // using SafeMath for uint256; @ solidity >= 0.8.0 khng cn dng\r\n    // using Address for address;  gi isContract(), khng dng  tit kim dung lng\r\n    using EnumerableSet for EnumerableSet.UintSet;\r\n    using EnumerableSet for EnumerableSet.AddressSet;\r\n\r\n// Erc721 ------------------------------\r\n    struct Erc721Info {\r\n        bool enable; // cho php placeBid\r\n        uint256 feeRate; // ph ngi bn phi tr: 1000 <=> 1%, nu feeRate > 0 th s dng feeRate thay cho Payment>feeRate\r\n    }\r\n    // erc721 address => Erc721Info\r\n    mapping(address => Erc721Info) public supportedErc721Map;\r\n// end Erc721 ------------------------------\r\n\r\n// Payment ------------------------------\r\n    struct Payment {\r\n        uint256 minPrice; // s tin bid ti thiu\r\n        uint256 lockRequired; // s tin t cc yu cu\r\n        uint256 feeRate; // ph ngi bn phi tr: 1000 <=> 1%\r\n        bool enable; // cho php thanh ton, v s khng xa ch update\r\n    }\r\n    // erc20 address => Payment\r\n    mapping(address => Payment) public supportedPaymentMap;\r\n    EnumerableSet.AddressSet private _paymentAddressList; // danh sch erc20 address c h tr thanh ton\r\n    // erc20 address => total Balance ca tt c user gi vo (ngoi s ny th admin c th rt)\r\n    mapping(address => uint256) public totalErc20OfUsers;\r\n// end Payment ------------------------------\r\n    \r\n// Bid ------------------------------\r\n    struct Bid {\r\n        address bidder; // Bidder address\r\n        address tokenAddress; // ERC721 address\r\n        address paymentAddress; // ERC20 address\r\n        uint256 tokenId; // ERC721 token id\r\n        uint256 price; // Price for the bid in wei\r\n        uint256 startedAt; // block.timestamp seconds\r\n        uint256 duration; // seconds\r\n    }\r\n    //\r\n    uint256 public totalBidCount; // s dng lm bidId\r\n    // bidId => Bid\r\n    mapping(uint256 => Bid) public bidIdToBid;\r\n    // erc721 address => tokenId => bidId UintSet (danh sch bidIds theo tokenId)\r\n    mapping(address => mapping(uint256 => EnumerableSet.UintSet)) private _tokenIdBidIds;\r\n// end Bid ------------------------------\r\n    \r\n    \r\n// User ------------------------------\r\n    struct TokenLock {\r\n        address paymentAddress; // ERC20 address\r\n        uint256 amount; // s lng  kha\r\n    }\r\n    // user address => TokenLock (kha ch 1 loi token)\r\n    mapping(address => TokenLock) public userErc20Locked;\r\n    // user address => erc20 address => Balance amount\r\n    mapping(address => mapping(address => uint256)) public userErc20Balance;\r\n    // user address => bidId UintSet (danh sch bidIds theo user address)\r\n    mapping(address => EnumerableSet.UintSet) private _userBidIds;\r\n    // user address => erc721 address => tokenId => bidId\r\n    mapping(address => mapping(address => mapping(uint256 => uint256))) public userBidIdByTokenId;\r\n// end User ------------------------------\r\n\r\n// Event ------------------------------------------------------------\r\n    event BidCreated(address indexed bidder, uint256 id);\r\n    event BidCancelled(address indexed bidder, uint256 id);\r\n    // chia ra 2 event BidAccepted v BidSuccessful v event h tr ti a 3 indexed\r\n    event BidAccepted(\r\n        address indexed seller,\r\n        address indexed tokenAddress,\r\n        uint256 indexed tokenId,\r\n        address bidder,\r\n        address paymentAddress,\r\n        uint256 price,\r\n        uint256 fee\r\n    );\r\n    event BidSuccessful(\r\n        address indexed bidder,\r\n        address indexed tokenAddress,\r\n        uint256 indexed tokenId,\r\n        address seller,\r\n        address paymentAddress,\r\n        uint256 price\r\n    );\r\n\r\n    // User Deposit & Withdraw Erc20\r\n    event UserDeposit(address indexed tokenAddress, address indexed from, uint256 value);\r\n    event UserWithdraw(address indexed tokenAddress, address indexed from, address indexed to, uint256 value);\r\n// end Event ------------------------------------------------------------\r\n    \r\n    \r\n    // settings\r\n    // 182 days - 26 weeks - 6 months\r\n    uint256 public MAX_BID_DURATION = 365 days;\r\n    uint256 public INCREASE_BID_RATE = 3000; // % tng so vi highBidValue: 1000 <=> 1%\r\n    bytes4 private constant ERC721_Interface = 0x80ac58cd;\r\n\r\n    // ----------------------------------------------------------------------------\r\n    /* constructor() {\r\n    } */\r\n\r\n    // ----------------------------------------------------------------------------\r\n    // onlyOwner Write Contract\r\n    // ----------------------------------------------------------------------------\r\n    // @\r\n    function setPause(bool pause) public onlyOwner {\r\n        pause ? _pause() : _unpause();\r\n    }\r\n    // @ admin settings\r\n    function settings(uint256 maxDuration, uint256 increaseRate) external onlyOwner {\r\n        MAX_BID_DURATION = maxDuration;\r\n        INCREASE_BID_RATE = increaseRate;\r\n    }\r\n    // @ t dng nhng cn thit khi ngi khc gi trc tip ti a ch contract sau  cn rt i\r\n    function erc721Withdraw(address tokenAddress, uint256 tokenId, address recipient) external onlyOwner {\r\n        // require(recipient != address(0) && recipient != address(this), \"E\"); // tit kim gas\r\n        IERC721(tokenAddress).transferFrom(address(this), recipient, tokenId);\r\n    }\r\n    // Payment ---------------------\r\n    // @ add v update\r\n    function addPayment(address erc20Address, uint256 minPrice, uint256 lockRequired, uint256 feeRate, bool enable, bool resetFee) external onlyOwner {\r\n        _paymentAddressList.add(erc20Address); // khi call \"add\" nu  tn ti th s khng thm mi ch update Payment\r\n        supportedPaymentMap[erc20Address] = Payment({\r\n            minPrice: minPrice,\r\n            lockRequired: lockRequired,\r\n            feeRate: feeRate,\r\n            enable: enable\r\n        });\r\n        // t li s tin ph thu c ca contract nu n qu ln, trng hp ny kh xy ra\r\n        if (resetFee) userErc20Balance[address(this)][erc20Address] = 0;\r\n    }\r\n    /*\r\n    // ch update khng c xa\r\n    function removePayment(address erc20Address) external onlyOwner {\r\n        _paymentAddressList.remove(erc20Address);\r\n        delete supportedPaymentMap[erc20Address];\r\n    } */\r\n    // @\r\n    function ownerWithdraw(address erc20Address, address recipient, uint256 amount) external onlyOwner {\r\n        // require(recipient != address(0) && recipient != address(this), \"E\"); // tit kim gas\r\n        // require(amount > 0, \"E\"); // tit kim gas\r\n        uint256 total = totalErc20OfUsers[erc20Address] + amount;\r\n        if (erc20Address == address(0)) { // native token\r\n            if (address(this).balance >= total) payable(recipient).transfer(amount);\r\n        } else { // erc20 token\r\n            IERC20 erc20Contract = IERC20(erc20Address);\r\n            if (erc20Contract.balanceOf(address(this)) >= total) erc20Contract.transfer(recipient, amount);\r\n        }\r\n    }\r\n    // end Payment ---------------------\r\n    // Bid ---------------------\r\n    // @\r\n    function setErc721Support(address erc721Address, bool enable, uint256 feeRate) external onlyOwner {\r\n        if (enable) {\r\n            // _requireERC721(erc721Address); tit kim dung lng, nn kim tra th cng trc\r\n            supportedErc721Map[erc721Address] = Erc721Info({\r\n                enable: enable,\r\n                feeRate: feeRate\r\n            });\r\n        } else {\r\n            delete supportedErc721Map[erc721Address];\r\n        }\r\n    }\r\n    // @\r\n    function adminRemoveBids(uint256[] memory bidIds) external onlyOwner {\r\n        for (uint256 i = 0; i < bidIds.length; i++) {\r\n            Bid memory bid = bidIdToBid[bidIds[i]];\r\n            uint256 bidId = _removeBidByBidder(bid.bidder, bid.tokenAddress, bid.tokenId);\r\n            if (bidId > 0) emit BidCancelled(bid.bidder, bidId); // (bidder, id)\r\n        }\r\n    }\r\n    // end Bid ---------------------\r\n    // ----------------------------------------------------------------------------\r\n    // end onlyOwner Write Contract\r\n    // ----------------------------------------------------------------------------\r\n\r\n    // ----------------------------------------------------------------------------\r\n    // Write Contract\r\n    // ----------------------------------------------------------------------------\r\n    // User ---------------------\r\n    // @\r\n    function userDeposit(address erc20Address, uint256 amount) external payable nonReentrant whenNotPaused {\r\n        address sender = _msgSender();\r\n        if (msg.value > 0) _userDeposit(sender, address(0), msg.value); // deposit native token\r\n        // Deposit song song erc20 v native token c\r\n        if(supportedPaymentMap[erc20Address].enable && amount > 0) {\r\n            if (IERC20(erc20Address).transferFrom(sender, address(this), amount)) {\r\n                _userDeposit(sender, erc20Address, amount);\r\n            }\r\n        }\r\n    }\r\n    // @\r\n    function _userDeposit(address account, address erc20Address, uint256 amount) private {\r\n        userErc20Balance[account][erc20Address] += amount;\r\n        totalErc20OfUsers[erc20Address] += amount;\r\n        emit UserDeposit(erc20Address, account, amount); // emit (tokenAddress, from, value)\r\n    }\r\n    /*\r\n    // dng multiple clauses ca VeChain tit kim dung lng\r\n    function erc20Withdraw(address[] memory erc20Address, address[] memory recipient, uint256[] memory amount) external nonReentrant whenNotPaused {\r\n        address sender = _msgSender();\r\n        uint256 totalBid = _userBidIds[sender].length();\r\n        for (uint i = 0; i < erc20Address.length; i++) {\r\n        }\r\n    } */\r\n    // @\r\n    function userWithdraw(address erc20Address, address recipient, uint256 amount) external nonReentrant whenNotPaused {\r\n        // require(recipient != address(this), \"E\"); // tit kim gas\r\n        address sender = _msgSender();\r\n        uint256 userBalance = userErc20Balance[sender][erc20Address];\r\n        require(recipient != address(0) && amount > 0 && amount <= userBalance, \"E1\");\r\n        //\r\n        uint256[] memory bidIds = _userBidIds[sender].values();\r\n        uint256 totalBidValue = 0;\r\n        for (uint i = 0; i < bidIds.length; i++) {\r\n            if (bidIdToBid[bidIds[i]].paymentAddress == erc20Address) totalBidValue += bidIdToBid[bidIds[i]].price;\r\n            if (totalBidValue > userBalance) break; // trnh trng hp user to nhiu bid v totalBidValue s b trn s\r\n        }\r\n        if (userBalance - amount >= totalBidValue) {\r\n            bool success = false;\r\n            if (erc20Address == address(0)) { // native token\r\n                (success,  ) = payable(recipient).call{ value: amount }(\"\");\r\n            } else {\r\n                success = IERC20(erc20Address).transfer(recipient, amount);\r\n            }\r\n            if (success) {\r\n                userErc20Balance[sender][erc20Address] -= amount;\r\n                totalErc20OfUsers[erc20Address] -= amount;\r\n                emit UserWithdraw(erc20Address, sender, recipient, amount);\r\n            }\r\n        }\r\n        // require(success, \"E\"); khng check success v d b reverted khi nhp sai amount\r\n    }\r\n    // @ lock v switch lock\r\n    function lockBalance(address erc20Address) external {\r\n        address sender = _msgSender();\r\n        uint256 lockRequired = supportedPaymentMap[erc20Address].lockRequired;\r\n        if (lockRequired > 0 && userErc20Balance[sender][erc20Address] >= lockRequired) {\r\n            TokenLock storage userLocked = userErc20Locked[sender];\r\n            if (userLocked.amount > 0) { // back to userErc20Balance\r\n                userErc20Balance[sender][userLocked.paymentAddress] += userLocked.amount;\r\n            }\r\n            userErc20Balance[sender][erc20Address] -= lockRequired;\r\n            userLocked.paymentAddress = erc20Address;\r\n            userLocked.amount = lockRequired;\r\n        }\r\n    }\r\n    // @\r\n    function unlockBalance() external {\r\n        address sender = _msgSender();\r\n        uint256 totalBid = _userBidIds[sender].length();\r\n        require(totalBid <= 1, \"E2\");\r\n        TokenLock memory userLocked = userErc20Locked[sender];\r\n        if (userLocked.amount > 0) {\r\n            userErc20Balance[sender][userLocked.paymentAddress] += userLocked.amount;\r\n        }\r\n        delete userErc20Locked[sender];\r\n    }\r\n    // end User ---------------------\r\n    \r\n    // Bid ---------------------\r\n    // @\r\n    function placeBid(address tokenAddress, uint256 tokenId, address paymentAddress, uint256 price, uint256 duration) external nonReentrant whenNotPaused {\r\n        address sender = _msgSender();\r\n        require(supportedErc721Map[tokenAddress].enable, \"E3\"); // erc721 nay k dc ho tro\r\n        IERC721 erc721Contract = IERC721(tokenAddress);\r\n        address tokenOwner = erc721Contract.ownerOf(tokenId); // tokenId khng tn ti s b reverted\r\n        // require(tokenOwner != address(0), \"E\"); khng cn thit\r\n        require(tokenOwner != sender, \"E4\"); // The token should have an owner different from the sender\r\n        require(duration <= MAX_BID_DURATION, \"E5\"); //  s khng qu ln hin th xu\r\n\r\n        // removeBid ca bidder theo tokenId nu c, x l trc khi kim tra Payment\r\n        _removeBidByBidder(sender, tokenAddress, tokenId);\r\n\r\n        // Payment\r\n        require(supportedPaymentMap[paymentAddress].enable, \"E6\"); // cn thit nu khng minPrice s = 0\r\n        require(price >= supportedPaymentMap[paymentAddress].minPrice, \"E7\"); // Price phai >= minPrice\r\n        // kim tra Bidder Balance\r\n        _requireBidderBalance(sender, paymentAddress, price);\r\n\r\n        /* x l ti client, khng kim tra nextBidRequire v tn gas\r\n        (, uint256 nextBidRequire) = highBidByTokenId(tokenAddress, tokenId, paymentAddress);\r\n        require(price >= nextBidRequire, \"Price phai >= nextBidRequire\"); */\r\n\r\n        // start from 1, bidId bt u t 1\r\n        totalBidCount += 1;\r\n        uint256 bidId = totalBidCount;\r\n\r\n        // lu bid data\r\n        _userBidIds[sender].add(bidId);\r\n        _tokenIdBidIds[tokenAddress][tokenId].add(bidId);\r\n        userBidIdByTokenId[sender][tokenAddress][tokenId] = bidId;\r\n        bidIdToBid[bidId] = Bid({\r\n            bidder: sender,\r\n            tokenAddress: tokenAddress,\r\n            paymentAddress: paymentAddress,\r\n            tokenId: tokenId,\r\n            price: price,\r\n            startedAt: block.timestamp,\r\n            duration: duration\r\n        });\r\n        emit BidCreated(sender, bidId); // (bidder, id)\r\n    }\r\n\r\n    // @\r\n    function acceptBids(uint256[] memory bidIds) external nonReentrant whenNotPaused {\r\n        address sender = _msgSender();\r\n        for (uint i = 0; i < bidIds.length; i++) {\r\n            Bid memory bid = bidIdToBid[bidIds[i]];\r\n            IERC721 erc721Contract = IERC721(bid.tokenAddress);\r\n            address tokenOwner = erc721Contract.ownerOf(bid.tokenId);\r\n            address approvedAddr = erc721Contract.getApproved(bid.tokenId);\r\n            bool approvedForAll = erc721Contract.isApprovedForAll(sender, address(this));\r\n            if (bid.price > 0 && tokenOwner == sender) {\r\n                if (approvedForAll || approvedAddr == address(this)) _acceptBid(bid, sender);\r\n            }\r\n        }\r\n    }\r\n\r\n    // @\r\n    function _acceptBid(Bid memory bid, address seller) private {\r\n        // Bid memory bid = bidIdToBid[bidId];\r\n        // kim tra bid c th accept c khng\r\n        if (_checkValidBid(bid)) {\r\n            _removeBidByBidder(bid.bidder, bid.tokenAddress, bid.tokenId);\r\n\r\n            // Transfer Erc721 token to bidder, s dng transferFrom cho tit kim gas\r\n            IERC721(bid.tokenAddress).transferFrom(seller, bid.bidder, bid.tokenId);\r\n\r\n            // tnh ph v x l balance\r\n            uint256 feeAmount = 0;\r\n            uint256 feeRate = supportedErc721Map[bid.tokenAddress].feeRate;\r\n            if (feeRate == 0) feeRate = supportedPaymentMap[bid.paymentAddress].feeRate;\r\n            // feeRate < 10 th free, p dng cho supportedErc721Map  free cho mt erc721 no \r\n            if (feeRate > 9) feeAmount = bid.price*feeRate/100000;\r\n            userErc20Balance[bid.bidder][bid.paymentAddress] -= bid.price;\r\n            userErc20Balance[seller][bid.paymentAddress] += (bid.price - feeAmount);\r\n            // fee ca contract thu c, lu theo a ch contract\r\n            userErc20Balance[address(this)][bid.paymentAddress] += feeAmount;\r\n            totalErc20OfUsers[bid.paymentAddress] -= feeAmount;\r\n\r\n            emit BidAccepted(\r\n                seller,             // seller\r\n                bid.tokenAddress,   // tokenAddress\r\n                bid.tokenId,        // tokenId\r\n                bid.bidder,         // bidder\r\n                bid.paymentAddress, // paymentAddress\r\n                bid.price,          // price\r\n                feeAmount           // fee\r\n            );\r\n            emit BidSuccessful(\r\n                bid.bidder,         // bidder\r\n                bid.tokenAddress,   // tokenAddress\r\n                bid.tokenId,        // tokenId\r\n                seller,             // seller\r\n                bid.paymentAddress, // paymentAddress\r\n                bid.price           // price\r\n            );\r\n        }\r\n    }\r\n\r\n    // @\r\n    function cancelBids(uint256[] memory bidIds) public whenNotPaused() {\r\n        address sender = _msgSender();\r\n        for (uint256 i = 0; i < bidIds.length; i++) {\r\n            Bid memory bid = bidIdToBid[bidIds[i]];\r\n            if (sender != bid.bidder ) continue;\r\n            uint256 bidId = _removeBidByBidder(bid.bidder, bid.tokenAddress, bid.tokenId);\r\n            if (bidId > 0) emit BidCancelled(bid.bidder, bidId); // (bidder, id)\r\n        }\r\n    }\r\n    // ----------------------------------------------------------------------------\r\n    // end Write Contract\r\n    // ----------------------------------------------------------------------------\r\n    \r\n    // ----------------------------------------------------------------------------\r\n    // Read Contract\r\n    // ----------------------------------------------------------------------------\r\n    // Payment ---------------------\r\n    // @\r\n    function paymentAddressList() public view returns (address[] memory) {\r\n        return _paymentAddressList.values();\r\n    }\r\n    /* dng hp ng ngoi vi  tit kim dung lng\r\n    function supportedPayments() public view returns (Payment [] memory results) {\r\n        address[] memory erc20 = _paymentAddressList.values();\r\n        results = new Payment[](erc20.length);\r\n        for (uint i = 0; i < erc20.length; i++) {\r\n            results[i] = supportedPaymentMap[erc20[i]];\r\n        }\r\n    } */\r\n    /*\r\n    // dng hp ng ngoi vi  tit kim dung lng\r\n    function erc20BalanceOf(address account) public view returns (address[] memory erc20, uint256[] memory amount) {\r\n        erc20 = _paymentAddressList.values();\r\n        amount = new uint256[](erc20.length);\r\n        for (uint i = 0; i < erc20.length; i++) {\r\n            amount[i] = userErc20Balance[account][erc20[i]];\r\n        }\r\n    } */\r\n    // end Payment ---------------------\r\n\r\n    // Bid ---------------------\r\n    // @\r\n    function totalBidOfBidder(address bidder) public view returns (uint256) {\r\n        return _userBidIds[bidder].length();\r\n    }\r\n    // @\r\n    function bidOfBidderByIndex(address bidder, uint256 index) public view returns (\r\n        uint256 bidId, address tokenAddress, address paymentAddress, uint256 tokenId, uint256 price, uint256 startedAt, uint256 duration\r\n    ) {\r\n        bidId = _userBidIds[bidder].at(index);\r\n        Bid memory bid = bidIdToBid[bidId];\r\n        return (bidId, bid.tokenAddress, bid.paymentAddress, bid.tokenId, bid.price, bid.startedAt, bid.duration); \r\n    }\r\n    /*\r\n    //  c th chuyn sang hp ng ngoi vi, hoc gi trc tip qua 2 function c\r\n    function bidOfBidderByTokenId(address bidder, address tokenAddress, uint256 tokenId) public view returns (\r\n        uint256 bidId,  address paymentAddress, uint256 price, uint256 startedAt, uint256 duration\r\n    ) {\r\n        bidId = userBidIdByTokenId[bidder][tokenAddress][tokenId];\r\n        Bid memory bid = bidIdToBid[bidId];\r\n        return (bidId, bid.paymentAddress, bid.price, bid.startedAt, bid.duration); \r\n    } */\r\n\r\n    // @\r\n    function totalBidOfTokenId(address tokenAddress, uint256 tokenId) public view returns (uint256) {\r\n        return _tokenIdBidIds[tokenAddress][tokenId].length();\r\n    }\r\n    // @\r\n    function bidOfTokenIdByIndex(address tokenAddress, uint256 tokenId, uint256 index) public view returns (\r\n        uint256 bidId, address bidder, address paymentAddress, uint256 price, uint256 startedAt, uint256 duration\r\n    ) {\r\n        bidId = _tokenIdBidIds[tokenAddress][tokenId].at(index);\r\n        Bid memory bid = bidIdToBid[bidId];\r\n        return (bidId, bid.bidder, bid.paymentAddress, bid.price, bid.startedAt, bid.duration); \r\n    }\r\n\r\n    // @ ly highBid, nextBidRequire theo tokenId v paymentAddress\r\n    function highBidByTokenId(address tokenAddress, uint256 tokenId, address paymentAddress) public view returns (uint256 highBid, uint256 nextBidRequire) {\r\n        uint256[] memory bidIds = _tokenIdBidIds[tokenAddress][tokenId].values();\r\n        highBid = 0;\r\n        for (uint i = 0; i < bidIds.length; i++) {\r\n            Bid memory bid = bidIdToBid[bidIds[i]];\r\n            if (bid.paymentAddress != paymentAddress) continue;\r\n            if (bid.price > highBid && _checkValidBid(bid)) {\r\n                highBid = bid.price;\r\n            }\r\n        }\r\n        nextBidRequire = supportedPaymentMap[paymentAddress].minPrice;\r\n        if (highBid > 0) nextBidRequire = highBid + (highBid*INCREASE_BID_RATE/100000);\r\n    }\r\n    // @\r\n    function validBidByBidIds(uint256[] memory bidIds) public view returns (bool[] memory results) {\r\n        results = new bool[](bidIds.length);\r\n        for (uint256 i = 0; i < bidIds.length; i++) {\r\n            Bid memory bid = bidIdToBid[bidIds[i]];\r\n            results[i] = _checkValidBid(bid);\r\n        }\r\n    }\r\n    // end Bid ---------------------\r\n    // ----------------------------------------------------------------------------\r\n    // end Read Contract\r\n    // ----------------------------------------------------------------------------\r\n    \r\n    // ----------------------------------------------------------------------------\r\n    // internal|private Contract\r\n    // ----------------------------------------------------------------------------\r\n    /*\r\n    // @ tit kim dung lng, nn kim tra th cng trc\r\n    function _requireERC721(address tokenAddress) private view {\r\n        // require(tokenAddress.isContract(), \"Token should be a contract\"); tit kim gas\r\n        IERC721 erc721Contract = IERC721(tokenAddress);\r\n        require(erc721Contract.supportsInterface(ERC721_Interface), \"E500\"); // Token has an invalid ERC721 implementation\r\n    } */\r\n    // @ kim tra trc khi placeBid\r\n    function _requireBidderBalance(address bidder, address erc20Address, uint256 price) private view {\r\n        uint256 userBalance = userErc20Balance[bidder][erc20Address];\r\n        uint256 totalBid = _userBidIds[bidder].length();\r\n        require(userBalance >= price && totalBid == 0 || userErc20Locked[bidder].amount > 0, \"E8\"); // Insufficient funds\r\n    }\r\n    // @\r\n    function _checkValidBid(Bid memory bid) private view returns (bool) {\r\n        uint256 userBalance = userErc20Balance[bid.bidder][bid.paymentAddress];\r\n        if ((bid.duration == 0 || bid.startedAt + bid.duration >= block.timestamp) && userBalance >= bid.price) {\r\n            uint256 totalBid = _userBidIds[bid.bidder].length();\r\n            // kim tra totalBid == 1 ch khng phi >= 1 v nu = 0 th bid ny khng hp l\r\n            if (totalBid == 1 || userErc20Locked[bid.bidder].amount > 0) return true;\r\n        }\r\n        return false;\r\n    }\r\n    // @ removeBid ca bidder theo tokenId nu c\r\n    function _removeBidByBidder(address bidder, address tokenAddress, uint256 tokenId) private returns (uint256) {\r\n        uint256 bidId = userBidIdByTokenId[bidder][tokenAddress][tokenId];\r\n        if (bidId > 0) {\r\n            _userBidIds[bidder].remove(bidId);\r\n            _tokenIdBidIds[tokenAddress][tokenId].remove(bidId);\r\n            delete userBidIdByTokenId[bidder][tokenAddress][tokenId];\r\n            delete bidIdToBid[bidId];\r\n        }\r\n        return bidId;\r\n    }\r\n    // ----------------------------------------------------------------------------\r\n    // end internal|private Contract\r\n    // ----------------------------------------------------------------------------\r\n}",
  "sourcePath": "C:/Working/Blockchain/Vechain/0_tvt/Vefam/contracts/ERC721BidV1.sol",
  "compiler": {
    "name": "solc",
    "version": "0.8.0+commit.c7dfd78e.Emscripten.clang"
  },
  "schemaVersion": "3.3.3",
  "updatedAt": "2021-10-31T07:53:07.661Z",
  "networkType": "ethereum",
  "devdoc": {
    "kind": "dev",
    "methods": {
      "owner()": {
        "details": "Returns the address of the current owner."
      },
      "paused()": {
        "details": "Returns true if the contract is paused, and false otherwise."
      },
      "renounceOwnership()": {
        "details": "Leaves the contract without owner. It will not be possible to call `onlyOwner` functions anymore. Can only be called by the current owner. NOTE: Renouncing ownership will leave the contract without an owner, thereby removing any functionality that is only available to the owner."
      },
      "transferOwnership(address)": {
        "details": "Transfers ownership of the contract to a new account (`newOwner`). Can only be called by the current owner."
      }
    },
    "version": 1
  },
  "userdoc": {
    "kind": "user",
    "methods": {},
    "version": 1
  }
}