{
  "contractName": "ERC721BidPeripheryV1",
  "abi": [
    {
      "inputs": [
        {
          "internalType": "address",
          "name": "_bidContract",
          "type": "address"
        }
      ],
      "stateMutability": "nonpayable",
      "type": "constructor"
    },
    {
      "anonymous": false,
      "inputs": [
        {
          "indexed": true,
          "internalType": "address",
          "name": "previousOwner",
          "type": "address"
        },
        {
          "indexed": true,
          "internalType": "address",
          "name": "newOwner",
          "type": "address"
        }
      ],
      "name": "OwnershipTransferred",
      "type": "event"
    },
    {
      "inputs": [],
      "name": "bidContract",
      "outputs": [
        {
          "internalType": "contract IERC721BidV1",
          "name": "",
          "type": "address"
        }
      ],
      "stateMutability": "view",
      "type": "function",
      "constant": true
    },
    {
      "inputs": [],
      "name": "owner",
      "outputs": [
        {
          "internalType": "address",
          "name": "",
          "type": "address"
        }
      ],
      "stateMutability": "view",
      "type": "function",
      "constant": true
    },
    {
      "inputs": [],
      "name": "renounceOwnership",
      "outputs": [],
      "stateMutability": "nonpayable",
      "type": "function"
    },
    {
      "inputs": [
        {
          "internalType": "address",
          "name": "newOwner",
          "type": "address"
        }
      ],
      "name": "transferOwnership",
      "outputs": [],
      "stateMutability": "nonpayable",
      "type": "function"
    },
    {
      "inputs": [
        {
          "internalType": "address",
          "name": "_bidContract",
          "type": "address"
        }
      ],
      "name": "setBidContract",
      "outputs": [],
      "stateMutability": "nonpayable",
      "type": "function"
    },
    {
      "inputs": [
        {
          "internalType": "address[]",
          "name": "erc721",
          "type": "address[]"
        }
      ],
      "name": "supportedErc721s",
      "outputs": [
        {
          "internalType": "bool[]",
          "name": "enable",
          "type": "bool[]"
        },
        {
          "internalType": "uint256[]",
          "name": "feeRate",
          "type": "uint256[]"
        }
      ],
      "stateMutability": "view",
      "type": "function",
      "constant": true
    },
    {
      "inputs": [],
      "name": "supportedPayments",
      "outputs": [
        {
          "internalType": "address[]",
          "name": "erc20",
          "type": "address[]"
        },
        {
          "internalType": "uint256[]",
          "name": "minPrice",
          "type": "uint256[]"
        },
        {
          "internalType": "uint256[]",
          "name": "lockRequired",
          "type": "uint256[]"
        },
        {
          "internalType": "uint256[]",
          "name": "feeRate",
          "type": "uint256[]"
        },
        {
          "internalType": "bool[]",
          "name": "enable",
          "type": "bool[]"
        }
      ],
      "stateMutability": "view",
      "type": "function",
      "constant": true
    },
    {
      "inputs": [
        {
          "internalType": "address",
          "name": "account",
          "type": "address"
        }
      ],
      "name": "erc20BalancesOf",
      "outputs": [
        {
          "internalType": "address[]",
          "name": "erc20",
          "type": "address[]"
        },
        {
          "internalType": "uint256[]",
          "name": "amount",
          "type": "uint256[]"
        }
      ],
      "stateMutability": "view",
      "type": "function",
      "constant": true
    },
    {
      "inputs": [
        {
          "internalType": "address",
          "name": "account",
          "type": "address"
        },
        {
          "internalType": "uint256",
          "name": "from",
          "type": "uint256"
        },
        {
          "internalType": "uint256",
          "name": "max",
          "type": "uint256"
        },
        {
          "internalType": "address[]",
          "name": "_erc721",
          "type": "address[]"
        }
      ],
      "name": "offersOf",
      "outputs": [
        {
          "internalType": "uint256[]",
          "name": "erc721Indexs",
          "type": "uint256[]"
        },
        {
          "internalType": "uint256[]",
          "name": "tokenIdsHasBid",
          "type": "uint256[]"
        }
      ],
      "stateMutability": "view",
      "type": "function",
      "constant": true
    },
    {
      "inputs": [
        {
          "internalType": "address",
          "name": "bidder",
          "type": "address"
        },
        {
          "internalType": "address",
          "name": "tokenAddress",
          "type": "address"
        },
        {
          "internalType": "uint256",
          "name": "tokenId",
          "type": "uint256"
        }
      ],
      "name": "bidOfBidderByTokenId",
      "outputs": [
        {
          "internalType": "uint256",
          "name": "bidId",
          "type": "uint256"
        },
        {
          "internalType": "address",
          "name": "paymentAddress",
          "type": "address"
        },
        {
          "internalType": "uint256",
          "name": "price",
          "type": "uint256"
        },
        {
          "internalType": "uint256",
          "name": "startedAt",
          "type": "uint256"
        },
        {
          "internalType": "uint256",
          "name": "duration",
          "type": "uint256"
        }
      ],
      "stateMutability": "view",
      "type": "function",
      "constant": true
    },
    {
      "inputs": [
        {
          "internalType": "address",
          "name": "bidder",
          "type": "address"
        },
        {
          "internalType": "uint256[]",
          "name": "indexs",
          "type": "uint256[]"
        }
      ],
      "name": "bidsOfBidderByIndexs",
      "outputs": [
        {
          "internalType": "uint256[]",
          "name": "bidId",
          "type": "uint256[]"
        },
        {
          "internalType": "address[]",
          "name": "tokenAddress",
          "type": "address[]"
        },
        {
          "internalType": "address[]",
          "name": "paymentAddress",
          "type": "address[]"
        },
        {
          "internalType": "uint256[]",
          "name": "tokenId",
          "type": "uint256[]"
        },
        {
          "internalType": "uint256[]",
          "name": "price",
          "type": "uint256[]"
        }
      ],
      "stateMutability": "view",
      "type": "function",
      "constant": true
    },
    {
      "inputs": [
        {
          "internalType": "address",
          "name": "bidder",
          "type": "address"
        },
        {
          "internalType": "uint256[]",
          "name": "indexs",
          "type": "uint256[]"
        }
      ],
      "name": "bidsOfBidderByIndexs2",
      "outputs": [
        {
          "internalType": "uint256[]",
          "name": "startedAt",
          "type": "uint256[]"
        },
        {
          "internalType": "uint256[]",
          "name": "duration",
          "type": "uint256[]"
        }
      ],
      "stateMutability": "view",
      "type": "function",
      "constant": true
    },
    {
      "inputs": [
        {
          "internalType": "address",
          "name": "tokenAddress",
          "type": "address"
        },
        {
          "internalType": "uint256",
          "name": "tokenId",
          "type": "uint256"
        },
        {
          "internalType": "uint256[]",
          "name": "indexs",
          "type": "uint256[]"
        }
      ],
      "name": "bidsOfTokenIdByIndexs",
      "outputs": [
        {
          "internalType": "uint256[]",
          "name": "bidId",
          "type": "uint256[]"
        },
        {
          "internalType": "address[]",
          "name": "paymentAddress",
          "type": "address[]"
        },
        {
          "internalType": "uint256[]",
          "name": "price",
          "type": "uint256[]"
        },
        {
          "internalType": "uint256[]",
          "name": "startedAt",
          "type": "uint256[]"
        },
        {
          "internalType": "uint256[]",
          "name": "duration",
          "type": "uint256[]"
        }
      ],
      "stateMutability": "view",
      "type": "function",
      "constant": true
    },
    {
      "inputs": [
        {
          "internalType": "address",
          "name": "tokenAddress",
          "type": "address"
        },
        {
          "internalType": "uint256",
          "name": "tokenId",
          "type": "uint256"
        },
        {
          "internalType": "uint256[]",
          "name": "indexs",
          "type": "uint256[]"
        }
      ],
      "name": "bidsOfTokenIdByIndexs2",
      "outputs": [
        {
          "internalType": "address[]",
          "name": "bidder",
          "type": "address[]"
        }
      ],
      "stateMutability": "view",
      "type": "function",
      "constant": true
    }
  ],
  "bytecode": "0x60806040523480156200001157600080fd5b50604051620038e4380380620038e4833981810160405281019062000037919062000182565b620000576200004b6200009f60201b60201c565b620000a760201b60201c565b80600160006101000a81548173ffffffffffffffffffffffffffffffffffffffff021916908373ffffffffffffffffffffffffffffffffffffffff16021790555050620001fc565b600033905090565b60008060009054906101000a900473ffffffffffffffffffffffffffffffffffffffff169050816000806101000a81548173ffffffffffffffffffffffffffffffffffffffff021916908373ffffffffffffffffffffffffffffffffffffffff1602179055508173ffffffffffffffffffffffffffffffffffffffff168173ffffffffffffffffffffffffffffffffffffffff167f8be0079c531659141344cd1fd0a4f28419497f9722a3daafe3b4186f6b6457e060405160405180910390a35050565b6000815190506200017c81620001e2565b92915050565b6000602082840312156200019557600080fd5b6000620001a5848285016200016b565b91505092915050565b6000620001bb82620001c2565b9050919050565b600073ffffffffffffffffffffffffffffffffffffffff82169050919050565b620001ed81620001ae565b8114620001f957600080fd5b50565b6136d8806200020c6000396000f3fe608060405234801561001057600080fd5b50600436106100ea5760003560e01c806389b22fd91161008c578063d54e255e11610066578063d54e255e14610283578063f2fde38b146102a1578063f474f81a146102bd578063f6e1d0e4146102ee576100ea565b806389b22fd9146102275780638da5cb5b14610249578063cab2e39114610267576100ea565b80636032fb9e116100c85780636032fb9e1461018557806364761ea9146101b9578063715018a6146101ed5780637f0c39d0146101f7576100ea565b8063079d3a47146100ef5780630d927d89146101205780634081a86e14610154575b600080fd5b61010960048036038101906101049190612b65565b61031f565b6040516101179291906131e2565b60405180910390f35b61013a60048036038101906101359190612a2f565b6105b0565b60405161014b959493929190613219565b60405180910390f35b61016e60048036038101906101699190612919565b610adc565b60405161017c929190613135565b60405180910390f35b61019f600480360381019061019a91906129e0565b610d4f565b6040516101b09594939291906133b2565b60405180910390f35b6101d360048036038101906101ce9190612a83565b610ee2565b6040516101e495949392919061328f565b60405180910390f35b6101f56113e2565b005b610211600480360381019061020c9190612a83565b61146a565b60405161021e9190613113565b60405180910390f35b61022f611672565b60405161024095949392919061316c565b60405180910390f35b610251611b2b565b60405161025e9190613038565b60405180910390f35b610281600480360381019061027c9190612919565b611b54565b005b61028b611c14565b604051610298919061333c565b60405180910390f35b6102bb60048036038101906102b69190612919565b611c3a565b005b6102d760048036038101906102d29190612a2f565b611d32565b6040516102e5929190613305565b60405180910390f35b61030860048036038101906103039190612aea565b611fc7565b604051610316929190613305565b60405180910390f35b606080825167ffffffffffffffff811115610363577f4e487b7100000000000000000000000000000000000000000000000000000000600052604160045260246000fd5b6040519080825280602002602001820160405280156103915781602001602082028036833780820191505090505b509150825167ffffffffffffffff8111156103d5577f4e487b7100000000000000000000000000000000000000000000000000000000600052604160045260246000fd5b6040519080825280602002602001820160405280156104035781602001602082028036833780820191505090505b50905060005b83518110156105aa57600080600160009054906101000a900473ffffffffffffffffffffffffffffffffffffffff1673ffffffffffffffffffffffffffffffffffffffff16635e15ff4b87858151811061048c577f4e487b7100000000000000000000000000000000000000000000000000000000600052603260045260246000fd5b60200260200101516040518263ffffffff1660e01b81526004016104b09190613038565b604080518083038186803b1580156104c757600080fd5b505afa1580156104db573d6000803e3d6000fd5b505050506040513d601f19601f820116820180604052508101906104ff9190612be7565b915091508185848151811061053d577f4e487b7100000000000000000000000000000000000000000000000000000000600052603260045260246000fd5b60200260200101901515908115158152505080848481518110610589577f4e487b7100000000000000000000000000000000000000000000000000000000600052603260045260246000fd5b602002602001018181525050505080806105a2906135b6565b915050610409565b50915091565b6060806060806060855167ffffffffffffffff8111156105f9577f4e487b7100000000000000000000000000000000000000000000000000000000600052604160045260246000fd5b6040519080825280602002602001820160405280156106275781602001602082028036833780820191505090505b509450855167ffffffffffffffff81111561066b577f4e487b7100000000000000000000000000000000000000000000000000000000600052604160045260246000fd5b6040519080825280602002602001820160405280156106995781602001602082028036833780820191505090505b509350855167ffffffffffffffff8111156106dd577f4e487b7100000000000000000000000000000000000000000000000000000000600052604160045260246000fd5b60405190808252806020026020018201604052801561070b5781602001602082028036833780820191505090505b509250855167ffffffffffffffff81111561074f577f4e487b7100000000000000000000000000000000000000000000000000000000600052604160045260246000fd5b60405190808252806020026020018201604052801561077d5781602001602082028036833780820191505090505b509150855167ffffffffffffffff8111156107c1577f4e487b7100000000000000000000000000000000000000000000000000000000600052604160045260246000fd5b6040519080825280602002602001820160405280156107ef5781602001602082028036833780820191505090505b50905060005b8651811015610ad1576000806000806000600160009054906101000a900473ffffffffffffffffffffffffffffffffffffffff1673ffffffffffffffffffffffffffffffffffffffff16633e4f9abc8e8e898151811061087e577f4e487b7100000000000000000000000000000000000000000000000000000000600052603260045260246000fd5b60200260200101516040518363ffffffff1660e01b81526004016108a39291906130b3565b60e06040518083038186803b1580156108bb57600080fd5b505afa1580156108cf573d6000803e3d6000fd5b505050506040513d601f19601f820116820180604052508101906108f39190612cd5565b505094509450945094509450848b8781518110610939577f4e487b7100000000000000000000000000000000000000000000000000000000600052603260045260246000fd5b602002602001018181525050838a878151811061097f577f4e487b7100000000000000000000000000000000000000000000000000000000600052603260045260246000fd5b602002602001019073ffffffffffffffffffffffffffffffffffffffff16908173ffffffffffffffffffffffffffffffffffffffff1681525050828987815181106109f3577f4e487b7100000000000000000000000000000000000000000000000000000000600052603260045260246000fd5b602002602001019073ffffffffffffffffffffffffffffffffffffffff16908173ffffffffffffffffffffffffffffffffffffffff168152505081888781518110610a67577f4e487b7100000000000000000000000000000000000000000000000000000000600052603260045260246000fd5b60200260200101818152505080878781518110610aad577f4e487b7100000000000000000000000000000000000000000000000000000000600052603260045260246000fd5b60200260200101818152505050505050508080610ac9906135b6565b9150506107f5565b509295509295909350565b606080600160009054906101000a900473ffffffffffffffffffffffffffffffffffffffff1673ffffffffffffffffffffffffffffffffffffffff16635da6b8f76040518163ffffffff1660e01b815260040160006040518083038186803b158015610b4757600080fd5b505afa158015610b5b573d6000803e3d6000fd5b505050506040513d6000823e3d601f19601f82011682018060405250810190610b849190612ba6565b9150815167ffffffffffffffff811115610bc7577f4e487b7100000000000000000000000000000000000000000000000000000000600052604160045260246000fd5b604051908082528060200260200182016040528015610bf55781602001602082028036833780820191505090505b50905060005b8251811015610d4957600160009054906101000a900473ffffffffffffffffffffffffffffffffffffffff1673ffffffffffffffffffffffffffffffffffffffff1663400f5dd285858481518110610c7c577f4e487b7100000000000000000000000000000000000000000000000000000000600052603260045260246000fd5b60200260200101516040518363ffffffff1660e01b8152600401610ca1929190613053565b60206040518083038186803b158015610cb957600080fd5b505afa158015610ccd573d6000803e3d6000fd5b505050506040513d601f19601f82011682018060405250810190610cf19190612c23565b828281518110610d2a577f4e487b7100000000000000000000000000000000000000000000000000000000600052603260045260246000fd5b6020026020010181815250508080610d41906135b6565b915050610bfb565b50915091565b6000806000806000600160009054906101000a900473ffffffffffffffffffffffffffffffffffffffff1673ffffffffffffffffffffffffffffffffffffffff16637eba034e8989896040518463ffffffff1660e01b8152600401610db69392919061307c565b60206040518083038186803b158015610dce57600080fd5b505afa158015610de2573d6000803e3d6000fd5b505050506040513d601f19601f82011682018060405250810190610e069190612c23565b9450600080600080600160009054906101000a900473ffffffffffffffffffffffffffffffffffffffff1673ffffffffffffffffffffffffffffffffffffffff166344049f6d8a6040518263ffffffff1660e01b8152600401610e699190613397565b60e06040518083038186803b158015610e8157600080fd5b505afa158015610e95573d6000803e3d6000fd5b505050506040513d601f19601f82011682018060405250810190610eb99190612942565b965096509650509550505088848484849850985098509850985050505050939792965093509350565b6060806060806060855167ffffffffffffffff811115610f2b577f4e487b7100000000000000000000000000000000000000000000000000000000600052604160045260246000fd5b604051908082528060200260200182016040528015610f595781602001602082028036833780820191505090505b509450855167ffffffffffffffff811115610f9d577f4e487b7100000000000000000000000000000000000000000000000000000000600052604160045260246000fd5b604051908082528060200260200182016040528015610fcb5781602001602082028036833780820191505090505b509350855167ffffffffffffffff81111561100f577f4e487b7100000000000000000000000000000000000000000000000000000000600052604160045260246000fd5b60405190808252806020026020018201604052801561103d5781602001602082028036833780820191505090505b509250855167ffffffffffffffff811115611081577f4e487b7100000000000000000000000000000000000000000000000000000000600052604160045260246000fd5b6040519080825280602002602001820160405280156110af5781602001602082028036833780820191505090505b509150855167ffffffffffffffff8111156110f3577f4e487b7100000000000000000000000000000000000000000000000000000000600052604160045260246000fd5b6040519080825280602002602001820160405280156111215781602001602082028036833780820191505090505b50905060005b86518110156113d6576000806000806000600160009054906101000a900473ffffffffffffffffffffffffffffffffffffffff1673ffffffffffffffffffffffffffffffffffffffff1663a36561db8f8f8f8a815181106111b1577f4e487b7100000000000000000000000000000000000000000000000000000000600052603260045260246000fd5b60200260200101516040518463ffffffff1660e01b81526004016111d7939291906130dc565b60c06040518083038186803b1580156111ef57600080fd5b505afa158015611203573d6000803e3d6000fd5b505050506040513d601f19601f820116820180604052508101906112279190612c4c565b9550955095509550509450848b878151811061126c577f4e487b7100000000000000000000000000000000000000000000000000000000600052603260045260246000fd5b602002602001018181525050838a87815181106112b2577f4e487b7100000000000000000000000000000000000000000000000000000000600052603260045260246000fd5b602002602001019073ffffffffffffffffffffffffffffffffffffffff16908173ffffffffffffffffffffffffffffffffffffffff168152505082898781518110611326577f4e487b7100000000000000000000000000000000000000000000000000000000600052603260045260246000fd5b6020026020010181815250508188878151811061136c577f4e487b7100000000000000000000000000000000000000000000000000000000600052603260045260246000fd5b602002602001018181525050808787815181106113b2577f4e487b7100000000000000000000000000000000000000000000000000000000600052603260045260246000fd5b602002602001018181525050505050505080806113ce906135b6565b915050611127565b50939792965093509350565b6113ea612622565b73ffffffffffffffffffffffffffffffffffffffff16611408611b2b565b73ffffffffffffffffffffffffffffffffffffffff161461145e576040517f08c379a000000000000000000000000000000000000000000000000000000000815260040161145590613377565b60405180910390fd5b611468600061262a565b565b6060815167ffffffffffffffff8111156114ad577f4e487b7100000000000000000000000000000000000000000000000000000000600052604160045260246000fd5b6040519080825280602002602001820160405280156114db5781602001602082028036833780820191505090505b50905060005b825181101561166a576000600160009054906101000a900473ffffffffffffffffffffffffffffffffffffffff1673ffffffffffffffffffffffffffffffffffffffff1663a36561db8787878681518110611565577f4e487b7100000000000000000000000000000000000000000000000000000000600052603260045260246000fd5b60200260200101516040518463ffffffff1660e01b815260040161158b939291906130dc565b60c06040518083038186803b1580156115a357600080fd5b505afa1580156115b7573d6000803e3d6000fd5b505050506040513d601f19601f820116820180604052508101906115db9190612c4c565b505050509150508083838151811061161c577f4e487b7100000000000000000000000000000000000000000000000000000000600052603260045260246000fd5b602002602001019073ffffffffffffffffffffffffffffffffffffffff16908173ffffffffffffffffffffffffffffffffffffffff1681525050508080611662906135b6565b9150506114e1565b509392505050565b6060806060806060600160009054906101000a900473ffffffffffffffffffffffffffffffffffffffff1673ffffffffffffffffffffffffffffffffffffffff16635da6b8f76040518163ffffffff1660e01b815260040160006040518083038186803b1580156116e257600080fd5b505afa1580156116f6573d6000803e3d6000fd5b505050506040513d6000823e3d601f19601f8201168201806040525081019061171f9190612ba6565b9450845167ffffffffffffffff811115611762577f4e487b7100000000000000000000000000000000000000000000000000000000600052604160045260246000fd5b6040519080825280602002602001820160405280156117905781602001602082028036833780820191505090505b509350845167ffffffffffffffff8111156117d4577f4e487b7100000000000000000000000000000000000000000000000000000000600052604160045260246000fd5b6040519080825280602002602001820160405280156118025781602001602082028036833780820191505090505b509250845167ffffffffffffffff811115611846577f4e487b7100000000000000000000000000000000000000000000000000000000600052604160045260246000fd5b6040519080825280602002602001820160405280156118745781602001602082028036833780820191505090505b509150845167ffffffffffffffff8111156118b8577f4e487b7100000000000000000000000000000000000000000000000000000000600052604160045260246000fd5b6040519080825280602002602001820160405280156118e65781602001602082028036833780820191505090505b50905060005b8551811015611b2357600080600080600160009054906101000a900473ffffffffffffffffffffffffffffffffffffffff1673ffffffffffffffffffffffffffffffffffffffff1663e3ab4bc68b8781518110611972577f4e487b7100000000000000000000000000000000000000000000000000000000600052603260045260246000fd5b60200260200101516040518263ffffffff1660e01b81526004016119969190613038565b60806040518083038186803b1580156119ae57600080fd5b505afa1580156119c2573d6000803e3d6000fd5b505050506040513d601f19601f820116820180604052508101906119e69190612d73565b935093509350935083898681518110611a28577f4e487b7100000000000000000000000000000000000000000000000000000000600052603260045260246000fd5b60200260200101818152505082888681518110611a6e577f4e487b7100000000000000000000000000000000000000000000000000000000600052603260045260246000fd5b60200260200101818152505081878681518110611ab4577f4e487b7100000000000000000000000000000000000000000000000000000000600052603260045260246000fd5b60200260200101818152505080868681518110611afa577f4e487b7100000000000000000000000000000000000000000000000000000000600052603260045260246000fd5b602002602001019015159081151581525050505050508080611b1b906135b6565b9150506118ec565b509091929394565b60008060009054906101000a900473ffffffffffffffffffffffffffffffffffffffff16905090565b611b5c612622565b73ffffffffffffffffffffffffffffffffffffffff16611b7a611b2b565b73ffffffffffffffffffffffffffffffffffffffff1614611bd0576040517f08c379a0000000000000000000000000000000000000000000000000000000008152600401611bc790613377565b60405180910390fd5b80600160006101000a81548173ffffffffffffffffffffffffffffffffffffffff021916908373ffffffffffffffffffffffffffffffffffffffff16021790555050565b600160009054906101000a900473ffffffffffffffffffffffffffffffffffffffff1681565b611c42612622565b73ffffffffffffffffffffffffffffffffffffffff16611c60611b2b565b73ffffffffffffffffffffffffffffffffffffffff1614611cb6576040517f08c379a0000000000000000000000000000000000000000000000000000000008152600401611cad90613377565b60405180910390fd5b600073ffffffffffffffffffffffffffffffffffffffff168173ffffffffffffffffffffffffffffffffffffffff161415611d26576040517f08c379a0000000000000000000000000000000000000000000000000000000008152600401611d1d90613357565b60405180910390fd5b611d2f8161262a565b50565b606080825167ffffffffffffffff811115611d76577f4e487b7100000000000000000000000000000000000000000000000000000000600052604160045260246000fd5b604051908082528060200260200182016040528015611da45781602001602082028036833780820191505090505b509150825167ffffffffffffffff811115611de8577f4e487b7100000000000000000000000000000000000000000000000000000000600052604160045260246000fd5b604051908082528060200260200182016040528015611e165781602001602082028036833780820191505090505b50905060005b8351811015611fbf57600080600160009054906101000a900473ffffffffffffffffffffffffffffffffffffffff1673ffffffffffffffffffffffffffffffffffffffff16633e4f9abc88888681518110611ea0577f4e487b7100000000000000000000000000000000000000000000000000000000600052603260045260246000fd5b60200260200101516040518363ffffffff1660e01b8152600401611ec59291906130b3565b60e06040518083038186803b158015611edd57600080fd5b505afa158015611ef1573d6000803e3d6000fd5b505050506040513d601f19601f82011682018060405250810190611f159190612cd5565b96509650505050505081858481518110611f58577f4e487b7100000000000000000000000000000000000000000000000000000000600052603260045260246000fd5b60200260200101818152505080848481518110611f9e577f4e487b7100000000000000000000000000000000000000000000000000000000600052603260045260246000fd5b60200260200101818152505050508080611fb7906135b6565b915050611e1c565b509250929050565b6060806000808567ffffffffffffffff81111561200d577f4e487b7100000000000000000000000000000000000000000000000000000000600052604160045260246000fd5b60405190808252806020026020018201604052801561203b5781602001602082028036833780820191505090505b50905060008667ffffffffffffffff811115612080577f4e487b7100000000000000000000000000000000000000000000000000000000600052604160045260246000fd5b6040519080825280602002602001820160405280156120ae5781602001602082028036833780820191505090505b50905060005b86518110156124085760008782815181106120f8577f4e487b7100000000000000000000000000000000000000000000000000000000600052603260045260246000fd5b6020026020010151905060008173ffffffffffffffffffffffffffffffffffffffff166370a082318d6040518263ffffffff1660e01b815260040161213d9190613038565b60206040518083038186803b15801561215557600080fd5b505afa158015612169573d6000803e3d6000fd5b505050506040513d601f19601f8201168201806040525081019061218d9190612c23565b905060008b90505b818110156123e45760008373ffffffffffffffffffffffffffffffffffffffff16632f745c598f846040518363ffffffff1660e01b81526004016121da9291906130b3565b60206040518083038186803b1580156121f257600080fd5b505afa158015612206573d6000803e3d6000fd5b505050506040513d601f19601f8201168201806040525081019061222a9190612c23565b90506000600160009054906101000a900473ffffffffffffffffffffffffffffffffffffffff1673ffffffffffffffffffffffffffffffffffffffff1663a9a52a058d88815181106122a5577f4e487b7100000000000000000000000000000000000000000000000000000000600052603260045260246000fd5b6020026020010151846040518363ffffffff1660e01b81526004016122cb9291906130b3565b60206040518083038186803b1580156122e357600080fd5b505afa1580156122f7573d6000803e3d6000fd5b505050506040513d601f19601f8201168201806040525081019061231b9190612c23565b905060008111156123cf5785888a81518110612360577f4e487b7100000000000000000000000000000000000000000000000000000000600052603260045260246000fd5b60200260200101818152505081878a815181106123a6577f4e487b7100000000000000000000000000000000000000000000000000000000600052603260045260246000fd5b60200260200101818152505088806123bd906135b6565b9950508c89106123ce5750506123e4565b5b505080806123dc906135b6565b915050612195565b508986106123f3575050612408565b50508080612400906135b6565b9150506120b4565b508267ffffffffffffffff811115612449577f4e487b7100000000000000000000000000000000000000000000000000000000600052604160045260246000fd5b6040519080825280602002602001820160405280156124775781602001602082028036833780820191505090505b5094508267ffffffffffffffff8111156124ba577f4e487b7100000000000000000000000000000000000000000000000000000000600052604160045260246000fd5b6040519080825280602002602001820160405280156124e85781602001602082028036833780820191505090505b50935060005b838110156126155782818151811061252f577f4e487b7100000000000000000000000000000000000000000000000000000000600052603260045260246000fd5b6020026020010151868281518110612570577f4e487b7100000000000000000000000000000000000000000000000000000000600052603260045260246000fd5b6020026020010181815250508181815181106125b5577f4e487b7100000000000000000000000000000000000000000000000000000000600052603260045260246000fd5b60200260200101518582815181106125f6577f4e487b7100000000000000000000000000000000000000000000000000000000600052603260045260246000fd5b602002602001018181525050808061260d906135b6565b9150506124ee565b5050505094509492505050565b600033905090565b60008060009054906101000a900473ffffffffffffffffffffffffffffffffffffffff169050816000806101000a81548173ffffffffffffffffffffffffffffffffffffffff021916908373ffffffffffffffffffffffffffffffffffffffff1602179055508173ffffffffffffffffffffffffffffffffffffffff168173ffffffffffffffffffffffffffffffffffffffff167f8be0079c531659141344cd1fd0a4f28419497f9722a3daafe3b4186f6b6457e060405160405180910390a35050565b60006127016126fc84613436565b613405565b9050808382526020820190508285602086028201111561272057600080fd5b60005b8581101561275057816127368882612832565b845260208401935060208301925050600181019050612723565b5050509392505050565b600061276d61276884613436565b613405565b9050808382526020820190508285602086028201111561278c57600080fd5b60005b858110156127bc57816127a28882612847565b84526020840193506020830192505060018101905061278f565b5050509392505050565b60006127d96127d484613462565b613405565b905080838252602082019050828560208602820111156127f857600080fd5b60005b85811015612828578161280e88826128ef565b8452602084019350602083019250506001810190506127fb565b5050509392505050565b6000813590506128418161365d565b92915050565b6000815190506128568161365d565b92915050565b600082601f83011261286d57600080fd5b813561287d8482602086016126ee565b91505092915050565b600082601f83011261289757600080fd5b81516128a784826020860161275a565b91505092915050565b600082601f8301126128c157600080fd5b81356128d18482602086016127c6565b91505092915050565b6000815190506128e981613674565b92915050565b6000813590506128fe8161368b565b92915050565b6000815190506129138161368b565b92915050565b60006020828403121561292b57600080fd5b600061293984828501612832565b91505092915050565b600080600080600080600060e0888a03121561295d57600080fd5b600061296b8a828b01612847565b975050602061297c8a828b01612847565b965050604061298d8a828b01612847565b955050606061299e8a828b01612904565b94505060806129af8a828b01612904565b93505060a06129c08a828b01612904565b92505060c06129d18a828b01612904565b91505092959891949750929550565b6000806000606084860312156129f557600080fd5b6000612a0386828701612832565b9350506020612a1486828701612832565b9250506040612a25868287016128ef565b9150509250925092565b60008060408385031215612a4257600080fd5b6000612a5085828601612832565b925050602083013567ffffffffffffffff811115612a6d57600080fd5b612a79858286016128b0565b9150509250929050565b600080600060608486031215612a9857600080fd5b6000612aa686828701612832565b9350506020612ab7868287016128ef565b925050604084013567ffffffffffffffff811115612ad457600080fd5b612ae0868287016128b0565b9150509250925092565b60008060008060808587031215612b0057600080fd5b6000612b0e87828801612832565b9450506020612b1f878288016128ef565b9350506040612b30878288016128ef565b925050606085013567ffffffffffffffff811115612b4d57600080fd5b612b598782880161285c565b91505092959194509250565b600060208284031215612b7757600080fd5b600082013567ffffffffffffffff811115612b9157600080fd5b612b9d8482850161285c565b91505092915050565b600060208284031215612bb857600080fd5b600082015167ffffffffffffffff811115612bd257600080fd5b612bde84828501612886565b91505092915050565b60008060408385031215612bfa57600080fd5b6000612c08858286016128da565b9250506020612c1985828601612904565b9150509250929050565b600060208284031215612c3557600080fd5b6000612c4384828501612904565b91505092915050565b60008060008060008060c08789031215612c6557600080fd5b6000612c7389828a01612904565b9650506020612c8489828a01612847565b9550506040612c9589828a01612847565b9450506060612ca689828a01612904565b9350506080612cb789828a01612904565b92505060a0612cc889828a01612904565b9150509295509295509295565b600080600080600080600060e0888a031215612cf057600080fd5b6000612cfe8a828b01612904565b9750506020612d0f8a828b01612847565b9650506040612d208a828b01612847565b9550506060612d318a828b01612904565b9450506080612d428a828b01612904565b93505060a0612d538a828b01612904565b92505060c0612d648a828b01612904565b91505092959891949750929550565b60008060008060808587031215612d8957600080fd5b6000612d9787828801612904565b9450506020612da887828801612904565b9350506040612db987828801612904565b9250506060612dca878288016128da565b91505092959194509250565b6000612de28383612e1e565b60208301905092915050565b6000612dfa8383612f56565b60208301905092915050565b6000612e12838361301a565b60208301905092915050565b612e278161354a565b82525050565b612e368161354a565b82525050565b6000612e47826134be565b612e518185613506565b9350612e5c8361348e565b8060005b83811015612e8d578151612e748882612dd6565b9750612e7f836134df565b925050600181019050612e60565b5085935050505092915050565b6000612ea5826134c9565b612eaf8185613517565b9350612eba8361349e565b8060005b83811015612eeb578151612ed28882612dee565b9750612edd836134ec565b925050600181019050612ebe565b5085935050505092915050565b6000612f03826134d4565b612f0d8185613528565b9350612f18836134ae565b8060005b83811015612f49578151612f308882612e06565b9750612f3b836134f9565b925050600181019050612f1c565b5085935050505092915050565b612f5f8161355c565b82525050565b612f6e81613592565b82525050565b6000612f81602683613539565b91507f4f776e61626c653a206e6577206f776e657220697320746865207a65726f206160008301527f64647265737300000000000000000000000000000000000000000000000000006020830152604082019050919050565b6000612fe7602083613539565b91507f4f776e61626c653a2063616c6c6572206973206e6f7420746865206f776e65726000830152602082019050919050565b61302381613588565b82525050565b61303281613588565b82525050565b600060208201905061304d6000830184612e2d565b92915050565b60006040820190506130686000830185612e2d565b6130756020830184612e2d565b9392505050565b60006060820190506130916000830186612e2d565b61309e6020830185612e2d565b6130ab6040830184613029565b949350505050565b60006040820190506130c86000830185612e2d565b6130d56020830184613029565b9392505050565b60006060820190506130f16000830186612e2d565b6130fe6020830185613029565b61310b6040830184613029565b949350505050565b6000602082019050818103600083015261312d8184612e3c565b905092915050565b6000604082019050818103600083015261314f8185612e3c565b905081810360208301526131638184612ef8565b90509392505050565b600060a08201905081810360008301526131868188612e3c565b9050818103602083015261319a8187612ef8565b905081810360408301526131ae8186612ef8565b905081810360608301526131c28185612ef8565b905081810360808301526131d68184612e9a565b90509695505050505050565b600060408201905081810360008301526131fc8185612e9a565b905081810360208301526132108184612ef8565b90509392505050565b600060a08201905081810360008301526132338188612ef8565b905081810360208301526132478187612e3c565b9050818103604083015261325b8186612e3c565b9050818103606083015261326f8185612ef8565b905081810360808301526132838184612ef8565b90509695505050505050565b600060a08201905081810360008301526132a98188612ef8565b905081810360208301526132bd8187612e3c565b905081810360408301526132d18186612ef8565b905081810360608301526132e58185612ef8565b905081810360808301526132f98184612ef8565b90509695505050505050565b6000604082019050818103600083015261331f8185612ef8565b905081810360208301526133338184612ef8565b90509392505050565b60006020820190506133516000830184612f65565b92915050565b6000602082019050818103600083015261337081612f74565b9050919050565b6000602082019050818103600083015261339081612fda565b9050919050565b60006020820190506133ac6000830184613029565b92915050565b600060a0820190506133c76000830188613029565b6133d46020830187612e2d565b6133e16040830186613029565b6133ee6060830185613029565b6133fb6080830184613029565b9695505050505050565b6000604051905081810181811067ffffffffffffffff8211171561342c5761342b61362e565b5b8060405250919050565b600067ffffffffffffffff8211156134515761345061362e565b5b602082029050602081019050919050565b600067ffffffffffffffff82111561347d5761347c61362e565b5b602082029050602081019050919050565b6000819050602082019050919050565b6000819050602082019050919050565b6000819050602082019050919050565b600081519050919050565b600081519050919050565b600081519050919050565b6000602082019050919050565b6000602082019050919050565b6000602082019050919050565b600082825260208201905092915050565b600082825260208201905092915050565b600082825260208201905092915050565b600082825260208201905092915050565b600061355582613568565b9050919050565b60008115159050919050565b600073ffffffffffffffffffffffffffffffffffffffff82169050919050565b6000819050919050565b600061359d826135a4565b9050919050565b60006135af82613568565b9050919050565b60006135c182613588565b91507fffffffffffffffffffffffffffffffffffffffffffffffffffffffffffffffff8214156135f4576135f36135ff565b5b600182019050919050565b7f4e487b7100000000000000000000000000000000000000000000000000000000600052601160045260246000fd5b7f4e487b7100000000000000000000000000000000000000000000000000000000600052604160045260246000fd5b6136668161354a565b811461367157600080fd5b50565b61367d8161355c565b811461368857600080fd5b50565b61369481613588565b811461369f57600080fd5b5056fea26469706673582212201469d0f3b840f587cd24c096349e96780dd3eea8c0052f4a3a113c14ed217a2a64736f6c63430008000033",
  "immutableReferences": {},
  "source": "\r\n// SPDX-License-Identifier: MIT\r\npragma solidity ^0.8.0;\r\n// pragma experimental ABIEncoderV2;\r\n// cc bin u vo v u ra khng nn s dng tin t _, u ra nn to tn bin v n khng tn gas v cn thit\r\n    // c th khng to tn bin  tit kim dung lng\r\n// cc mng tham s u vo v u ra s dng \"memory\" ch khng s dng \"calldata\" v c gii hn dung lng\r\n// connex v1: u vo khng h tr Tuple v Tuple[], u ra khng h tr Tuple v Tuple[], call trc tip t bin public th h tr Tuple\r\n// connex v2: u vo khng h tr Tuple v Tuple[] ->  bo co vi vechain\r\n// u vo cn h tr connex v1,v2, u ra c th khng cn h tr v1 nu call thng qua server\r\n// VeChain h tr clauses nn khng cn dng Tuple cho u vo, mt clauses b reverted th c giao dch  b reverted\r\n// address(0) khng th l contract nn lm a ch Payment cho native token c\r\n\r\n// import \"https://github.com/tv-truong/openzeppelin-contracts-4.3.2/contracts/access/Ownable.sol\"; // @ [import: Context]\r\nimport \"@openzeppelin/contracts/access/Ownable.sol\";\r\n\r\n// openzeppelin-contracts/v4.3.2\r\ninterface IERC721_2 {\r\n    // event Transfer(address indexed from, address indexed to, uint256 indexed tokenId);\r\n    // event Approval(address indexed owner, address indexed approved, uint256 indexed tokenId);\r\n    // event ApprovalForAll(address indexed owner, address indexed operator, bool approved);\r\n    function balanceOf(address owner) external view returns (uint256 balance);\r\n    // function ownerOf(uint256 tokenId) external view returns (address owner);\r\n    // function safeTransferFrom(address from, address to, uint256 tokenId) external;\r\n    // function transferFrom(address from, address to, uint256 tokenId) external;\r\n    // function approve(address to, uint256 tokenId) external;\r\n    // function getApproved(uint256 tokenId) external view returns (address operator);\r\n    // function setApprovalForAll(address operator, bool _approved) external;\r\n    // function isApprovedForAll(address owner, address operator) external view returns (bool);\r\n    // function safeTransferFrom(address from, address to, uint256 tokenId, bytes calldata data) external;\r\n    // function supportsInterface(bytes4 interfaceId) external view returns (bool);\r\n    //\r\n    function tokenOfOwnerByIndex(address owner, uint256 index) external view returns (uint256);\r\n}\r\n\r\n//\r\ninterface IERC721BidV1 {\r\n    function supportedErc721Map(address tokenAddress) external view returns (bool enable, uint256 feeRate);\r\n    function paymentAddressList() external view returns (address[] memory);\r\n    function supportedPaymentMap(address paymentAddress) external view returns (uint256, uint256, uint256, bool);\r\n    function userErc20Balance(address account, address paymentAddress) external view returns (uint256);\r\n    function totalBidOfTokenId(address tokenAddress, uint256 tokenId) external view returns (uint256);\r\n    function userBidIdByTokenId(address account, address tokenAddress, uint256 tokenId) external view returns (uint256);\r\n    function bidIdToBid(uint256 bidId) external view returns (address, address, address, uint256, uint256, uint256, uint256);\r\n    function bidOfBidderByIndex(address bidder, uint256 index) external view returns (uint256, address, address, uint256, uint256, uint256, uint256);\r\n    function bidOfTokenIdByIndex(address tokenAddress, uint256 tokenId, uint256 index) external view returns (uint256, address, address, uint256, uint256, uint256);\r\n}\r\n//---------------------------------\r\n\r\n// ERC721BidPeripheryV1\r\ncontract ERC721BidPeripheryV1 is Ownable {\r\n\r\n    IERC721BidV1 public bidContract;\r\n    // ----------------------------------------------------------------------------\r\n    constructor(address _bidContract) {\r\n        bidContract = IERC721BidV1(_bidContract);\r\n    }\r\n\r\n    // ----------------------------------------------------------------------------\r\n    // onlyOwner Write Contract\r\n    // ----------------------------------------------------------------------------\r\n    // @\r\n    function setBidContract(address _bidContract) public onlyOwner {\r\n        bidContract = IERC721BidV1(_bidContract);\r\n    }\r\n    // ----------------------------------------------------------------------------\r\n    // end onlyOwner Write Contract\r\n    // ----------------------------------------------------------------------------\r\n    \r\n    // ----------------------------------------------------------------------------\r\n    // Read Contract\r\n    // ----------------------------------------------------------------------------\r\n    // Erc721 ------------------------------\r\n    function supportedErc721s(address[] memory erc721) public view returns (bool[] memory enable, uint256[] memory feeRate) {\r\n        enable = new bool[](erc721.length);\r\n        feeRate = new uint256[](erc721.length);\r\n        for (uint i = 0; i < erc721.length; i++) {\r\n            (bool _enable, uint256 _feeRate) = bidContract.supportedErc721Map(erc721[i]);\r\n            enable[i] = _enable;\r\n            feeRate[i] = _feeRate;\r\n        }\r\n    }\r\n    // end Erc721 ------------------------------\r\n\r\n    // Payment ---------------------\r\n    // dng hp ng ngoi vi  tit kim dung lng\r\n    function supportedPayments() public view returns (\r\n        address[] memory erc20,\r\n        uint256[] memory minPrice,\r\n        uint256[] memory lockRequired,\r\n        uint256[] memory feeRate,\r\n        bool[] memory enable\r\n    ) {\r\n        erc20 = bidContract.paymentAddressList();\r\n        minPrice = new uint256[](erc20.length);\r\n        lockRequired = new uint256[](erc20.length);\r\n        feeRate = new uint256[](erc20.length);\r\n        enable = new bool[](erc20.length);\r\n        for (uint i = 0; i < erc20.length; i++) {\r\n            (uint256 _minPrice, uint256 _lockRequired, uint256 _feeRate, bool _enable) = bidContract.supportedPaymentMap(erc20[i]);\r\n            minPrice[i] = _minPrice;\r\n            lockRequired[i] = _lockRequired;\r\n            feeRate[i] = _feeRate;\r\n            enable[i] = _enable;\r\n        }\r\n    }\r\n\r\n    // dng hp ng ngoi vi  tit kim dung lng\r\n    function erc20BalancesOf(address account) public view returns (address[] memory erc20, uint256[] memory amount) {\r\n        erc20 = bidContract.paymentAddressList();\r\n        amount = new uint256[](erc20.length);\r\n        for (uint i = 0; i < erc20.length; i++) {\r\n            amount[i] = bidContract.userErc20Balance(account, erc20[i]);\r\n        }\r\n    }\r\n    // end Payment ---------------------\r\n\r\n    // Offer ---------------------\r\n    function offersOf(address account, uint256 from, uint256 max, address[] memory _erc721) public view returns (uint256[] memory erc721Indexs, uint256[] memory tokenIdsHasBid) {\r\n        uint256 count = 0;\r\n        uint256[] memory _erc721Indexs = new uint256[](max);\r\n        uint256[] memory _tokenIdsHasBid = new uint256[](max);\r\n        for (uint i = 0; i < _erc721.length; i++) {\r\n            IERC721_2 erc721Contract = IERC721_2(_erc721[i]);\r\n            uint256 balanceOf = erc721Contract.balanceOf(account);\r\n            for (uint j = from; j < balanceOf; j++) {\r\n                uint256 tokenId = erc721Contract.tokenOfOwnerByIndex(account, j);\r\n                uint256 bidsOfTokenId = bidContract.totalBidOfTokenId(_erc721[i], tokenId);\r\n                if (bidsOfTokenId > 0) {\r\n                    _erc721Indexs[count] = i;\r\n                    _tokenIdsHasBid[count] = tokenId;\r\n                    count ++;\r\n                    if (count >= max) break;\r\n                }\r\n            }\r\n            if (count >= max) break;\r\n        }\r\n        erc721Indexs = new uint256[](count);\r\n        tokenIdsHasBid = new uint256[](count);\r\n        for (uint i = 0; i < count; i++) {\r\n            erc721Indexs[i] = _erc721Indexs[i];\r\n            tokenIdsHasBid[i] = _tokenIdsHasBid[i];\r\n        }\r\n    }\r\n    /*\r\n    function offersOfTest(address account, uint256 from, uint256 max, address[] memory _erc721) public view returns (uint256[] memory erc721Indexs, uint256[] memory tokenIdsHasBid) {\r\n        uint256 count = 0;\r\n        uint256[] memory _erc721Indexs = new uint256[](max);\r\n        uint256[] memory _tokenIdsHasBid = new uint256[](max);\r\n        for (uint i = 0; i < _erc721.length; i++) {\r\n            uint256 balanceOf = 5;\r\n            for (uint j = from; j < balanceOf; j++) {\r\n                uint256 tokenId = j;\r\n                uint256 bidsOfTokenId = 1;\r\n                if (bidsOfTokenId > 0) {\r\n                    _erc721Indexs[count] = i;\r\n                    _tokenIdsHasBid[count] = tokenId;\r\n                    count ++;\r\n                    if (count >= max) break;\r\n                }\r\n            }\r\n            if (count >= max) break;\r\n        }\r\n        erc721Indexs = new uint256[](count);\r\n        tokenIdsHasBid = new uint256[](count);\r\n        for (uint i = 0; i < count; i++) {\r\n            erc721Indexs[i] = _erc721Indexs[i];\r\n            tokenIdsHasBid[i] = _tokenIdsHasBid[i];\r\n        }\r\n    }*/\r\n    // end Offer ---------------------\r\n\r\n    // Bid ---------------------\r\n    //  s dng hp ng ngoi vi, nu gi trc tip th qua 2 function\r\n    function bidOfBidderByTokenId(address bidder, address tokenAddress, uint256 tokenId) public view returns (\r\n        uint256 bidId,  address paymentAddress, uint256 price, uint256 startedAt, uint256 duration\r\n    ) {\r\n        bidId = bidContract.userBidIdByTokenId(bidder, tokenAddress, tokenId);\r\n        ( , , address _paymentAddress, , uint256 _price, uint256 _startedAt, uint256 _duration) = bidContract.bidIdToBid(bidId);\r\n        return (bidId, _paymentAddress, _price, _startedAt, _duration);\r\n    }\r\n    //\r\n    function bidsOfBidderByIndexs(address bidder, uint256[] memory indexs) public view returns (\r\n        uint256[] memory bidId,\r\n        address[] memory tokenAddress,\r\n        address[] memory paymentAddress,\r\n        uint256[] memory tokenId,\r\n        uint256[] memory price\r\n        // uint256[] memory startedAt, // khng  lu tr nn chuyn startedAt, duration sang function khc\r\n        // uint256[] memory duration\r\n    ) {\r\n        bidId = new uint256[](indexs.length);\r\n        tokenAddress = new address[](indexs.length);\r\n        paymentAddress = new address[](indexs.length);\r\n        tokenId = new uint256[](indexs.length);\r\n        price = new uint256[](indexs.length);\r\n        // startedAt = new uint256[](indexs.length);\r\n        // duration = new uint256[](indexs.length);\r\n        //\r\n        for (uint i = 0; i < indexs.length; i++) {\r\n            // (uint256 bidId, address tokenAddress, address paymentAddress, uint256 tokenId, uint256 price, uint256 startedAt, uint256 duration)\r\n            (uint256 a, address b, address c, uint256 c2, uint256 d, , ) = bidContract.bidOfBidderByIndex(bidder, indexs[i]);\r\n            bidId[i] = a;\r\n            tokenAddress[i] = b;\r\n            paymentAddress[i] = c;\r\n            tokenId[i] = c2;\r\n            price[i] = d;\r\n            // startedAt[i] = e;\r\n            // duration[i] = f;\r\n        }\r\n    }\r\n    //\r\n    function bidsOfBidderByIndexs2(address bidder, uint256[] memory indexs) public view returns (\r\n        uint256[] memory startedAt,\r\n        uint256[] memory duration\r\n    ) {\r\n        startedAt = new uint256[](indexs.length);\r\n        duration = new uint256[](indexs.length);\r\n        //\r\n        for (uint i = 0; i < indexs.length; i++) {\r\n            // (uint256 bidId, address tokenAddress, address paymentAddress, uint256 tokenId, uint256 price, uint256 startedAt, uint256 duration)\r\n            ( , , , , , uint256 e, uint256 f) = bidContract.bidOfBidderByIndex(bidder, indexs[i]);\r\n            startedAt[i] = e;\r\n            duration[i] = f;\r\n        }\r\n    }\r\n\r\n    //\r\n    function bidsOfTokenIdByIndexs(address tokenAddress, uint256 tokenId, uint256[] memory indexs) public view returns (\r\n        uint256[] memory bidId,\r\n        // address[] memory bidder, // khng  lu tr nn chuyn bidder sang function khc\r\n        address[] memory paymentAddress,\r\n        uint256[] memory price,\r\n        uint256[] memory startedAt,\r\n        uint256[] memory duration\r\n    ) {\r\n        bidId = new uint256[](indexs.length);\r\n        // bidder = new address[](indexs.length);\r\n        paymentAddress = new address[](indexs.length);\r\n        price = new uint256[](indexs.length);\r\n        startedAt = new uint256[](indexs.length);\r\n        duration = new uint256[](indexs.length);\r\n        //\r\n        for (uint i = 0; i < indexs.length; i++) {\r\n            (uint256 a, , address c, uint256 d, uint256 e, uint256 f) = bidContract.bidOfTokenIdByIndex(tokenAddress, tokenId, indexs[i]);\r\n            bidId[i] = a;\r\n            // bidder[i] = b;\r\n            paymentAddress[i] = c;\r\n            price[i] = d;\r\n            startedAt[i] = e;\r\n            duration[i] = f;\r\n        }\r\n    }\r\n    //\r\n    function bidsOfTokenIdByIndexs2(address tokenAddress, uint256 tokenId, uint256[] memory indexs) public view returns (\r\n        address[] memory bidder\r\n    ) {\r\n        bidder = new address[](indexs.length);\r\n        for (uint i = 0; i < indexs.length; i++) {\r\n            ( , address b, , , , ) = bidContract.bidOfTokenIdByIndex(tokenAddress, tokenId, indexs[i]);\r\n            bidder[i] = b;\r\n        }\r\n    }\r\n    // end Bid ---------------------\r\n    // ----------------------------------------------------------------------------\r\n    // end Read Contract\r\n    // ----------------------------------------------------------------------------\r\n}",
  "sourcePath": "C:/Working/Blockchain/Vechain/0_tvt/Vefam/contracts/ERC721BidPeripheryV1.sol",
  "compiler": {
    "name": "solc",
    "version": "0.8.0+commit.c7dfd78e.Emscripten.clang"
  },
  "schemaVersion": "3.3.3",
  "updatedAt": "2021-11-15T20:51:37.265Z",
  "networkType": "ethereum",
  "devdoc": {
    "kind": "dev",
    "methods": {
      "owner()": {
        "details": "Returns the address of the current owner."
      },
      "renounceOwnership()": {
        "details": "Leaves the contract without owner. It will not be possible to call `onlyOwner` functions anymore. Can only be called by the current owner. NOTE: Renouncing ownership will leave the contract without an owner, thereby removing any functionality that is only available to the owner."
      },
      "transferOwnership(address)": {
        "details": "Transfers ownership of the contract to a new account (`newOwner`). Can only be called by the current owner."
      }
    },
    "version": 1
  },
  "userdoc": {
    "kind": "user",
    "methods": {},
    "version": 1
  }
}