{
  "contractName": "PixelPuffs",
  "abi": [
    {
      "inputs": [],
      "stateMutability": "nonpayable",
      "type": "constructor"
    },
    {
      "anonymous": false,
      "inputs": [
        {
          "indexed": true,
          "internalType": "address",
          "name": "owner",
          "type": "address"
        },
        {
          "indexed": true,
          "internalType": "address",
          "name": "approved",
          "type": "address"
        },
        {
          "indexed": true,
          "internalType": "uint256",
          "name": "tokenId",
          "type": "uint256"
        }
      ],
      "name": "Approval",
      "type": "event"
    },
    {
      "anonymous": false,
      "inputs": [
        {
          "indexed": true,
          "internalType": "address",
          "name": "owner",
          "type": "address"
        },
        {
          "indexed": true,
          "internalType": "address",
          "name": "operator",
          "type": "address"
        },
        {
          "indexed": false,
          "internalType": "bool",
          "name": "approved",
          "type": "bool"
        }
      ],
      "name": "ApprovalForAll",
      "type": "event"
    },
    {
      "anonymous": false,
      "inputs": [
        {
          "indexed": true,
          "internalType": "address",
          "name": "previousOwner",
          "type": "address"
        },
        {
          "indexed": true,
          "internalType": "address",
          "name": "newOwner",
          "type": "address"
        }
      ],
      "name": "OwnershipTransferred",
      "type": "event"
    },
    {
      "anonymous": false,
      "inputs": [
        {
          "indexed": true,
          "internalType": "bytes32",
          "name": "role",
          "type": "bytes32"
        },
        {
          "indexed": true,
          "internalType": "bytes32",
          "name": "previousAdminRole",
          "type": "bytes32"
        },
        {
          "indexed": true,
          "internalType": "bytes32",
          "name": "newAdminRole",
          "type": "bytes32"
        }
      ],
      "name": "RoleAdminChanged",
      "type": "event"
    },
    {
      "anonymous": false,
      "inputs": [
        {
          "indexed": true,
          "internalType": "bytes32",
          "name": "role",
          "type": "bytes32"
        },
        {
          "indexed": true,
          "internalType": "address",
          "name": "account",
          "type": "address"
        },
        {
          "indexed": true,
          "internalType": "address",
          "name": "sender",
          "type": "address"
        }
      ],
      "name": "RoleGranted",
      "type": "event"
    },
    {
      "anonymous": false,
      "inputs": [
        {
          "indexed": true,
          "internalType": "bytes32",
          "name": "role",
          "type": "bytes32"
        },
        {
          "indexed": true,
          "internalType": "address",
          "name": "account",
          "type": "address"
        },
        {
          "indexed": true,
          "internalType": "address",
          "name": "sender",
          "type": "address"
        }
      ],
      "name": "RoleRevoked",
      "type": "event"
    },
    {
      "anonymous": false,
      "inputs": [
        {
          "indexed": true,
          "internalType": "address",
          "name": "from",
          "type": "address"
        },
        {
          "indexed": true,
          "internalType": "address",
          "name": "to",
          "type": "address"
        },
        {
          "indexed": true,
          "internalType": "uint256",
          "name": "tokenId",
          "type": "uint256"
        }
      ],
      "name": "Transfer",
      "type": "event"
    },
    {
      "inputs": [],
      "name": "DEFAULT_ADMIN_ROLE",
      "outputs": [
        {
          "internalType": "bytes32",
          "name": "",
          "type": "bytes32"
        }
      ],
      "stateMutability": "view",
      "type": "function",
      "constant": true
    },
    {
      "inputs": [],
      "name": "MINTER_ROLE",
      "outputs": [
        {
          "internalType": "bytes32",
          "name": "",
          "type": "bytes32"
        }
      ],
      "stateMutability": "view",
      "type": "function",
      "constant": true
    },
    {
      "inputs": [
        {
          "internalType": "address",
          "name": "to",
          "type": "address"
        },
        {
          "internalType": "uint256",
          "name": "tokenId",
          "type": "uint256"
        }
      ],
      "name": "approve",
      "outputs": [],
      "stateMutability": "nonpayable",
      "type": "function"
    },
    {
      "inputs": [
        {
          "internalType": "address",
          "name": "owner",
          "type": "address"
        }
      ],
      "name": "balanceOf",
      "outputs": [
        {
          "internalType": "uint256",
          "name": "",
          "type": "uint256"
        }
      ],
      "stateMutability": "view",
      "type": "function",
      "constant": true
    },
    {
      "inputs": [],
      "name": "baseURI",
      "outputs": [
        {
          "internalType": "string",
          "name": "",
          "type": "string"
        }
      ],
      "stateMutability": "view",
      "type": "function",
      "constant": true
    },
    {
      "inputs": [
        {
          "internalType": "uint256",
          "name": "tokenId",
          "type": "uint256"
        }
      ],
      "name": "getApproved",
      "outputs": [
        {
          "internalType": "address",
          "name": "",
          "type": "address"
        }
      ],
      "stateMutability": "view",
      "type": "function",
      "constant": true
    },
    {
      "inputs": [
        {
          "internalType": "bytes32",
          "name": "role",
          "type": "bytes32"
        }
      ],
      "name": "getRoleAdmin",
      "outputs": [
        {
          "internalType": "bytes32",
          "name": "",
          "type": "bytes32"
        }
      ],
      "stateMutability": "view",
      "type": "function",
      "constant": true
    },
    {
      "inputs": [
        {
          "internalType": "bytes32",
          "name": "role",
          "type": "bytes32"
        },
        {
          "internalType": "uint256",
          "name": "index",
          "type": "uint256"
        }
      ],
      "name": "getRoleMember",
      "outputs": [
        {
          "internalType": "address",
          "name": "",
          "type": "address"
        }
      ],
      "stateMutability": "view",
      "type": "function",
      "constant": true
    },
    {
      "inputs": [
        {
          "internalType": "bytes32",
          "name": "role",
          "type": "bytes32"
        }
      ],
      "name": "getRoleMemberCount",
      "outputs": [
        {
          "internalType": "uint256",
          "name": "",
          "type": "uint256"
        }
      ],
      "stateMutability": "view",
      "type": "function",
      "constant": true
    },
    {
      "inputs": [
        {
          "internalType": "bytes32",
          "name": "role",
          "type": "bytes32"
        },
        {
          "internalType": "address",
          "name": "account",
          "type": "address"
        }
      ],
      "name": "grantRole",
      "outputs": [],
      "stateMutability": "nonpayable",
      "type": "function"
    },
    {
      "inputs": [
        {
          "internalType": "bytes32",
          "name": "role",
          "type": "bytes32"
        },
        {
          "internalType": "address",
          "name": "account",
          "type": "address"
        }
      ],
      "name": "hasRole",
      "outputs": [
        {
          "internalType": "bool",
          "name": "",
          "type": "bool"
        }
      ],
      "stateMutability": "view",
      "type": "function",
      "constant": true
    },
    {
      "inputs": [
        {
          "internalType": "address",
          "name": "owner",
          "type": "address"
        },
        {
          "internalType": "address",
          "name": "operator",
          "type": "address"
        }
      ],
      "name": "isApprovedForAll",
      "outputs": [
        {
          "internalType": "bool",
          "name": "",
          "type": "bool"
        }
      ],
      "stateMutability": "view",
      "type": "function",
      "constant": true
    },
    {
      "inputs": [],
      "name": "mintPhase",
      "outputs": [
        {
          "internalType": "uint256",
          "name": "",
          "type": "uint256"
        }
      ],
      "stateMutability": "view",
      "type": "function",
      "constant": true
    },
    {
      "inputs": [],
      "name": "mintRewards",
      "outputs": [
        {
          "internalType": "uint256",
          "name": "",
          "type": "uint256"
        }
      ],
      "stateMutability": "view",
      "type": "function",
      "constant": true
    },
    {
      "inputs": [],
      "name": "name",
      "outputs": [
        {
          "internalType": "string",
          "name": "",
          "type": "string"
        }
      ],
      "stateMutability": "view",
      "type": "function",
      "constant": true
    },
    {
      "inputs": [],
      "name": "owner",
      "outputs": [
        {
          "internalType": "address",
          "name": "",
          "type": "address"
        }
      ],
      "stateMutability": "view",
      "type": "function",
      "constant": true
    },
    {
      "inputs": [
        {
          "internalType": "uint256",
          "name": "tokenId",
          "type": "uint256"
        }
      ],
      "name": "ownerOf",
      "outputs": [
        {
          "internalType": "address",
          "name": "",
          "type": "address"
        }
      ],
      "stateMutability": "view",
      "type": "function",
      "constant": true
    },
    {
      "inputs": [],
      "name": "renounceOwnership",
      "outputs": [],
      "stateMutability": "nonpayable",
      "type": "function"
    },
    {
      "inputs": [
        {
          "internalType": "bytes32",
          "name": "role",
          "type": "bytes32"
        },
        {
          "internalType": "address",
          "name": "account",
          "type": "address"
        }
      ],
      "name": "renounceRole",
      "outputs": [],
      "stateMutability": "nonpayable",
      "type": "function"
    },
    {
      "inputs": [],
      "name": "revenuePhaseAB",
      "outputs": [
        {
          "internalType": "uint256",
          "name": "",
          "type": "uint256"
        }
      ],
      "stateMutability": "view",
      "type": "function",
      "constant": true
    },
    {
      "inputs": [
        {
          "internalType": "bytes32",
          "name": "role",
          "type": "bytes32"
        },
        {
          "internalType": "address",
          "name": "account",
          "type": "address"
        }
      ],
      "name": "revokeRole",
      "outputs": [],
      "stateMutability": "nonpayable",
      "type": "function"
    },
    {
      "inputs": [
        {
          "internalType": "address",
          "name": "from",
          "type": "address"
        },
        {
          "internalType": "address",
          "name": "to",
          "type": "address"
        },
        {
          "internalType": "uint256",
          "name": "tokenId",
          "type": "uint256"
        }
      ],
      "name": "safeTransferFrom",
      "outputs": [],
      "stateMutability": "nonpayable",
      "type": "function"
    },
    {
      "inputs": [
        {
          "internalType": "address",
          "name": "from",
          "type": "address"
        },
        {
          "internalType": "address",
          "name": "to",
          "type": "address"
        },
        {
          "internalType": "uint256",
          "name": "tokenId",
          "type": "uint256"
        },
        {
          "internalType": "bytes",
          "name": "_data",
          "type": "bytes"
        }
      ],
      "name": "safeTransferFrom",
      "outputs": [],
      "stateMutability": "nonpayable",
      "type": "function"
    },
    {
      "inputs": [
        {
          "internalType": "address",
          "name": "operator",
          "type": "address"
        },
        {
          "internalType": "bool",
          "name": "approved",
          "type": "bool"
        }
      ],
      "name": "setApprovalForAll",
      "outputs": [],
      "stateMutability": "nonpayable",
      "type": "function"
    },
    {
      "inputs": [
        {
          "internalType": "address",
          "name": "",
          "type": "address"
        }
      ],
      "name": "shareAccountMap",
      "outputs": [
        {
          "internalType": "uint256",
          "name": "hasWithdrawn",
          "type": "uint256"
        },
        {
          "internalType": "uint256",
          "name": "rate",
          "type": "uint256"
        }
      ],
      "stateMutability": "view",
      "type": "function",
      "constant": true
    },
    {
      "inputs": [
        {
          "internalType": "bytes4",
          "name": "interfaceId",
          "type": "bytes4"
        }
      ],
      "name": "supportsInterface",
      "outputs": [
        {
          "internalType": "bool",
          "name": "",
          "type": "bool"
        }
      ],
      "stateMutability": "view",
      "type": "function",
      "constant": true
    },
    {
      "inputs": [],
      "name": "symbol",
      "outputs": [
        {
          "internalType": "string",
          "name": "",
          "type": "string"
        }
      ],
      "stateMutability": "view",
      "type": "function",
      "constant": true
    },
    {
      "inputs": [
        {
          "internalType": "uint256",
          "name": "index",
          "type": "uint256"
        }
      ],
      "name": "tokenByIndex",
      "outputs": [
        {
          "internalType": "uint256",
          "name": "",
          "type": "uint256"
        }
      ],
      "stateMutability": "view",
      "type": "function",
      "constant": true
    },
    {
      "inputs": [
        {
          "internalType": "address",
          "name": "owner",
          "type": "address"
        },
        {
          "internalType": "uint256",
          "name": "index",
          "type": "uint256"
        }
      ],
      "name": "tokenOfOwnerByIndex",
      "outputs": [
        {
          "internalType": "uint256",
          "name": "",
          "type": "uint256"
        }
      ],
      "stateMutability": "view",
      "type": "function",
      "constant": true
    },
    {
      "inputs": [
        {
          "internalType": "uint256",
          "name": "tokenId",
          "type": "uint256"
        }
      ],
      "name": "tokenURI",
      "outputs": [
        {
          "internalType": "string",
          "name": "",
          "type": "string"
        }
      ],
      "stateMutability": "view",
      "type": "function",
      "constant": true
    },
    {
      "inputs": [],
      "name": "totalSupply",
      "outputs": [
        {
          "internalType": "uint256",
          "name": "",
          "type": "uint256"
        }
      ],
      "stateMutability": "view",
      "type": "function",
      "constant": true
    },
    {
      "inputs": [
        {
          "internalType": "address",
          "name": "from",
          "type": "address"
        },
        {
          "internalType": "address",
          "name": "to",
          "type": "address"
        },
        {
          "internalType": "uint256",
          "name": "tokenId",
          "type": "uint256"
        }
      ],
      "name": "transferFrom",
      "outputs": [],
      "stateMutability": "nonpayable",
      "type": "function"
    },
    {
      "inputs": [
        {
          "internalType": "address",
          "name": "newOwner",
          "type": "address"
        }
      ],
      "name": "transferOwnership",
      "outputs": [],
      "stateMutability": "nonpayable",
      "type": "function"
    },
    {
      "inputs": [
        {
          "internalType": "address",
          "name": "",
          "type": "address"
        }
      ],
      "name": "userMintCount",
      "outputs": [
        {
          "internalType": "uint256",
          "name": "",
          "type": "uint256"
        }
      ],
      "stateMutability": "view",
      "type": "function",
      "constant": true
    },
    {
      "inputs": [
        {
          "internalType": "address",
          "name": "",
          "type": "address"
        }
      ],
      "name": "userMintRoleCount",
      "outputs": [
        {
          "internalType": "uint256",
          "name": "",
          "type": "uint256"
        }
      ],
      "stateMutability": "view",
      "type": "function",
      "constant": true
    },
    {
      "inputs": [
        {
          "internalType": "uint256",
          "name": "numberOfNfts",
          "type": "uint256"
        }
      ],
      "name": "mintNFT",
      "outputs": [
        {
          "internalType": "bool[]",
          "name": "results",
          "type": "bool[]"
        }
      ],
      "stateMutability": "payable",
      "type": "function",
      "payable": true
    },
    {
      "inputs": [
        {
          "internalType": "uint256[]",
          "name": "tokenIds",
          "type": "uint256[]"
        },
        {
          "internalType": "address",
          "name": "to",
          "type": "address"
        }
      ],
      "name": "mintWithRole",
      "outputs": [
        {
          "internalType": "bool[]",
          "name": "results",
          "type": "bool[]"
        }
      ],
      "stateMutability": "payable",
      "type": "function",
      "payable": true
    },
    {
      "inputs": [],
      "name": "shareholdersWithdraw",
      "outputs": [],
      "stateMutability": "nonpayable",
      "type": "function"
    },
    {
      "inputs": [],
      "name": "getPriceList",
      "outputs": [
        {
          "internalType": "uint256[4]",
          "name": "",
          "type": "uint256[4]"
        }
      ],
      "stateMutability": "view",
      "type": "function",
      "constant": true
    },
    {
      "inputs": [],
      "name": "getMintRolePrice",
      "outputs": [
        {
          "internalType": "uint256",
          "name": "",
          "type": "uint256"
        }
      ],
      "stateMutability": "view",
      "type": "function",
      "constant": true
    },
    {
      "inputs": [],
      "name": "getCurrentPrice",
      "outputs": [
        {
          "internalType": "uint256",
          "name": "",
          "type": "uint256"
        }
      ],
      "stateMutability": "view",
      "type": "function",
      "constant": true
    },
    {
      "inputs": [],
      "name": "remainingNFT",
      "outputs": [
        {
          "internalType": "uint256",
          "name": "result",
          "type": "uint256"
        }
      ],
      "stateMutability": "view",
      "type": "function",
      "constant": true
    },
    {
      "inputs": [
        {
          "internalType": "uint256",
          "name": "_mintPhase",
          "type": "uint256"
        }
      ],
      "name": "setMintPhase",
      "outputs": [],
      "stateMutability": "nonpayable",
      "type": "function"
    },
    {
      "inputs": [
        {
          "internalType": "uint256",
          "name": "_mintRewards",
          "type": "uint256"
        }
      ],
      "name": "setMintRewards",
      "outputs": [],
      "stateMutability": "nonpayable",
      "type": "function"
    },
    {
      "inputs": [
        {
          "internalType": "address[]",
          "name": "accounts",
          "type": "address[]"
        },
        {
          "internalType": "uint256[]",
          "name": "rates",
          "type": "uint256[]"
        }
      ],
      "name": "setShareInfo",
      "outputs": [],
      "stateMutability": "nonpayable",
      "type": "function"
    },
    {
      "inputs": [
        {
          "internalType": "uint256",
          "name": "numberOfNfts",
          "type": "uint256"
        },
        {
          "internalType": "address",
          "name": "to",
          "type": "address"
        }
      ],
      "name": "ownerMint",
      "outputs": [],
      "stateMutability": "nonpayable",
      "type": "function"
    },
    {
      "inputs": [
        {
          "internalType": "string",
          "name": "baseURI_",
          "type": "string"
        }
      ],
      "name": "setBaseURI",
      "outputs": [],
      "stateMutability": "nonpayable",
      "type": "function"
    },
    {
      "inputs": [
        {
          "internalType": "uint256[4]",
          "name": "priceList_",
          "type": "uint256[4]"
        }
      ],
      "name": "updatePriceList",
      "outputs": [],
      "stateMutability": "nonpayable",
      "type": "function"
    },
    {
      "inputs": [
        {
          "internalType": "address",
          "name": "erc20Address",
          "type": "address"
        },
        {
          "internalType": "address payable",
          "name": "recipient",
          "type": "address"
        },
        {
          "internalType": "uint256",
          "name": "amount",
          "type": "uint256"
        }
      ],
      "name": "ownerWithdraw",
      "outputs": [],
      "stateMutability": "nonpayable",
      "type": "function"
    },
    {
      "inputs": [],
      "name": "checkBalances",
      "outputs": [
        {
          "internalType": "uint256",
          "name": "balance",
          "type": "uint256"
        }
      ],
      "stateMutability": "view",
      "type": "function",
      "constant": true
    }
  ],
  "bytecode": "0x608060405269d3c21bcecceda1000000600f5560006010556000601155604051806101400160405280600060ff168152602001600060ff168152602001600060ff168152602001600060ff168152602001600060ff168152602001600060ff168152602001600060ff168152602001600060ff168152602001600060ff168152602001600060ff16815250601290600a6200009c9291906200065c565b50604051806101400160405280600060ff168152602001600160ff168152602001600260ff168152602001600360ff168152602001600460ff168152602001600560ff168152602001600660ff168152602001600760ff168152602001600860ff168152602001600960ff16815250601c90600a6200011d929190620006a6565b506040518060800160405280600068ffffffffffffffffff1681526020016825f273933db570000068ffffffffffffffffff168152602001684be4e7267b6ae0000068ffffffffffffffffff168152602001600068ffffffffffffffffff16815250601d90600462000191929190620006fd565b503480156200019f57600080fd5b506040518060400160405280600b81526020017f506978656c2050756666730000000000000000000000000000000000000000008152506040518060400160405280600a81526020017f504958454c50554646530000000000000000000000000000000000000000000081525060006200021e620003bb60201b60201c565b9050806000806101000a81548173ffffffffffffffffffffffffffffffffffffffff021916908373ffffffffffffffffffffffffffffffffffffffff1602179055508073ffffffffffffffffffffffffffffffffffffffff16600073ffffffffffffffffffffffffffffffffffffffff167f8be0079c531659141344cd1fd0a4f28419497f9722a3daafe3b4186f6b6457e060405160405180910390a350620002d46301ffc9a760e01b620003c360201b60201c565b8160089080519060200190620002ec9291906200074f565b508060099080519060200190620003059291906200074f565b506200031e6380ac58cd60e01b620003c360201b60201c565b62000336635b5e139f60e01b620003c360201b60201c565b6200034e63780e9d6360e01b620003c360201b60201c565b5050620003746000801b62000368620003bb60201b60201c565b620004cd60201b60201c565b620003b57f9f2df0fed2c77648de5860a4cc508cd0818c85b8b8a1ab4ceeef8d981c8956a6620003a9620003bb60201b60201c565b620004cd60201b60201c565b620007f5565b600033905090565b63ffffffff60e01b817bffffffffffffffffffffffffffffffffffffffffffffffffffffffff1916141562000460576040517f08c379a000000000000000000000000000000000000000000000000000000000815260040180806020018281038252601c8152602001807f4552433136353a20696e76616c696420696e746572666163652069640000000081525060200191505060405180910390fd5b600160026000837bffffffffffffffffffffffffffffffffffffffffffffffffffffffff19167bffffffffffffffffffffffffffffffffffffffffffffffffffffffff1916815260200190815260200160002060006101000a81548160ff02191690831515021790555050565b620004df8282620004e360201b60201c565b5050565b6200051281600160008581526020019081526020016000206000016200058760201b62003d9a1790919060201c565b15620005835762000528620003bb60201b60201c565b73ffffffffffffffffffffffffffffffffffffffff168173ffffffffffffffffffffffffffffffffffffffff16837f2f8788117e7eff1d82e926ec794901d17c78024a50270940304540a733656f0d60405160405180910390a45b5050565b6000620005b7836000018373ffffffffffffffffffffffffffffffffffffffff1660001b620005bf60201b60201c565b905092915050565b6000620005d383836200063960201b60201c565b6200062e57826000018290806001815401808255809150506001900390600052602060002001600090919091909150558260000180549050836001016000848152602001908152602001600020819055506001905062000633565b600090505b92915050565b600080836001016000848152602001908152602001600020541415905092915050565b82600a810192821562000693579160200282015b8281111562000692578251829060ff1690559160200191906001019062000670565b5b509050620006a29190620007d6565b5090565b828054828255906000526020600020908101928215620006ea579160200282015b82811115620006e9578251829060ff16905591602001919060010190620006c7565b5b509050620006f99190620007d6565b5090565b82600481019282156200073c579160200282015b828111156200073b578251829068ffffffffffffffffff1690559160200191906001019062000711565b5b5090506200074b9190620007d6565b5090565b828054600181600116156101000203166002900490600052602060002090601f016020900481019282601f106200079257805160ff1916838001178555620007c3565b82800160010185558215620007c3579182015b82811115620007c2578251825591602001919060010190620007a5565b5b509050620007d29190620007d6565b5090565b5b80821115620007f1576000816000905550600101620007d7565b5090565b61589680620008056000396000f3fe6080604052600436106102c95760003560e01c8063715018a611610175578063b88d4fde116100dc578063d52c57e011610095578063d6fb650c1161006f578063d6fb650c146115ad578063e985e9c5146115e8578063eb91d37e1461166f578063f2fde38b1461169a576102c9565b8063d52c57e0146114cc578063d539139314611527578063d547741f14611552576102c9565b8063b88d4fde146111c9578063bcd1a931146112db578063c87b56dd146112f2578063ca15c873146113a6578063ca23cc89146113f5578063cf7c8d991461145a576102c9565b806395d89b411161012e57806395d89b4114610eda5780639e241e8514610f6a5780639ee8282214610f95578063a217fddf146110ee578063a22cb46514611119578063b702914414611176576102c9565b8063715018a614610ce45780638da5cb5b14610cfb5780639010d07c14610d3c57806391d1485414610dab5780639264274414610e1c578063943431bf14610e9f576102c9565b80632bcaa0e2116102345780634b03d422116101ed57806355f804b3116101c757806355f804b314610ac25780636352211e14610b8a5780636c0360eb14610bef57806370a0823114610c7f576102c9565b80634b03d42214610a1d5780634e1473c114610a485780634f6ccce714610a73576102c9565b80632bcaa0e21461079d5780632f2ff15d146108185780632f745c591461087357806336568abe146108e25780633950891f1461093d57806342842e0e146109a2576102c9565b806317881cbf1161028657806317881cbf1461062757806318160ddd146106525780631c96731a1461067d578063234cb051146106a857806323b872dd146106d3578063248a9ca31461074e576102c9565b806301ffc9a7146102ce578063054de1ed1461033e57806306fdde031461046b578063081812fc146104fb578063095ea7b314610560578063110ca285146105bb575b600080fd5b3480156102da57600080fd5b50610326600480360360208110156102f157600080fd5b8101908080357bffffffffffffffffffffffffffffffffffffffffffffffffffffffff191690602001909291905050506116eb565b60405180821515815260200191505060405180910390f35b6104146004803603604081101561035457600080fd5b810190808035906020019064010000000081111561037157600080fd5b82018360208201111561038357600080fd5b803590602001918460208302840111640100000000831117156103a557600080fd5b919080806020026020016040519081016040528093929190818152602001838360200280828437600081840152601f19601f820116905080830192505050505050509192919290803573ffffffffffffffffffffffffffffffffffffffff169060200190929190505050611753565b6040518080602001828103825283818151815260200191508051906020019060200280838360005b8381101561045757808201518184015260208101905061043c565b505050509050019250505060405180910390f35b34801561047757600080fd5b50610480611a25565b6040518080602001828103825283818151815260200191508051906020019080838360005b838110156104c05780820151818401526020810190506104a5565b50505050905090810190601f1680156104ed5780820380516001836020036101000a031916815260200191505b509250505060405180910390f35b34801561050757600080fd5b506105346004803603602081101561051e57600080fd5b8101908080359060200190929190505050611ac7565b604051808273ffffffffffffffffffffffffffffffffffffffff16815260200191505060405180910390f35b34801561056c57600080fd5b506105b96004803603604081101561058357600080fd5b81019080803573ffffffffffffffffffffffffffffffffffffffff16906020019092919080359060200190929190505050611b62565b005b3480156105c757600080fd5b5061060a600480360360208110156105de57600080fd5b81019080803573ffffffffffffffffffffffffffffffffffffffff169060200190929190505050611ca6565b604051808381526020018281526020019250505060405180910390f35b34801561063357600080fd5b5061063c611cca565b6040518082815260200191505060405180910390f35b34801561065e57600080fd5b50610667611cd0565b6040518082815260200191505060405180910390f35b34801561068957600080fd5b50610692611ce1565b6040518082815260200191505060405180910390f35b3480156106b457600080fd5b506106bd611d1a565b6040518082815260200191505060405180910390f35b3480156106df57600080fd5b5061074c600480360360608110156106f657600080fd5b81019080803573ffffffffffffffffffffffffffffffffffffffff169060200190929190803573ffffffffffffffffffffffffffffffffffffffff16906020019092919080359060200190929190505050611d20565b005b34801561075a57600080fd5b506107876004803603602081101561077157600080fd5b8101908080359060200190929190505050611d96565b6040518082815260200191505060405180910390f35b3480156107a957600080fd5b50610816600480360360608110156107c057600080fd5b81019080803573ffffffffffffffffffffffffffffffffffffffff169060200190929190803573ffffffffffffffffffffffffffffffffffffffff16906020019092919080359060200190929190505050611db6565b005b34801561082457600080fd5b506108716004803603604081101561083b57600080fd5b8101908080359060200190929190803573ffffffffffffffffffffffffffffffffffffffff1690602001909291905050506121d4565b005b34801561087f57600080fd5b506108cc6004803603604081101561089657600080fd5b81019080803573ffffffffffffffffffffffffffffffffffffffff1690602001909291908035906020019092919050505061225e565b6040518082815260200191505060405180910390f35b3480156108ee57600080fd5b5061093b6004803603604081101561090557600080fd5b8101908080359060200190929190803573ffffffffffffffffffffffffffffffffffffffff1690602001909291905050506122b9565b005b34801561094957600080fd5b5061098c6004803603602081101561096057600080fd5b81019080803573ffffffffffffffffffffffffffffffffffffffff169060200190929190505050612352565b6040518082815260200191505060405180910390f35b3480156109ae57600080fd5b50610a1b600480360360608110156109c557600080fd5b81019080803573ffffffffffffffffffffffffffffffffffffffff169060200190929190803573ffffffffffffffffffffffffffffffffffffffff1690602001909291908035906020019092919050505061236a565b005b348015610a2957600080fd5b50610a3261238a565b6040518082815260200191505060405180910390f35b348015610a5457600080fd5b50610a5d6123a1565b6040518082815260200191505060405180910390f35b348015610a7f57600080fd5b50610aac60048036036020811015610a9657600080fd5b81019080803590602001909291905050506123a7565b6040518082815260200191505060405180910390f35b348015610ace57600080fd5b50610b8860048036036020811015610ae557600080fd5b8101908080359060200190640100000000811115610b0257600080fd5b820183602082011115610b1457600080fd5b80359060200191846001830284011164010000000083111715610b3657600080fd5b91908080601f016020809104026020016040519081016040528093929190818152602001838380828437600081840152601f19601f8201169050808301925050505050505091929192905050506123ca565b005b348015610b9657600080fd5b50610bc360048036036020811015610bad57600080fd5b8101908080359060200190929190505050612485565b604051808273ffffffffffffffffffffffffffffffffffffffff16815260200191505060405180910390f35b348015610bfb57600080fd5b50610c046124bc565b6040518080602001828103825283818151815260200191508051906020019080838360005b83811015610c44578082015181840152602081019050610c29565b50505050905090810190601f168015610c715780820380516001836020036101000a031916815260200191505b509250505060405180910390f35b348015610c8b57600080fd5b50610cce60048036036020811015610ca257600080fd5b81019080803573ffffffffffffffffffffffffffffffffffffffff16906020019092919050505061255e565b6040518082815260200191505060405180910390f35b348015610cf057600080fd5b50610cf9612633565b005b348015610d0757600080fd5b50610d106127a0565b604051808273ffffffffffffffffffffffffffffffffffffffff16815260200191505060405180910390f35b348015610d4857600080fd5b50610d7f60048036036040811015610d5f57600080fd5b8101908080359060200190929190803590602001909291905050506127c9565b604051808273ffffffffffffffffffffffffffffffffffffffff16815260200191505060405180910390f35b348015610db757600080fd5b50610e0460048036036040811015610dce57600080fd5b8101908080359060200190929190803573ffffffffffffffffffffffffffffffffffffffff1690602001909291905050506127fb565b60405180821515815260200191505060405180910390f35b610e4860048036036020811015610e3257600080fd5b810190808035906020019092919050505061282d565b6040518080602001828103825283818151815260200191508051906020019060200280838360005b83811015610e8b578082015181840152602081019050610e70565b505050509050019250505060405180910390f35b348015610eab57600080fd5b50610ed860048036036020811015610ec257600080fd5b8101908080359060200190929190505050612b6e565b005b348015610ee657600080fd5b50610eef612c27565b6040518080602001828103825283818151815260200191508051906020019080838360005b83811015610f2f578082015181840152602081019050610f14565b50505050905090810190601f168015610f5c5780820380516001836020036101000a031916815260200191505b509250505060405180910390f35b348015610f7657600080fd5b50610f7f612cc9565b6040518082815260200191505060405180910390f35b348015610fa157600080fd5b506110ec60048036036040811015610fb857600080fd5b8101908080359060200190640100000000811115610fd557600080fd5b820183602082011115610fe757600080fd5b8035906020019184602083028401116401000000008311171561100957600080fd5b919080806020026020016040519081016040528093929190818152602001838360200280828437600081840152601f19601f8201169050808301925050505050505091929192908035906020019064010000000081111561106957600080fd5b82018360208201111561107b57600080fd5b8035906020019184602083028401116401000000008311171561109d57600080fd5b919080806020026020016040519081016040528093929190818152602001838360200280828437600081840152601f19601f820116905080830192505050505050509192919290505050612d80565b005b3480156110fa57600080fd5b50611103612eba565b6040518082815260200191505060405180910390f35b34801561112557600080fd5b506111746004803603604081101561113c57600080fd5b81019080803573ffffffffffffffffffffffffffffffffffffffff169060200190929190803515159060200190929190505050612ec1565b005b34801561118257600080fd5b5061118b613077565b6040518082600460200280838360005b838110156111b657808201518184015260208101905061119b565b5050505090500191505060405180910390f35b3480156111d557600080fd5b506112d9600480360360808110156111ec57600080fd5b81019080803573ffffffffffffffffffffffffffffffffffffffff169060200190929190803573ffffffffffffffffffffffffffffffffffffffff169060200190929190803590602001909291908035906020019064010000000081111561125357600080fd5b82018360208201111561126557600080fd5b8035906020019184600183028401116401000000008311171561128757600080fd5b91908080601f016020809104026020016040519081016040528093929190818152602001838380828437600081840152601f19601f8201169050808301925050505050505091929192905050506130c2565b005b3480156112e757600080fd5b506112f061313a565b005b3480156112fe57600080fd5b5061132b6004803603602081101561131557600080fd5b81019080803590602001909291905050506134bd565b6040518080602001828103825283818151815260200191508051906020019080838360005b8381101561136b578082015181840152602081019050611350565b50505050905090810190601f1680156113985780820380516001836020036101000a031916815260200191505b509250505060405180910390f35b3480156113b257600080fd5b506113df600480360360208110156113c957600080fd5b810190808035906020019092919050505061378e565b6040518082815260200191505060405180910390f35b34801561140157600080fd5b506114446004803603602081101561141857600080fd5b81019080803573ffffffffffffffffffffffffffffffffffffffff1690602001909291905050506137b5565b6040518082815260200191505060405180910390f35b34801561146657600080fd5b506114ca6004803603608081101561147d57600080fd5b8101908080608001906004806020026040519081016040528092919082600460200280828437600081840152601f19601f82011690508083019250505050505091929192905050506137cd565b005b3480156114d857600080fd5b50611525600480360360408110156114ef57600080fd5b8101908080359060200190929190803573ffffffffffffffffffffffffffffffffffffffff169060200190929190505050613891565b005b34801561153357600080fd5b5061153c613995565b6040518082815260200191505060405180910390f35b34801561155e57600080fd5b506115ab6004803603604081101561157557600080fd5b8101908080359060200190929190803573ffffffffffffffffffffffffffffffffffffffff1690602001909291905050506139b9565b005b3480156115b957600080fd5b506115e6600480360360208110156115d057600080fd5b8101908080359060200190929190505050613a43565b005b3480156115f457600080fd5b506116576004803603604081101561160b57600080fd5b81019080803573ffffffffffffffffffffffffffffffffffffffff169060200190929190803573ffffffffffffffffffffffffffffffffffffffff169060200190929190505050613afc565b60405180821515815260200191505060405180910390f35b34801561167b57600080fd5b50611684613b90565b6040518082815260200191505060405180910390f35b3480156116a657600080fd5b506116e9600480360360208110156116bd57600080fd5b81019080803573ffffffffffffffffffffffffffffffffffffffff169060200190929190505050613ba8565b005b600060026000837bffffffffffffffffffffffffffffffffffffffffffffffffffffffff19167bffffffffffffffffffffffffffffffffffffffffffffffffffffffff1916815260200190815260200160002060009054906101000a900460ff169050919050565b60606003601054146117cd576040517f08c379a00000000000000000000000000000000000000000000000000000000081526004018080602001828103825260028152602001807f453400000000000000000000000000000000000000000000000000000000000081525060200191505060405180910390fd5b6117fe7f9f2df0fed2c77648de5860a4cc508cd0818c85b8b8a1ab4ceeef8d981c8956a66117f9613dca565b6127fb565b611870576040517f08c379a00000000000000000000000000000000000000000000000000000000081526004018080602001828103825260028152602001807f453100000000000000000000000000000000000000000000000000000000000081525060200191505060405180910390fd5b825167ffffffffffffffff8111801561188857600080fd5b506040519080825280602002602001820160405280156118b75781602001602082028036833780820191505090505b509050600034905060006118c961238a565b905060005b85518110156119c457818310156118e4576119c4565b600015156119048783815181106118f757fe5b6020026020010151613dd2565b151514156119b7576119298587838151811061191c57fe5b6020026020010151613def565b6000821115611948576119458284613e0d90919063ffffffff16565b92505b6001600e60008773ffffffffffffffffffffffffffffffffffffffff1673ffffffffffffffffffffffffffffffffffffffff1681526020019081526020016000206000828254019250508190555060018482815181106119a457fe5b6020026020010190151590811515815250505b80806001019150506118ce565b506000821115611a1d576119d6613dca565b73ffffffffffffffffffffffffffffffffffffffff166108fc839081150290604051600060405180830381858888f19350505050158015611a1b573d6000803e3d6000fd5b505b505092915050565b606060088054600181600116156101000203166002900480601f016020809104026020016040519081016040528092919081815260200182805460018160011615610100020316600290048015611abd5780601f10611a9257610100808354040283529160200191611abd565b820191906000526020600020905b815481529060010190602001808311611aa057829003601f168201915b5050505050905090565b6000611ad282613dd2565b611b27576040517f08c379a000000000000000000000000000000000000000000000000000000000815260040180806020018281038252602c81526020018061575c602c913960400191505060405180910390fd5b6006600083815260200190815260200160002060009054906101000a900473ffffffffffffffffffffffffffffffffffffffff169050919050565b6000611b6d82612485565b90508073ffffffffffffffffffffffffffffffffffffffff168373ffffffffffffffffffffffffffffffffffffffff161415611bf4576040517f08c379a00000000000000000000000000000000000000000000000000000000081526004018080602001828103825260218152602001806157e06021913960400191505060405180910390fd5b8073ffffffffffffffffffffffffffffffffffffffff16611c13613dca565b73ffffffffffffffffffffffffffffffffffffffff161480611c425750611c4181611c3c613dca565b613afc565b5b611c97576040517f08c379a00000000000000000000000000000000000000000000000000000000081526004018080602001828103825260388152602001806156af6038913960400191505060405180910390fd5b611ca18383613e90565b505050565b600c6020528060005260406000206000915090508060000154908060010154905082565b60105481565b6000611cdc6004613f49565b905090565b600080600090505b600a811015611d1657601281600a8110611cff57fe5b01546103e803820191508080600101915050611ce9565b5090565b600f5481565b611d31611d2b613dca565b82613f5e565b611d86576040517f08c379a00000000000000000000000000000000000000000000000000000000081526004018080602001828103825260318152602001806158016031913960400191505060405180910390fd5b611d91838383614052565b505050565b600060016000838152602001908152602001600020600201549050919050565b611dbe613dca565b73ffffffffffffffffffffffffffffffffffffffff16611ddc6127a0565b73ffffffffffffffffffffffffffffffffffffffff1614611e65576040517f08c379a00000000000000000000000000000000000000000000000000000000081526004018080602001828103825260208152602001807f4f776e61626c653a2063616c6c6572206973206e6f7420746865206f776e657281525060200191505060405180910390fd5b600073ffffffffffffffffffffffffffffffffffffffff168273ffffffffffffffffffffffffffffffffffffffff1614158015611ece57503073ffffffffffffffffffffffffffffffffffffffff168273ffffffffffffffffffffffffffffffffffffffff1614155b611f40576040517f08c379a00000000000000000000000000000000000000000000000000000000081526004018080602001828103825260028152602001807f453200000000000000000000000000000000000000000000000000000000000081525060200191505060405180910390fd5b600073ffffffffffffffffffffffffffffffffffffffff168373ffffffffffffffffffffffffffffffffffffffff161415611fcd5747811115611f81574790505b8173ffffffffffffffffffffffffffffffffffffffff166108fc829081150290604051600060405180830381858888f19350505050158015611fc7573d6000803e3d6000fd5b506121cf565b60008390508073ffffffffffffffffffffffffffffffffffffffff166370a08231306040518263ffffffff1660e01b8152600401808273ffffffffffffffffffffffffffffffffffffffff16815260200191505060206040518083038186803b15801561203957600080fd5b505afa15801561204d573d6000803e3d6000fd5b505050506040513d602081101561206357600080fd5b8101908080519060200190929190505050821115612120578073ffffffffffffffffffffffffffffffffffffffff166370a08231306040518263ffffffff1660e01b8152600401808273ffffffffffffffffffffffffffffffffffffffff16815260200191505060206040518083038186803b1580156120e257600080fd5b505afa1580156120f6573d6000803e3d6000fd5b505050506040513d602081101561210c57600080fd5b810190808051906020019092919050505091505b8073ffffffffffffffffffffffffffffffffffffffff1663a9059cbb84846040518363ffffffff1660e01b8152600401808373ffffffffffffffffffffffffffffffffffffffff16815260200182815260200192505050602060405180830381600087803b15801561219157600080fd5b505af11580156121a5573d6000803e3d6000fd5b505050506040513d60208110156121bb57600080fd5b810190808051906020019092919050505050505b505050565b6121fb60016000848152602001908152602001600020600201546121f6613dca565b6127fb565b612250576040517f08c379a000000000000000000000000000000000000000000000000000000000815260040180806020018281038252602f815260200180615582602f913960400191505060405180910390fd5b61225a8282614295565b5050565b60006122b182600360008673ffffffffffffffffffffffffffffffffffffffff1673ffffffffffffffffffffffffffffffffffffffff16815260200190815260200160002061432990919063ffffffff16565b905092915050565b6122c1613dca565b73ffffffffffffffffffffffffffffffffffffffff168173ffffffffffffffffffffffffffffffffffffffff1614612344576040517f08c379a000000000000000000000000000000000000000000000000000000000815260040180806020018281038252602f815260200180615832602f913960400191505060405180910390fd5b61234e8282614343565b5050565b600d6020528060005260406000206000915090505481565b612385838383604051806020016040528060008152506130c2565b505050565b6000601d60036004811061239a57fe5b0154905090565b60115481565b6000806123be8360046143d790919063ffffffff16565b50905080915050919050565b6123d2613dca565b73ffffffffffffffffffffffffffffffffffffffff166123f06127a0565b73ffffffffffffffffffffffffffffffffffffffff1614612479576040517f08c379a00000000000000000000000000000000000000000000000000000000081526004018080602001828103825260208152602001807f4f776e61626c653a2063616c6c6572206973206e6f7420746865206f776e657281525060200191505060405180910390fd5b61248281614403565b50565b60006124b58260405180606001604052806029815260200161571160299139600461441d9092919063ffffffff16565b9050919050565b6060600b8054600181600116156101000203166002900480601f0160208091040260200160405190810160405280929190818152602001828054600181600116156101000203166002900480156125545780601f1061252957610100808354040283529160200191612554565b820191906000526020600020905b81548152906001019060200180831161253757829003601f168201915b5050505050905090565b60008073ffffffffffffffffffffffffffffffffffffffff168273ffffffffffffffffffffffffffffffffffffffff1614156125e5576040517f08c379a000000000000000000000000000000000000000000000000000000000815260040180806020018281038252602a8152602001806156e7602a913960400191505060405180910390fd5b61262c600360008473ffffffffffffffffffffffffffffffffffffffff1673ffffffffffffffffffffffffffffffffffffffff16815260200190815260200160002061443c565b9050919050565b61263b613dca565b73ffffffffffffffffffffffffffffffffffffffff166126596127a0565b73ffffffffffffffffffffffffffffffffffffffff16146126e2576040517f08c379a00000000000000000000000000000000000000000000000000000000081526004018080602001828103825260208152602001807f4f776e61626c653a2063616c6c6572206973206e6f7420746865206f776e657281525060200191505060405180910390fd5b600073ffffffffffffffffffffffffffffffffffffffff1660008054906101000a900473ffffffffffffffffffffffffffffffffffffffff1673ffffffffffffffffffffffffffffffffffffffff167f8be0079c531659141344cd1fd0a4f28419497f9722a3daafe3b4186f6b6457e060405160405180910390a360008060006101000a81548173ffffffffffffffffffffffffffffffffffffffff021916908373ffffffffffffffffffffffffffffffffffffffff160217905550565b60008060009054906101000a900473ffffffffffffffffffffffffffffffffffffffff16905090565b60006127f3826001600086815260200190815260200160002060000161445190919063ffffffff16565b905092915050565b6000612825826001600086815260200190815260200160002060000161446b90919063ffffffff16565b905092915050565b60606001601054101580156128455750600260105411155b6128b7576040517f08c379a00000000000000000000000000000000000000000000000000000000081526004018080602001828103825260028152602001807f453400000000000000000000000000000000000000000000000000000000000081525060200191505060405180910390fd5b60016010541415612983576000600d60006128d0613dca565b73ffffffffffffffffffffffffffffffffffffffff1673ffffffffffffffffffffffffffffffffffffffff168152602001908152602001600020541461297e576040517f08c379a00000000000000000000000000000000000000000000000000000000081526004018080602001828103825260028152602001807f453500000000000000000000000000000000000000000000000000000000000081525060200191505060405180910390fd5b600191505b8167ffffffffffffffff8111801561299a57600080fd5b506040519080825280602002602001820160405280156129c95781602001602082028036833780820191505090505b509050600034905060006129db613b90565b905060005b84811015612b0e57818310156129f557612b0e565b6000612a008261449b565b90506000811480612a165750612a1581613dd2565b5b15612a215750612b01565b612a32612a2c613dca565b82613def565b826011600082825401925050819055506000831115612a6157612a5e8385613e0d90919063ffffffff16565b93505b6001600d6000612a6f613dca565b73ffffffffffffffffffffffffffffffffffffffff1673ffffffffffffffffffffffffffffffffffffffff168152602001908152602001600020600082825401925050819055506001601054148015612ad157506103e8612ace611cd0565b10155b15612adf5760026010819055505b6001858381518110612aed57fe5b602002602001019015159081151581525050505b80806001019150506129e0565b506000821115612b6757612b20613dca565b73ffffffffffffffffffffffffffffffffffffffff166108fc839081150290604051600060405180830381858888f19350505050158015612b65573d6000803e3d6000fd5b505b5050919050565b612b76613dca565b73ffffffffffffffffffffffffffffffffffffffff16612b946127a0565b73ffffffffffffffffffffffffffffffffffffffff1614612c1d576040517f08c379a00000000000000000000000000000000000000000000000000000000081526004018080602001828103825260208152602001807f4f776e61626c653a2063616c6c6572206973206e6f7420746865206f776e657281525060200191505060405180910390fd5b8060108190555050565b606060098054600181600116156101000203166002900480601f016020809104026020016040519081016040528092919081815260200182805460018160011615610100020316600290048015612cbf5780601f10612c9457610100808354040283529160200191612cbf565b820191906000526020600020905b815481529060010190602001808311612ca257829003601f168201915b5050505050905090565b6000612cd3613dca565b73ffffffffffffffffffffffffffffffffffffffff16612cf16127a0565b73ffffffffffffffffffffffffffffffffffffffff1614612d7a576040517f08c379a00000000000000000000000000000000000000000000000000000000081526004018080602001828103825260208152602001807f4f776e61626c653a2063616c6c6572206973206e6f7420746865206f776e657281525060200191505060405180910390fd5b47905090565b612d88613dca565b73ffffffffffffffffffffffffffffffffffffffff16612da66127a0565b73ffffffffffffffffffffffffffffffffffffffff1614612e2f576040517f08c379a00000000000000000000000000000000000000000000000000000000081526004018080602001828103825260208152602001807f4f776e61626c653a2063616c6c6572206973206e6f7420746865206f776e657281525060200191505060405180910390fd5b60005b8251811015612eb557818181518110612e4757fe5b6020026020010151600c6000858481518110612e5f57fe5b602002602001015173ffffffffffffffffffffffffffffffffffffffff1673ffffffffffffffffffffffffffffffffffffffff168152602001908152602001600020600101819055508080600101915050612e32565b505050565b6000801b81565b612ec9613dca565b73ffffffffffffffffffffffffffffffffffffffff168273ffffffffffffffffffffffffffffffffffffffff161415612f6a576040517f08c379a00000000000000000000000000000000000000000000000000000000081526004018080602001828103825260198152602001807f4552433732313a20617070726f766520746f2063616c6c65720000000000000081525060200191505060405180910390fd5b8060076000612f77613dca565b73ffffffffffffffffffffffffffffffffffffffff1673ffffffffffffffffffffffffffffffffffffffff16815260200190815260200160002060008473ffffffffffffffffffffffffffffffffffffffff1673ffffffffffffffffffffffffffffffffffffffff16815260200190815260200160002060006101000a81548160ff0219169083151502179055508173ffffffffffffffffffffffffffffffffffffffff16613024613dca565b73ffffffffffffffffffffffffffffffffffffffff167f17307eab39ab6107e8899845ad3d59bd9653f200f220920489ca2b5937696c318360405180821515815260200191505060405180910390a35050565b61307f615460565b601d6004806020026040519081016040528092919082600480156130b8576020028201915b8154815260200190600101908083116130a4575b5050505050905090565b6130d36130cd613dca565b83613f5e565b613128576040517f08c379a00000000000000000000000000000000000000000000000000000000081526004018080602001828103825260318152602001806158016031913960400191505060405180910390fd5b6131348484848461460e565b50505050565b6064601054146131b2576040517f08c379a00000000000000000000000000000000000000000000000000000000081526004018080602001828103825260028152602001807f453600000000000000000000000000000000000000000000000000000000000081525060200191505060405180910390fd5b600f546011541161322b576040517f08c379a00000000000000000000000000000000000000000000000000000000081526004018080602001828103825260028152602001807f453700000000000000000000000000000000000000000000000000000000000081525060200191505060405180910390fd5b6000600c6000613239613dca565b73ffffffffffffffffffffffffffffffffffffffff1673ffffffffffffffffffffffffffffffffffffffff168152602001908152602001600020600101549050600081116132ef576040517f08c379a00000000000000000000000000000000000000000000000000000000081526004018080602001828103825260028152602001807f453800000000000000000000000000000000000000000000000000000000000081525060200191505060405180910390fd5b6000600f546011540390506000620186a08383028161330a57fe5b049050600c6000613319613dca565b73ffffffffffffffffffffffffffffffffffffffff1673ffffffffffffffffffffffffffffffffffffffff1681526020019081526020016000206000015481116133cb576040517f08c379a00000000000000000000000000000000000000000000000000000000081526004018080602001828103825260028152602001807f453900000000000000000000000000000000000000000000000000000000000081525060200191505060405180910390fd5b6000600c60006133d9613dca565b73ffffffffffffffffffffffffffffffffffffffff1673ffffffffffffffffffffffffffffffffffffffff168152602001908152602001600020600001548203905081600c6000613428613dca565b73ffffffffffffffffffffffffffffffffffffffff1673ffffffffffffffffffffffffffffffffffffffff16815260200190815260200160002060000181905550613471613dca565b73ffffffffffffffffffffffffffffffffffffffff166108fc829081150290604051600060405180830381858888f193505050501580156134b6573d6000803e3d6000fd5b5050505050565b60606134c882613dd2565b61351d576040517f08c379a000000000000000000000000000000000000000000000000000000000815260040180806020018281038252602f8152602001806157b1602f913960400191505060405180910390fd5b6060600a60008481526020019081526020016000208054600181600116156101000203166002900480601f0160208091040260200160405190810160405280929190818152602001828054600181600116156101000203166002900480156135c65780601f1061359b576101008083540402835291602001916135c6565b820191906000526020600020905b8154815290600101906020018083116135a957829003601f168201915b5050505050905060606135d76124bc565b90506000815114156135ed578192505050613789565b6000825111156136be5780826040516020018083805190602001908083835b6020831061362f578051825260208201915060208101905060208303925061360c565b6001836020036101000a03801982511681845116808217855250505050505090500182805190602001908083835b60208310613680578051825260208201915060208101905060208303925061365d565b6001836020036101000a0380198251168184511680821785525050505050509050019250505060405160208183030381529060405292505050613789565b806136c885614680565b6040516020018083805190602001908083835b602083106136fe57805182526020820191506020810190506020830392506136db565b6001836020036101000a03801982511681845116808217855250505050505090500182805190602001908083835b6020831061374f578051825260208201915060208101905060208303925061372c565b6001836020036101000a03801982511681845116808217855250505050505090500192505050604051602081830303815290604052925050505b919050565b60006137ae600160008481526020019081526020016000206000016147c7565b9050919050565b600e6020528060005260406000206000915090505481565b6137d5613dca565b73ffffffffffffffffffffffffffffffffffffffff166137f36127a0565b73ffffffffffffffffffffffffffffffffffffffff161461387c576040517f08c379a00000000000000000000000000000000000000000000000000000000081526004018080602001828103825260208152602001807f4f776e61626c653a2063616c6c6572206973206e6f7420746865206f776e657281525060200191505060405180910390fd5b80601d90600461388d929190615482565b5050565b613899613dca565b73ffffffffffffffffffffffffffffffffffffffff166138b76127a0565b73ffffffffffffffffffffffffffffffffffffffff1614613940576040517f08c379a00000000000000000000000000000000000000000000000000000000081526004018080602001828103825260208152602001807f4f776e61626c653a2063616c6c6572206973206e6f7420746865206f776e657281525060200191505060405180910390fd5b60005b828110156139905760006139568261449b565b9050600081148061396c575061396b81613dd2565b5b156139775750613983565b6139818382613def565b505b8080600101915050613943565b505050565b7f9f2df0fed2c77648de5860a4cc508cd0818c85b8b8a1ab4ceeef8d981c8956a681565b6139e060016000848152602001908152602001600020600201546139db613dca565b6127fb565b613a35576040517f08c379a000000000000000000000000000000000000000000000000000000000815260040180806020018281038252603081526020018061567f6030913960400191505060405180910390fd5b613a3f8282614343565b5050565b613a4b613dca565b73ffffffffffffffffffffffffffffffffffffffff16613a696127a0565b73ffffffffffffffffffffffffffffffffffffffff1614613af2576040517f08c379a00000000000000000000000000000000000000000000000000000000081526004018080602001828103825260208152602001807f4f776e61626c653a2063616c6c6572206973206e6f7420746865206f776e657281525060200191505060405180910390fd5b80600f8190555050565b6000600760008473ffffffffffffffffffffffffffffffffffffffff1673ffffffffffffffffffffffffffffffffffffffff16815260200190815260200160002060008373ffffffffffffffffffffffffffffffffffffffff1673ffffffffffffffffffffffffffffffffffffffff16815260200190815260200160002060009054906101000a900460ff16905092915050565b6000601d60105460048110613ba157fe5b0154905090565b613bb0613dca565b73ffffffffffffffffffffffffffffffffffffffff16613bce6127a0565b73ffffffffffffffffffffffffffffffffffffffff1614613c57576040517f08c379a00000000000000000000000000000000000000000000000000000000081526004018080602001828103825260208152602001807f4f776e61626c653a2063616c6c6572206973206e6f7420746865206f776e657281525060200191505060405180910390fd5b600073ffffffffffffffffffffffffffffffffffffffff168173ffffffffffffffffffffffffffffffffffffffff161415613cdd576040517f08c379a00000000000000000000000000000000000000000000000000000000081526004018080602001828103825260268152602001806155e36026913960400191505060405180910390fd5b8073ffffffffffffffffffffffffffffffffffffffff1660008054906101000a900473ffffffffffffffffffffffffffffffffffffffff1673ffffffffffffffffffffffffffffffffffffffff167f8be0079c531659141344cd1fd0a4f28419497f9722a3daafe3b4186f6b6457e060405160405180910390a3806000806101000a81548173ffffffffffffffffffffffffffffffffffffffff021916908373ffffffffffffffffffffffffffffffffffffffff16021790555050565b6000613dc2836000018373ffffffffffffffffffffffffffffffffffffffff1660001b6147dc565b905092915050565b600033905090565b6000613de882600461484c90919063ffffffff16565b9050919050565b613e09828260405180602001604052806000815250614866565b5050565b600082821115613e85576040517f08c379a000000000000000000000000000000000000000000000000000000000815260040180806020018281038252601e8152602001807f536166654d6174683a207375627472616374696f6e206f766572666c6f77000081525060200191505060405180910390fd5b818303905092915050565b816006600083815260200190815260200160002060006101000a81548173ffffffffffffffffffffffffffffffffffffffff021916908373ffffffffffffffffffffffffffffffffffffffff160217905550808273ffffffffffffffffffffffffffffffffffffffff16613f0383612485565b73ffffffffffffffffffffffffffffffffffffffff167f8c5be1e5ebec7d5bd14f71427d1e84f3dd0314c0f7b2291e5b200ac8c7c3b92560405160405180910390a45050565b6000613f57826000016148d7565b9050919050565b6000613f6982613dd2565b613fbe576040517f08c379a000000000000000000000000000000000000000000000000000000000815260040180806020018281038252602c815260200180615653602c913960400191505060405180910390fd5b6000613fc983612485565b90508073ffffffffffffffffffffffffffffffffffffffff168473ffffffffffffffffffffffffffffffffffffffff16148061403857508373ffffffffffffffffffffffffffffffffffffffff1661402084611ac7565b73ffffffffffffffffffffffffffffffffffffffff16145b8061404957506140488185613afc565b5b91505092915050565b8273ffffffffffffffffffffffffffffffffffffffff1661407282612485565b73ffffffffffffffffffffffffffffffffffffffff16146140de576040517f08c379a00000000000000000000000000000000000000000000000000000000081526004018080602001828103825260298152602001806157886029913960400191505060405180910390fd5b600073ffffffffffffffffffffffffffffffffffffffff168273ffffffffffffffffffffffffffffffffffffffff161415614164576040517f08c379a00000000000000000000000000000000000000000000000000000000081526004018080602001828103825260248152602001806156096024913960400191505060405180910390fd5b61416f8383836148e8565b61417a600082613e90565b6141cb81600360008673ffffffffffffffffffffffffffffffffffffffff1673ffffffffffffffffffffffffffffffffffffffff1681526020019081526020016000206148ed90919063ffffffff16565b5061421d81600360008573ffffffffffffffffffffffffffffffffffffffff1673ffffffffffffffffffffffffffffffffffffffff16815260200190815260200160002061490790919063ffffffff16565b50614234818360046149219092919063ffffffff16565b50808273ffffffffffffffffffffffffffffffffffffffff168473ffffffffffffffffffffffffffffffffffffffff167fddf252ad1be2c89b69c2b068fc378daa952ba7f163c4a11628f55a4df523b3ef60405160405180910390a4505050565b6142bd8160016000858152602001908152602001600020600001613d9a90919063ffffffff16565b15614325576142ca613dca565b73ffffffffffffffffffffffffffffffffffffffff168173ffffffffffffffffffffffffffffffffffffffff16837f2f8788117e7eff1d82e926ec794901d17c78024a50270940304540a733656f0d60405160405180910390a45b5050565b60006143388360000183614956565b60001c905092915050565b61436b81600160008581526020019081526020016000206000016149d990919063ffffffff16565b156143d357614378613dca565b73ffffffffffffffffffffffffffffffffffffffff168173ffffffffffffffffffffffffffffffffffffffff16837ff6391f5c32d9c69d2a47ea670b442974b53935d1edc7fd64eb21e047a839171b60405160405180910390a45b5050565b6000806000806143ea8660000186614a09565b915091508160001c8160001c9350935050509250929050565b80600b90805190602001906144199291906154c2565b5050565b6000614430846000018460001b84614aa2565b60001c90509392505050565b600061444a82600001614b98565b9050919050565b60006144608360000183614956565b60001c905092915050565b6000614493836000018373ffffffffffffffffffffffffffffffffffffffff1660001b614ba9565b905092915050565b600080601c80549050905060008114156144b9576000915050614609565b600081844201604051602001808281526020019150506040516020818303038152906040528051906020012060001c816144ef57fe5b06905060006103e8601c838154811061450457fe5b9060005260206000200154026012601c848154811061451f57fe5b9060005260206000200154600a811061453457fe5b015401905060016012601c848154811061454a57fe5b9060005260206000200154600a811061455f57fe5b01600082825401925050819055506103e86012601c848154811061457f57fe5b9060005260206000200154600a811061459457fe5b0154106145ff57600183038210156145dd57601c60018403815481106145b657fe5b9060005260206000200154601c83815481106145ce57fe5b90600052602060002001819055505b601c8054806145e857fe5b600190038181906000526020600020016000905590555b6001810193505050505b919050565b614619848484614052565b61462584848484614bcc565b61467a576040517f08c379a00000000000000000000000000000000000000000000000000000000081526004018080602001828103825260328152602001806155b16032913960400191505060405180910390fd5b50505050565b606060008214156146c8576040518060400160405280600181526020017f300000000000000000000000000000000000000000000000000000000000000081525090506147c2565b600082905060005b600082146146f2578080600101915050600a82816146ea57fe5b0491506146d0565b60608167ffffffffffffffff8111801561470b57600080fd5b506040519080825280601f01601f19166020018201604052801561473e5781602001600182028036833780820191505090505b50905060006001830390508593505b600084146147ba57600a848161475f57fe5b0660300160f81b8282806001900393508151811061477957fe5b60200101907effffffffffffffffffffffffffffffffffffffffffffffffffffffffffffff1916908160001a905350600a84816147b257fe5b04935061474d565b819450505050505b919050565b60006147d582600001614b98565b9050919050565b60006147e88383614ba9565b614841578260000182908060018154018082558091505060019003906000526020600020016000909190919091505582600001805490508360010160008481526020019081526020016000208190555060019050614846565b600090505b92915050565b600061485e836000018360001b614de5565b905092915050565b6148708383614e08565b61487d6000848484614bcc565b6148d2576040517f08c379a00000000000000000000000000000000000000000000000000000000081526004018080602001828103825260328152602001806155b16032913960400191505060405180910390fd5b505050565b600081600001805490509050919050565b505050565b60006148ff836000018360001b614ffc565b905092915050565b6000614919836000018360001b6147dc565b905092915050565b600061494d846000018460001b8473ffffffffffffffffffffffffffffffffffffffff1660001b6150e4565b90509392505050565b6000818360000180549050116149b7576040517f08c379a00000000000000000000000000000000000000000000000000000000081526004018080602001828103825260228152602001806155606022913960400191505060405180910390fd5b8260000182815481106149c657fe5b9060005260206000200154905092915050565b6000614a01836000018373ffffffffffffffffffffffffffffffffffffffff1660001b614ffc565b905092915050565b60008082846000018054905011614a6b576040517f08c379a000000000000000000000000000000000000000000000000000000000815260040180806020018281038252602281526020018061573a6022913960400191505060405180910390fd5b6000846000018481548110614a7c57fe5b906000526020600020906002020190508060000154816001015492509250509250929050565b60008084600101600085815260200190815260200160002054905060008114158390614b69576040517f08c379a00000000000000000000000000000000000000000000000000000000081526004018080602001828103825283818151815260200191508051906020019080838360005b83811015614b2e578082015181840152602081019050614b13565b50505050905090810190601f168015614b5b5780820380516001836020036101000a031916815260200191505b509250505060405180910390fd5b50846000016001820381548110614b7c57fe5b9060005260206000209060020201600101549150509392505050565b600081600001805490509050919050565b600080836001016000848152602001908152602001600020541415905092915050565b6000614bed8473ffffffffffffffffffffffffffffffffffffffff166151c0565b614bfa5760019050614ddd565b6060614d6463150b7a0260e01b614c0f613dca565b888787604051602401808573ffffffffffffffffffffffffffffffffffffffff1681526020018473ffffffffffffffffffffffffffffffffffffffff16815260200183815260200180602001828103825283818151815260200191508051906020019080838360005b83811015614c93578082015181840152602081019050614c78565b50505050905090810190601f168015614cc05780820380516001836020036101000a031916815260200191505b5095505050505050604051602081830303815290604052907bffffffffffffffffffffffffffffffffffffffffffffffffffffffff19166020820180517bffffffffffffffffffffffffffffffffffffffffffffffffffffffff83818316178352505050506040518060600160405280603281526020016155b1603291398773ffffffffffffffffffffffffffffffffffffffff166151d39092919063ffffffff16565b90506000818060200190516020811015614d7d57600080fd5b8101908080519060200190929190505050905063150b7a0260e01b7bffffffffffffffffffffffffffffffffffffffffffffffffffffffff1916817bffffffffffffffffffffffffffffffffffffffffffffffffffffffff191614925050505b949350505050565b600080836001016000848152602001908152602001600020541415905092915050565b600073ffffffffffffffffffffffffffffffffffffffff168273ffffffffffffffffffffffffffffffffffffffff161415614eab576040517f08c379a00000000000000000000000000000000000000000000000000000000081526004018080602001828103825260208152602001807f4552433732313a206d696e7420746f20746865207a65726f206164647265737381525060200191505060405180910390fd5b614eb481613dd2565b15614f27576040517f08c379a000000000000000000000000000000000000000000000000000000000815260040180806020018281038252601c8152602001807f4552433732313a20746f6b656e20616c7265616479206d696e7465640000000081525060200191505060405180910390fd5b614f33600083836148e8565b614f8481600360008573ffffffffffffffffffffffffffffffffffffffff1673ffffffffffffffffffffffffffffffffffffffff16815260200190815260200160002061490790919063ffffffff16565b50614f9b818360046149219092919063ffffffff16565b50808273ffffffffffffffffffffffffffffffffffffffff16600073ffffffffffffffffffffffffffffffffffffffff167fddf252ad1be2c89b69c2b068fc378daa952ba7f163c4a11628f55a4df523b3ef60405160405180910390a45050565b600080836001016000848152602001908152602001600020549050600081146150d8576000600182039050600060018660000180549050039050600086600001828154811061504757fe5b906000526020600020015490508087600001848154811061506457fe5b906000526020600020018190555060018301876001016000838152602001908152602001600020819055508660000180548061509c57fe5b600190038181906000526020600020016000905590558660010160008781526020019081526020016000206000905560019450505050506150de565b60009150505b92915050565b600080846001016000858152602001908152602001600020549050600081141561518b578460000160405180604001604052808681526020018581525090806001815401808255809150506001900390600052602060002090600202016000909190919091506000820151816000015560208201518160010155505084600001805490508560010160008681526020019081526020016000208190555060019150506151b9565b8285600001600183038154811061519e57fe5b90600052602060002090600202016001018190555060009150505b9392505050565b600080823b905060008111915050919050565b60606151e284846000856151eb565b90509392505050565b606082471015615246576040517f08c379a000000000000000000000000000000000000000000000000000000000815260040180806020018281038252602681526020018061562d6026913960400191505060405180910390fd5b61524f856151c0565b6152c1576040517f08c379a000000000000000000000000000000000000000000000000000000000815260040180806020018281038252601d8152602001807f416464726573733a2063616c6c20746f206e6f6e2d636f6e747261637400000081525060200191505060405180910390fd5b600060608673ffffffffffffffffffffffffffffffffffffffff1685876040518082805190602001908083835b6020831061531157805182526020820191506020810190506020830392506152ee565b6001836020036101000a03801982511681845116808217855250505050505090500191505060006040518083038185875af1925050503d8060008114615373576040519150601f19603f3d011682016040523d82523d6000602084013e615378565b606091505b5091509150615388828286615394565b92505050949350505050565b606083156153a457829050615459565b6000835111156153b75782518084602001fd5b816040517f08c379a00000000000000000000000000000000000000000000000000000000081526004018080602001828103825283818151815260200191508051906020019080838360005b8381101561541e578082015181840152602081019050615403565b50505050905090810190601f16801561544b5780820380516001836020036101000a031916815260200191505b509250505060405180910390fd5b9392505050565b6040518060800160405280600490602082028036833780820191505090505090565b82600481019282156154b1579160200282015b828111156154b0578251825591602001919060010190615495565b5b5090506154be9190615542565b5090565b828054600181600116156101000203166002900490600052602060002090601f016020900481019282601f1061550357805160ff1916838001178555615531565b82800160010185558215615531579182015b82811115615530578251825591602001919060010190615515565b5b50905061553e9190615542565b5090565b5b8082111561555b576000816000905550600101615543565b509056fe456e756d657261626c655365743a20696e646578206f7574206f6620626f756e6473416363657373436f6e74726f6c3a2073656e646572206d75737420626520616e2061646d696e20746f206772616e744552433732313a207472616e7366657220746f206e6f6e20455243373231526563656976657220696d706c656d656e7465724f776e61626c653a206e6577206f776e657220697320746865207a65726f20616464726573734552433732313a207472616e7366657220746f20746865207a65726f2061646472657373416464726573733a20696e73756666696369656e742062616c616e636520666f722063616c6c4552433732313a206f70657261746f7220717565727920666f72206e6f6e6578697374656e7420746f6b656e416363657373436f6e74726f6c3a2073656e646572206d75737420626520616e2061646d696e20746f207265766f6b654552433732313a20617070726f76652063616c6c6572206973206e6f74206f776e6572206e6f7220617070726f76656420666f7220616c6c4552433732313a2062616c616e636520717565727920666f7220746865207a65726f20616464726573734552433732313a206f776e657220717565727920666f72206e6f6e6578697374656e7420746f6b656e456e756d657261626c654d61703a20696e646578206f7574206f6620626f756e64734552433732313a20617070726f76656420717565727920666f72206e6f6e6578697374656e7420746f6b656e4552433732313a207472616e73666572206f6620746f6b656e2074686174206973206e6f74206f776e4552433732314d657461646174613a2055524920717565727920666f72206e6f6e6578697374656e7420746f6b656e4552433732313a20617070726f76616c20746f2063757272656e74206f776e65724552433732313a207472616e736665722063616c6c6572206973206e6f74206f776e6572206e6f7220617070726f766564416363657373436f6e74726f6c3a2063616e206f6e6c792072656e6f756e636520726f6c657320666f722073656c66a26469706673582212205883dad4bb55393b4b0a533bf2a58c9fd4ba93680a04ce8c251a92e3d073540664736f6c63430007000033",
  "immutableReferences": {},
  "source": "// SPDX-License-Identifier: MIT\r\npragma solidity >=0.6.0 <0.8.0;\r\n// pragma experimental ABIEncoderV2;\r\n/*\r\nimport \"https://github.com/OpenZeppelin/openzeppelin-contracts/blob/v3.4.0/contracts/access/Ownable.sol\"; // @ [import: Context]\r\nimport \"https://github.com/OpenZeppelin/openzeppelin-contracts/blob/v3.4.0/contracts/access/AccessControl.sol\"; // @ [import: Address, Context]\r\nimport \"https://github.com/OpenZeppelin/openzeppelin-contracts/blob/v3.4.0/contracts/token/ERC721/ERC721.sol\"; // @ [import: Address, Context, Strings, SafeMath]\r\n*/\r\nimport \"@openzeppelin/contracts/access/Ownable.sol\"; // @ [import: Context]\r\nimport \"@openzeppelin/contracts/access/AccessControl.sol\"; // @ [import: Address, Context]\r\nimport \"@openzeppelin/contracts/token/ERC721/ERC721.sol\"; // @ [import: Address, Context, Strings, SafeMath]\r\n\r\n// openzeppelin-contracts/v3.4.0\r\ninterface IERC20 {\r\n    // event Transfer(address indexed from, address indexed to, uint256 value);\r\n    // event Approval(address indexed owner, address indexed spender, uint256 value);\r\n    // function totalSupply() external view returns (uint256);\r\n    function balanceOf(address account) external view returns (uint256);\r\n    function transfer(address recipient, uint256 amount) external returns (bool);\r\n    // function allowance(address owner, address spender) external view returns (uint256);\r\n    // function approve(address spender, uint256 amount) external returns (bool);\r\n    // function transferFrom(address sender, address recipient, uint256 amount) external returns (bool);\r\n    // function permit(address owner, address spender, uint256 value, uint256 deadline, uint8 v, bytes32 r, bytes32 s) external; VPU\r\n}\r\n\r\ncontract PixelPuffs is Context, Ownable, AccessControl, ERC721 {\r\n    using SafeMath for uint256;\r\n    \r\n    //\r\n    struct Share {\r\n        uint256 hasWithdrawn; // s tin  rt\r\n        uint256 rate; // t l: 1000 <=> 1%\r\n    }\r\n    // account address => Share\r\n    mapping(address => Share) public shareAccountMap;\r\n\r\n    bytes32 public constant MINTER_ROLE = keccak256(\"MINTER_ROLE\");\r\n    mapping (address => uint256) public userMintCount; // for Airdrop\r\n    mapping (address => uint256) public userMintRoleCount; // for Airdrop\r\n    uint256 public mintRewards = 1_000_000e18; // 1 million VET\r\n    uint256 public mintPhase = 0;\r\n    uint256 public revenuePhaseAB = 0; // revenue Phase 1, 2\r\n\r\n    // for randomized tokenId\r\n    uint256[10] private nft_index = [0, 0, 0, 0, 0, 0, 0, 0, 0, 0];\r\n    uint256[] private nft_index_exists = [0, 1, 2, 3, 4, 5, 6, 7, 8, 9];\r\n    uint256 private constant nft_per_colum = 1000; // 1000\r\n    uint256 private constant startId = 1; // tokenId start fron 1\r\n    //\r\n    uint256[4] private _priceList = [0, 700e18, 1400e18, 0]; // [0, 700e18, 1400e18, 0]\r\n    \r\n    \r\n    // ----------------------------------------------------------------------------\r\n    constructor() ERC721(\"Pixel Puffs\", \"PIXELPUFFS\") {\r\n        _setupRole(DEFAULT_ADMIN_ROLE, _msgSender());\r\n        _setupRole(MINTER_ROLE, _msgSender());\r\n    }\r\n\r\n\r\n    // ----------------------------------------------------------------------------\r\n    // Write Contract\r\n    // ----------------------------------------------------------------------------\r\n    // @\r\n    function mintNFT(uint256 numberOfNfts) external payable returns (bool[] memory results) {\r\n        require(mintPhase >= 1 && mintPhase <= 2, \"E4\");\r\n        if (mintPhase == 1) {\r\n            require(userMintCount[_msgSender()] == 0, \"E5\");\r\n            numberOfNfts = 1;\r\n        }\r\n        results = new bool[](numberOfNfts);\r\n        \r\n        uint256 sendAmount = msg.value;\r\n        uint256 currPrice = getCurrentPrice();\r\n\r\n        for (uint i = 0; i < numberOfNfts; i++) {\r\n            if (sendAmount < currPrice) break;\r\n            uint256 tokenId = _getNextNFTIndex(i);\r\n            if (tokenId == 0 || _exists(tokenId)) continue;\r\n            _safeMint(_msgSender(), tokenId);\r\n            revenuePhaseAB += currPrice;\r\n            if (currPrice > 0) sendAmount = sendAmount.sub(currPrice);\r\n            userMintCount[_msgSender()] += 1;\r\n            if (mintPhase == 1 && totalSupply() >= 1000) mintPhase = 2;\r\n            results[i] = true;\r\n        }\r\n        if (sendAmount > 0) _msgSender().transfer(sendAmount);\r\n    }\r\n    // @\r\n    function mintWithRole(uint256[] memory tokenIds, address to) external payable returns (bool[] memory results) {\r\n        require(mintPhase == 3, \"E4\"); // v tokenIds t do khng lu vo nft_index\r\n        require(hasRole(MINTER_ROLE, _msgSender()), \"E1\");// E1 = ERC721: must have minter role\r\n        // require(to != address(0), \"ERC721: mint to the zero address\"); // no need to check because ERC721 checked\r\n    \r\n        results = new bool[](tokenIds.length);\r\n        uint256 sendAmount = msg.value;\r\n        uint256 currPrice = getMintRolePrice();\r\n\r\n        for (uint i = 0; i < tokenIds.length; i++) {\r\n            if (sendAmount < currPrice) break;\r\n            if (_exists(tokenIds[i]) == false) {\r\n                _safeMint(to, tokenIds[i]);\r\n                if (currPrice > 0) sendAmount = sendAmount.sub(currPrice);\r\n                userMintRoleCount[to] += 1;\r\n                results[i] = true;\r\n            }\r\n        }\r\n        if (sendAmount > 0) _msgSender().transfer(sendAmount);\r\n    }\r\n    // @\r\n    function shareholdersWithdraw() public {\r\n        require(mintPhase == 100, \"E6\");\r\n        require(revenuePhaseAB > mintRewards, \"E7\");\r\n        uint256 rate = shareAccountMap[_msgSender()].rate;\r\n        require(rate > 0, \"E8\");\r\n        uint256 remaining = revenuePhaseAB - mintRewards;\r\n        uint256 available = remaining * rate / 100000;\r\n        require(available > shareAccountMap[_msgSender()].hasWithdrawn, \"E9\");\r\n        uint256 available2 = available - shareAccountMap[_msgSender()].hasWithdrawn;\r\n        shareAccountMap[_msgSender()].hasWithdrawn = available;\r\n        _msgSender().transfer(available2);\r\n    }\r\n    // ----------------------------------------------------------------------------\r\n    // end Write Contract\r\n    // ----------------------------------------------------------------------------\r\n\r\n\r\n\r\n    // ----------------------------------------------------------------------------\r\n    // internal|private Contract\r\n    // ----------------------------------------------------------------------------\r\n    // @\r\n    function _getNextNFTIndex(uint256 nonce) private returns (uint256) {\r\n        uint256 length = nft_index_exists.length;\r\n        if (length == 0) return 0;\r\n        uint256 colum_index = uint256 (keccak256(abi.encodePacked(block.timestamp + nonce))) % length;\r\n        uint256 p_index = nft_index[nft_index_exists[colum_index]] + nft_index_exists[colum_index] * nft_per_colum;\r\n        nft_index[nft_index_exists[colum_index]] += 1;\r\n        \r\n        if (nft_index[nft_index_exists[colum_index]] >= nft_per_colum){\r\n            if (colum_index < length - 1) {\r\n                nft_index_exists[colum_index] = nft_index_exists[length - 1];\r\n            }\r\n            nft_index_exists.pop();\r\n        }\r\n        return (p_index + startId);\r\n    }\r\n    // ----------------------------------------------------------------------------\r\n    // end internal|private Contract\r\n    // ----------------------------------------------------------------------------\r\n\r\n\r\n\r\n    // ----------------------------------------------------------------------------\r\n    // Read Contract\r\n    // ----------------------------------------------------------------------------\r\n    // @\r\n    function getPriceList() public view returns (uint256[4] memory) {\r\n        return _priceList;\r\n    }\r\n    // @\r\n    function getMintRolePrice() public view returns (uint256) {\r\n        return _priceList[3];\r\n    }\r\n    // @\r\n    function getCurrentPrice() public view returns (uint256) {\r\n        return _priceList[mintPhase];\r\n    }\r\n    // @\r\n    function remainingNFT() public view returns (uint256 result) {\r\n        for (uint i = 0; i < nft_index.length; i++) {\r\n            result += nft_per_colum - nft_index[i];\r\n        }\r\n    }\r\n    // ----------------------------------------------------------------------------\r\n    // end Read Contract\r\n    // ----------------------------------------------------------------------------\r\n\r\n\r\n    \r\n    // ----------------------------------------------------------------------------\r\n    // onlyOwner Write Contract\r\n    // ----------------------------------------------------------------------------\r\n    // @\r\n    function setMintPhase(uint256 _mintPhase) public onlyOwner {\r\n        mintPhase = _mintPhase;\r\n    }\r\n    // @\r\n    function setMintRewards(uint256 _mintRewards) public onlyOwner {\r\n        mintRewards = _mintRewards;\r\n    }\r\n    // @\r\n    function setShareInfo(address[] memory accounts, uint256[] memory rates) external onlyOwner {\r\n        for (uint i = 0; i < accounts.length; i++) {\r\n            shareAccountMap[accounts[i]].rate = rates[i];\r\n        }\r\n    }\r\n    // @\r\n    function ownerMint(uint256 numberOfNfts, address to) external onlyOwner {\r\n        for (uint i = 0; i < numberOfNfts; i++) {\r\n            uint256 tokenId = _getNextNFTIndex(i);\r\n            if (tokenId == 0 || _exists(tokenId)) continue;\r\n            _safeMint(to, tokenId);\r\n            // userMintCount[_msgSender()] += 1; // khng add v nh hng n Airdrop\r\n        }\r\n    }\r\n    // @\r\n    function setBaseURI(string memory baseURI_) external onlyOwner {\r\n        _setBaseURI(baseURI_);\r\n    }\r\n    // @\r\n    function updatePriceList(uint256[4] memory priceList_) external onlyOwner {\r\n        _priceList = priceList_;\r\n    }\r\n    // @\r\n    function ownerWithdraw(address erc20Address, address payable recipient, uint256 amount) external onlyOwner {\r\n        require(recipient != address(0) && recipient != address(this), \"E2\");\r\n        // require(amount > 0, \"E\"); // tit kim gas\r\n        if (erc20Address == address(0)) { // native token\r\n            if (amount > address(this).balance) amount = address(this).balance;\r\n            recipient.transfer(amount);\r\n        } else { // erc20 token\r\n            IERC20 erc20Contract = IERC20(erc20Address);\r\n            if (amount > erc20Contract.balanceOf(address(this))) amount = erc20Contract.balanceOf(address(this));\r\n            erc20Contract.transfer(recipient, amount);\r\n        }\r\n    }\r\n    /*\r\n    function setTokenURI(uint tokenId, string memory _tokenURI) public onlyOwner {\r\n        _setTokenURI(tokenId, _tokenURI);\r\n    }\r\n    function burnToken(uint tokenId) public onlyOwner {\r\n        require(ERC721.ownerOf(tokenId) == _msgSender(), \"ERC721: sender must be an admin to grant\");\r\n        _burn(tokenId);\r\n    }*/\r\n    // ----------------------------------------------------------------------------\r\n    // end onlyOwner Write Contract\r\n    // ----------------------------------------------------------------------------\r\n\r\n\r\n\r\n    // ----------------------------------------------------------------------------\r\n    // onlyOwner Read Contract\r\n    // ----------------------------------------------------------------------------\r\n    // @\r\n    function checkBalances() onlyOwner public view returns (uint256 balance) {\r\n        balance = address(this).balance;\r\n    }\r\n    // ----------------------------------------------------------------------------\r\n    // end onlyOwner Read Contract\r\n    // ----------------------------------------------------------------------------\r\n}",
  "sourcePath": "C:/Working/Blockchain/Vechain/0_tvt/Vpunks/contracts/PixelPuffs.sol",
  "compiler": {
    "name": "solc",
    "version": "0.7.0+commit.9e61f92b.Emscripten.clang"
  },
  "schemaVersion": "3.3.3",
  "updatedAt": "2021-11-18T01:57:28.116Z",
  "networkType": "ethereum",
  "devdoc": {
    "kind": "dev",
    "methods": {
      "approve(address,uint256)": {
        "details": "See {IERC721-approve}."
      },
      "balanceOf(address)": {
        "details": "See {IERC721-balanceOf}."
      },
      "baseURI()": {
        "details": "Returns the base URI set via {_setBaseURI}. This will be automatically added as a prefix in {tokenURI} to each token's URI, or to the token ID if no specific URI is set for that token ID."
      },
      "getApproved(uint256)": {
        "details": "See {IERC721-getApproved}."
      },
      "getRoleAdmin(bytes32)": {
        "details": "Returns the admin role that controls `role`. See {grantRole} and {revokeRole}. To change a role's admin, use {_setRoleAdmin}."
      },
      "getRoleMember(bytes32,uint256)": {
        "details": "Returns one of the accounts that have `role`. `index` must be a value between 0 and {getRoleMemberCount}, non-inclusive. Role bearers are not sorted in any particular way, and their ordering may change at any point. WARNING: When using {getRoleMember} and {getRoleMemberCount}, make sure you perform all queries on the same block. See the following https://forum.openzeppelin.com/t/iterating-over-elements-on-enumerableset-in-openzeppelin-contracts/2296[forum post] for more information."
      },
      "getRoleMemberCount(bytes32)": {
        "details": "Returns the number of accounts that have `role`. Can be used together with {getRoleMember} to enumerate all bearers of a role."
      },
      "grantRole(bytes32,address)": {
        "details": "Grants `role` to `account`. If `account` had not been already granted `role`, emits a {RoleGranted} event. Requirements: - the caller must have ``role``'s admin role."
      },
      "hasRole(bytes32,address)": {
        "details": "Returns `true` if `account` has been granted `role`."
      },
      "isApprovedForAll(address,address)": {
        "details": "See {IERC721-isApprovedForAll}."
      },
      "name()": {
        "details": "See {IERC721Metadata-name}."
      },
      "owner()": {
        "details": "Returns the address of the current owner."
      },
      "ownerOf(uint256)": {
        "details": "See {IERC721-ownerOf}."
      },
      "renounceOwnership()": {
        "details": "Leaves the contract without owner. It will not be possible to call `onlyOwner` functions anymore. Can only be called by the current owner. NOTE: Renouncing ownership will leave the contract without an owner, thereby removing any functionality that is only available to the owner."
      },
      "renounceRole(bytes32,address)": {
        "details": "Revokes `role` from the calling account. Roles are often managed via {grantRole} and {revokeRole}: this function's purpose is to provide a mechanism for accounts to lose their privileges if they are compromised (such as when a trusted device is misplaced). If the calling account had been granted `role`, emits a {RoleRevoked} event. Requirements: - the caller must be `account`."
      },
      "revokeRole(bytes32,address)": {
        "details": "Revokes `role` from `account`. If `account` had been granted `role`, emits a {RoleRevoked} event. Requirements: - the caller must have ``role``'s admin role."
      },
      "safeTransferFrom(address,address,uint256)": {
        "details": "See {IERC721-safeTransferFrom}."
      },
      "safeTransferFrom(address,address,uint256,bytes)": {
        "details": "See {IERC721-safeTransferFrom}."
      },
      "setApprovalForAll(address,bool)": {
        "details": "See {IERC721-setApprovalForAll}."
      },
      "supportsInterface(bytes4)": {
        "details": "See {IERC165-supportsInterface}. Time complexity O(1), guaranteed to always use less than 30 000 gas."
      },
      "symbol()": {
        "details": "See {IERC721Metadata-symbol}."
      },
      "tokenByIndex(uint256)": {
        "details": "See {IERC721Enumerable-tokenByIndex}."
      },
      "tokenOfOwnerByIndex(address,uint256)": {
        "details": "See {IERC721Enumerable-tokenOfOwnerByIndex}."
      },
      "tokenURI(uint256)": {
        "details": "See {IERC721Metadata-tokenURI}."
      },
      "totalSupply()": {
        "details": "See {IERC721Enumerable-totalSupply}."
      },
      "transferFrom(address,address,uint256)": {
        "details": "See {IERC721-transferFrom}."
      },
      "transferOwnership(address)": {
        "details": "Transfers ownership of the contract to a new account (`newOwner`). Can only be called by the current owner."
      }
    },
    "version": 1
  },
  "userdoc": {
    "kind": "user",
    "methods": {},
    "version": 1
  }
}