{
  "contractName": "TupleTest2",
  "abi": [
    {
      "inputs": [
        {
          "internalType": "uint256",
          "name": "",
          "type": "uint256"
        }
      ],
      "name": "a",
      "outputs": [
        {
          "internalType": "uint256",
          "name": "a",
          "type": "uint256"
        },
        {
          "internalType": "uint256",
          "name": "b",
          "type": "uint256"
        }
      ],
      "stateMutability": "view",
      "type": "function"
    },
    {
      "inputs": [],
      "name": "b",
      "outputs": [
        {
          "internalType": "uint256",
          "name": "",
          "type": "uint256"
        }
      ],
      "stateMutability": "view",
      "type": "function"
    },
    {
      "inputs": [
        {
          "components": [
            {
              "internalType": "uint256",
              "name": "a",
              "type": "uint256"
            },
            {
              "internalType": "uint256",
              "name": "b",
              "type": "uint256"
            }
          ],
          "internalType": "struct TupleTest2.Input[]",
          "name": "_inputs",
          "type": "tuple[]"
        }
      ],
      "name": "set",
      "outputs": [],
      "stateMutability": "nonpayable",
      "type": "function"
    },
    {
      "inputs": [
        {
          "internalType": "uint256",
          "name": "_inputs",
          "type": "uint256"
        }
      ],
      "name": "set2",
      "outputs": [],
      "stateMutability": "nonpayable",
      "type": "function"
    },
    {
      "inputs": [
        {
          "components": [
            {
              "internalType": "uint256",
              "name": "a",
              "type": "uint256"
            },
            {
              "internalType": "uint256",
              "name": "b",
              "type": "uint256"
            }
          ],
          "internalType": "struct TupleTest2.Input",
          "name": "_inputs",
          "type": "tuple"
        }
      ],
      "name": "set3",
      "outputs": [],
      "stateMutability": "nonpayable",
      "type": "function"
    },
    {
      "inputs": [
        {
          "components": [
            {
              "internalType": "uint256",
              "name": "a",
              "type": "uint256"
            },
            {
              "internalType": "uint256",
              "name": "b",
              "type": "uint256"
            }
          ],
          "internalType": "struct TupleTest2.Input",
          "name": "_inputs",
          "type": "tuple"
        }
      ],
      "name": "set4",
      "outputs": [],
      "stateMutability": "nonpayable",
      "type": "function"
    },
    {
      "inputs": [],
      "name": "getEnergy",
      "outputs": [
        {
          "internalType": "uint256",
          "name": "amount",
          "type": "uint256"
        }
      ],
      "stateMutability": "view",
      "type": "function"
    },
    {
      "inputs": [
        {
          "internalType": "address payable",
          "name": "recipient",
          "type": "address"
        },
        {
          "internalType": "uint256",
          "name": "amount",
          "type": "uint256"
        }
      ],
      "name": "ownerWithdraw",
      "outputs": [],
      "stateMutability": "nonpayable",
      "type": "function"
    },
    {
      "inputs": [],
      "name": "getTimestamp",
      "outputs": [
        {
          "internalType": "uint256",
          "name": "",
          "type": "uint256"
        }
      ],
      "stateMutability": "view",
      "type": "function"
    },
    {
      "inputs": [],
      "name": "getChainId",
      "outputs": [
        {
          "internalType": "uint256",
          "name": "",
          "type": "uint256"
        }
      ],
      "stateMutability": "pure",
      "type": "function"
    }
  ],
  "bytecode": "0x608060405234801561001057600080fd5b5061081e806100206000396000f3fe608060405234801561001057600080fd5b506004361061009e5760003560e01c8063ce01e1ec11610066578063ce01e1ec14610137578063d3fc64f914610153578063d9c88e141461016f578063e78642501461018b578063f0fdf834146101a75761009e565b8063188ec356146100a35780633408e470146100c15780634df7e3d0146100df578063616c597b146100fd578063c02e705714610119575b600080fd5b6100ab6101d8565b6040516100b8919061067a565b60405180910390f35b6100c96101e0565b6040516100d6919061067a565b60405180910390f35b6100e76101ed565b6040516100f4919061067a565b60405180910390f35b6101176004803603810190610112919061058e565b6101f3565b005b610121610201565b60405161012e919061067a565b60405180910390f35b610151600480360381019061014c91906105b7565b610297565b005b61016d6004803603810190610168919061058e565b6102a1565b005b610189600480360381019061018491906104e8565b6102af565b005b6101a560048036038101906101a09190610524565b610347565b005b6101c160048036038101906101bc91906105b7565b6103a1565b6040516101cf929190610695565b60405180910390f35b600042905090565b6000804690508091505090565b60015481565b806020015160018190555050565b600065456e6572677973ffffffffffffffffffffffffffffffffffffffff166370a08231306040518263ffffffff1660e01b81526004016102429190610636565b60206040518083038186803b15801561025a57600080fd5b505afa15801561026e573d6000803e3d6000fd5b505050506040513d601f19601f8201168201806040525081019061029291906105e0565b905090565b8060018190555050565b806000015160018190555050565b65456e6572677973ffffffffffffffffffffffffffffffffffffffff1663a9059cbb83836040518363ffffffff1660e01b81526004016102f0929190610651565b602060405180830381600087803b15801561030a57600080fd5b505af115801561031e573d6000803e3d6000fd5b505050506040513d601f19601f820116820180604052508101906103429190610565565b505050565b60005b815181101561039d5781818151811061035f57fe5b60200260200101516000808381526020019081526020016000206000820151816000015560208201518160010155905050808060010191505061034a565b5050565b60006020528060005260406000206000915090508060000154908060010154905082565b6000813590506103d4816107a3565b92915050565b600082601f8301126103eb57600080fd5b81356103fe6103f9826106eb565b6106be565b9150818183526020840193506020810190508385604084028201111561042357600080fd5b60005b8381101561045357816104398882610472565b845260208401935060408301925050600181019050610426565b5050505092915050565b60008151905061046c816107ba565b92915050565b60006040828403121561048457600080fd5b61048e60406106be565b9050600061049e848285016104be565b60008301525060206104b2848285016104be565b60208301525092915050565b6000813590506104cd816107d1565b92915050565b6000815190506104e2816107d1565b92915050565b600080604083850312156104fb57600080fd5b6000610509858286016103c5565b925050602061051a858286016104be565b9150509250929050565b60006020828403121561053657600080fd5b600082013567ffffffffffffffff81111561055057600080fd5b61055c848285016103da565b91505092915050565b60006020828403121561057757600080fd5b60006105858482850161045d565b91505092915050565b6000604082840312156105a057600080fd5b60006105ae84828501610472565b91505092915050565b6000602082840312156105c957600080fd5b60006105d7848285016104be565b91505092915050565b6000602082840312156105f257600080fd5b6000610600848285016104d3565b91505092915050565b6106128161076d565b82525050565b61062181610713565b82525050565b61063081610763565b82525050565b600060208201905061064b6000830184610618565b92915050565b60006040820190506106666000830185610609565b6106736020830184610627565b9392505050565b600060208201905061068f6000830184610627565b92915050565b60006040820190506106aa6000830185610627565b6106b76020830184610627565b9392505050565b6000604051905081810181811067ffffffffffffffff821117156106e157600080fd5b8060405250919050565b600067ffffffffffffffff82111561070257600080fd5b602082029050602081019050919050565b600061071e82610743565b9050919050565b600061073082610743565b9050919050565b60008115159050919050565b600073ffffffffffffffffffffffffffffffffffffffff82169050919050565b6000819050919050565b60006107788261077f565b9050919050565b600061078a82610791565b9050919050565b600061079c82610743565b9050919050565b6107ac81610725565b81146107b757600080fd5b50565b6107c381610737565b81146107ce57600080fd5b50565b6107da81610763565b81146107e557600080fd5b5056fea2646970667358221220b9bb57eb254e98e4276088d290fcf9e4335bc8bbbd1e4d44b185d1c5e15455c164736f6c63430007000033",
  "immutableReferences": {},
  "source": "// SPDX-License-Identifier: MIT\r\npragma solidity >=0.6.0 <0.8.0;\r\npragma experimental ABIEncoderV2;\r\n\r\nimport \"./energy.sol\";\r\n\r\ncontract TupleTest2 {\r\n    struct Input {\r\n        uint256 a;\r\n        uint256 b;\r\n    }\r\n    \r\n    mapping (uint256 => Input) public a;\r\n    uint256 public b;\r\n    //\r\n    Energy constant energy = Energy(0x0000000000000000000000000000456E65726779); // E not e\r\n\r\n    /// Give a single vote to proposal $(toProposal).\r\n    function set(Input[] memory _inputs) public {\r\n        for (uint i = 0; i < _inputs.length; i++) {\r\n            a[i] = _inputs[i];\r\n        }\r\n    }\r\n    \r\n    function set2(uint256 _inputs) public {\r\n        b = _inputs;\r\n    }\r\n    \r\n    function set3(Input memory _inputs) public {\r\n        b = _inputs.a;\r\n    }\r\n    \r\n    function set4(Input memory _inputs) public {\r\n        b = _inputs.b;\r\n    }\r\n    \r\n    //\r\n    function getEnergy() public view returns(uint256 amount){\r\n        return energy.balanceOf(address(this));\r\n    }\r\n    //\r\n    function ownerWithdraw(address payable recipient, uint256 amount) external {\r\n        energy.transfer(recipient, amount);\r\n    }\r\n    function getTimestamp() public view returns (uint256) {\r\n        return block.timestamp;\r\n    }\r\n\r\n    function getChainId() public pure returns (uint) {\r\n        uint256 chainId;\r\n        assembly { chainId := chainid() }\r\n        return chainId;\r\n    }\r\n}",
  "sourcePath": "C:/Working/Blockchain/Vechain/0_tvt/Vpunks/contracts/Tuple.sol",
  "compiler": {
    "name": "solc",
    "version": "0.7.0+commit.9e61f92b.Emscripten.clang"
  },
  "schemaVersion": "3.3.3",
  "updatedAt": "2021-09-25T01:36:41.549Z",
  "devdoc": {
    "kind": "dev",
    "methods": {},
    "version": 1
  },
  "userdoc": {
    "kind": "user",
    "methods": {
      "set((uint256,uint256)[])": {
        "notice": "Give a single vote to proposal $(toProposal)."
      }
    },
    "version": 1
  }
}