{
  "contractName": "Tuple",
  "abi": [
    {
      "inputs": [
        {
          "internalType": "uint256",
          "name": "",
          "type": "uint256"
        }
      ],
      "name": "a",
      "outputs": [
        {
          "internalType": "uint256",
          "name": "a",
          "type": "uint256"
        },
        {
          "internalType": "uint256",
          "name": "b",
          "type": "uint256"
        }
      ],
      "stateMutability": "view",
      "type": "function"
    },
    {
      "inputs": [],
      "name": "b",
      "outputs": [
        {
          "internalType": "uint256",
          "name": "",
          "type": "uint256"
        }
      ],
      "stateMutability": "view",
      "type": "function"
    },
    {
      "inputs": [
        {
          "components": [
            {
              "internalType": "uint256",
              "name": "a",
              "type": "uint256"
            },
            {
              "internalType": "uint256",
              "name": "b",
              "type": "uint256"
            }
          ],
          "internalType": "struct Tuple.Input[]",
          "name": "_inputs",
          "type": "tuple[]"
        }
      ],
      "name": "set",
      "outputs": [],
      "stateMutability": "nonpayable",
      "type": "function"
    },
    {
      "inputs": [
        {
          "internalType": "uint256",
          "name": "_inputs",
          "type": "uint256"
        }
      ],
      "name": "set2",
      "outputs": [],
      "stateMutability": "nonpayable",
      "type": "function"
    },
    {
      "inputs": [
        {
          "components": [
            {
              "internalType": "uint256",
              "name": "a",
              "type": "uint256"
            },
            {
              "internalType": "uint256",
              "name": "b",
              "type": "uint256"
            }
          ],
          "internalType": "struct Tuple.Input",
          "name": "_inputs",
          "type": "tuple"
        }
      ],
      "name": "set3",
      "outputs": [],
      "stateMutability": "nonpayable",
      "type": "function"
    },
    {
      "inputs": [
        {
          "components": [
            {
              "internalType": "uint256",
              "name": "a",
              "type": "uint256"
            },
            {
              "internalType": "uint256",
              "name": "b",
              "type": "uint256"
            }
          ],
          "internalType": "struct Tuple.Input",
          "name": "_inputs",
          "type": "tuple"
        }
      ],
      "name": "set4",
      "outputs": [],
      "stateMutability": "nonpayable",
      "type": "function"
    },
    {
      "inputs": [],
      "name": "getEnergy",
      "outputs": [
        {
          "internalType": "uint256",
          "name": "amount",
          "type": "uint256"
        }
      ],
      "stateMutability": "view",
      "type": "function"
    },
    {
      "inputs": [
        {
          "internalType": "address payable",
          "name": "recipient",
          "type": "address"
        },
        {
          "internalType": "uint256",
          "name": "amount",
          "type": "uint256"
        }
      ],
      "name": "ownerWithdraw",
      "outputs": [],
      "stateMutability": "nonpayable",
      "type": "function"
    }
  ],
  "bytecode": "0x608060405234801561001057600080fd5b506107b7806100206000396000f3fe608060405234801561001057600080fd5b50600436106100885760003560e01c8063d3fc64f91161005b578063d3fc64f914610101578063d9c88e141461011d578063e786425014610139578063f0fdf8341461015557610088565b80634df7e3d01461008d578063616c597b146100ab578063c02e7057146100c7578063ce01e1ec146100e5575b600080fd5b610095610186565b6040516100a29190610613565b60405180910390f35b6100c560048036038101906100c09190610527565b61018c565b005b6100cf61019a565b6040516100dc9190610613565b60405180910390f35b6100ff60048036038101906100fa9190610550565b610230565b005b61011b60048036038101906101169190610527565b61023a565b005b61013760048036038101906101329190610481565b610248565b005b610153600480360381019061014e91906104bd565b6102e0565b005b61016f600480360381019061016a9190610550565b61033a565b60405161017d92919061062e565b60405180910390f35b60015481565b806020015160018190555050565b600065456e6572677973ffffffffffffffffffffffffffffffffffffffff166370a08231306040518263ffffffff1660e01b81526004016101db91906105cf565b60206040518083038186803b1580156101f357600080fd5b505afa158015610207573d6000803e3d6000fd5b505050506040513d601f19601f8201168201806040525081019061022b9190610579565b905090565b8060018190555050565b806000015160018190555050565b65456e6572677973ffffffffffffffffffffffffffffffffffffffff1663a9059cbb83836040518363ffffffff1660e01b81526004016102899291906105ea565b602060405180830381600087803b1580156102a357600080fd5b505af11580156102b7573d6000803e3d6000fd5b505050506040513d601f19601f820116820180604052508101906102db91906104fe565b505050565b60005b8151811015610336578181815181106102f857fe5b6020026020010151600080838152602001908152602001600020600082015181600001556020820151816001015590505080806001019150506102e3565b5050565b60006020528060005260406000206000915090508060000154908060010154905082565b60008135905061036d8161073c565b92915050565b600082601f83011261038457600080fd5b813561039761039282610684565b610657565b915081818352602084019350602081019050838560408402820111156103bc57600080fd5b60005b838110156103ec57816103d2888261040b565b8452602084019350604083019250506001810190506103bf565b5050505092915050565b60008151905061040581610753565b92915050565b60006040828403121561041d57600080fd5b6104276040610657565b9050600061043784828501610457565b600083015250602061044b84828501610457565b60208301525092915050565b6000813590506104668161076a565b92915050565b60008151905061047b8161076a565b92915050565b6000806040838503121561049457600080fd5b60006104a28582860161035e565b92505060206104b385828601610457565b9150509250929050565b6000602082840312156104cf57600080fd5b600082013567ffffffffffffffff8111156104e957600080fd5b6104f584828501610373565b91505092915050565b60006020828403121561051057600080fd5b600061051e848285016103f6565b91505092915050565b60006040828403121561053957600080fd5b60006105478482850161040b565b91505092915050565b60006020828403121561056257600080fd5b600061057084828501610457565b91505092915050565b60006020828403121561058b57600080fd5b60006105998482850161046c565b91505092915050565b6105ab81610706565b82525050565b6105ba816106ac565b82525050565b6105c9816106fc565b82525050565b60006020820190506105e460008301846105b1565b92915050565b60006040820190506105ff60008301856105a2565b61060c60208301846105c0565b9392505050565b600060208201905061062860008301846105c0565b92915050565b600060408201905061064360008301856105c0565b61065060208301846105c0565b9392505050565b6000604051905081810181811067ffffffffffffffff8211171561067a57600080fd5b8060405250919050565b600067ffffffffffffffff82111561069b57600080fd5b602082029050602081019050919050565b60006106b7826106dc565b9050919050565b60006106c9826106dc565b9050919050565b60008115159050919050565b600073ffffffffffffffffffffffffffffffffffffffff82169050919050565b6000819050919050565b600061071182610718565b9050919050565b60006107238261072a565b9050919050565b6000610735826106dc565b9050919050565b610745816106be565b811461075057600080fd5b50565b61075c816106d0565b811461076757600080fd5b50565b610773816106fc565b811461077e57600080fd5b5056fea26469706673582212200421cf6c6ff513f04a48b035f24f4c84a9239f259c41dd3158a45285381c440864736f6c63430007000033",
  "immutableReferences": {},
  "source": "// SPDX-License-Identifier: MIT\r\npragma solidity >=0.6.0 <0.8.0;\r\npragma experimental ABIEncoderV2;\r\n\r\nimport \"./energy.sol\";\r\n\r\ncontract Tuple {\r\n    struct Input {\r\n        uint256 a;\r\n        uint256 b;\r\n    }\r\n    \r\n    mapping (uint256 => Input) public a;\r\n    uint256 public b;\r\n    //\r\n    Energy constant energy = Energy(0x0000000000000000000000000000456E65726779); // E not e\r\n\r\n    /// Give a single vote to proposal $(toProposal).\r\n    function set(Input[] memory _inputs) public {\r\n        for (uint i = 0; i < _inputs.length; i++) {\r\n            a[i] = _inputs[i];\r\n        }\r\n    }\r\n    \r\n    function set2(uint256 _inputs) public {\r\n        b = _inputs;\r\n    }\r\n    \r\n    function set3(Input memory _inputs) public {\r\n        b = _inputs.a;\r\n    }\r\n    \r\n    function set4(Input memory _inputs) public {\r\n        b = _inputs.b;\r\n    }\r\n    \r\n    //\r\n    function getEnergy() public view returns(uint256 amount){\r\n        return energy.balanceOf(address(this));\r\n    }\r\n    //\r\n    function ownerWithdraw(address payable recipient, uint256 amount) external {\r\n        energy.transfer(recipient, amount);\r\n    }\r\n}",
  "sourcePath": "C:/Working/Blockchain/Vechain/0_tvt/Vpunks/contracts/Tuple.sol",
  "compiler": {
    "name": "solc",
    "version": "0.7.0+commit.9e61f92b.Emscripten.clang"
  },
  "schemaVersion": "3.3.4",
  "updatedAt": "2021-07-25T02:41:01.059Z",
  "devdoc": {
    "kind": "dev",
    "methods": {},
    "version": 1
  },
  "userdoc": {
    "kind": "user",
    "methods": {
      "set((uint256,uint256)[])": {
        "notice": "Give a single vote to proposal $(toProposal)."
      }
    },
    "version": 1
  }
}