{
  "contractName": "TupleTest",
  "abi": [
    {
      "inputs": [],
      "name": "b",
      "outputs": [
        {
          "internalType": "uint256",
          "name": "",
          "type": "uint256"
        }
      ],
      "stateMutability": "view",
      "type": "function"
    },
    {
      "inputs": [],
      "name": "c",
      "outputs": [
        {
          "internalType": "uint256",
          "name": "",
          "type": "uint256"
        }
      ],
      "stateMutability": "view",
      "type": "function"
    },
    {
      "inputs": [
        {
          "internalType": "uint256",
          "name": "",
          "type": "uint256"
        }
      ],
      "name": "tupleA",
      "outputs": [
        {
          "internalType": "uint256",
          "name": "a",
          "type": "uint256"
        },
        {
          "internalType": "uint256",
          "name": "b",
          "type": "uint256"
        }
      ],
      "stateMutability": "view",
      "type": "function"
    },
    {
      "inputs": [
        {
          "internalType": "address",
          "name": "erc20",
          "type": "address"
        }
      ],
      "name": "getErc20Balance",
      "outputs": [
        {
          "internalType": "uint256",
          "name": "",
          "type": "uint256"
        }
      ],
      "stateMutability": "view",
      "type": "function"
    },
    {
      "inputs": [
        {
          "internalType": "address",
          "name": "erc20",
          "type": "address"
        },
        {
          "internalType": "address",
          "name": "recipient",
          "type": "address"
        },
        {
          "internalType": "uint256",
          "name": "amount",
          "type": "uint256"
        }
      ],
      "name": "withdrawErc20",
      "outputs": [],
      "stateMutability": "nonpayable",
      "type": "function"
    },
    {
      "inputs": [
        {
          "internalType": "uint256",
          "name": "id",
          "type": "uint256"
        },
        {
          "internalType": "uint256",
          "name": "a",
          "type": "uint256"
        },
        {
          "internalType": "uint256",
          "name": "_b",
          "type": "uint256"
        }
      ],
      "name": "setTuple1",
      "outputs": [],
      "stateMutability": "nonpayable",
      "type": "function"
    },
    {
      "inputs": [
        {
          "internalType": "uint256",
          "name": "id",
          "type": "uint256"
        },
        {
          "components": [
            {
              "internalType": "uint256",
              "name": "a",
              "type": "uint256"
            },
            {
              "internalType": "uint256",
              "name": "b",
              "type": "uint256"
            }
          ],
          "internalType": "struct TupleTest.Input",
          "name": "_input",
          "type": "tuple"
        }
      ],
      "name": "setTuple2",
      "outputs": [],
      "stateMutability": "nonpayable",
      "type": "function"
    },
    {
      "inputs": [
        {
          "components": [
            {
              "internalType": "uint256",
              "name": "a",
              "type": "uint256"
            },
            {
              "internalType": "uint256",
              "name": "b",
              "type": "uint256"
            }
          ],
          "internalType": "struct TupleTest.Input[]",
          "name": "_inputs",
          "type": "tuple[]"
        }
      ],
      "name": "setTuple3",
      "outputs": [],
      "stateMutability": "nonpayable",
      "type": "function"
    },
    {
      "inputs": [
        {
          "internalType": "uint256",
          "name": "id",
          "type": "uint256"
        }
      ],
      "name": "getTuple1",
      "outputs": [
        {
          "internalType": "uint256",
          "name": "",
          "type": "uint256"
        },
        {
          "internalType": "uint256",
          "name": "",
          "type": "uint256"
        }
      ],
      "stateMutability": "view",
      "type": "function"
    },
    {
      "inputs": [
        {
          "internalType": "uint256",
          "name": "id",
          "type": "uint256"
        }
      ],
      "name": "getTuple2",
      "outputs": [
        {
          "components": [
            {
              "internalType": "uint256",
              "name": "a",
              "type": "uint256"
            },
            {
              "internalType": "uint256",
              "name": "b",
              "type": "uint256"
            }
          ],
          "internalType": "struct TupleTest.Input",
          "name": "",
          "type": "tuple"
        }
      ],
      "stateMutability": "view",
      "type": "function"
    },
    {
      "inputs": [
        {
          "internalType": "uint256[]",
          "name": "ids",
          "type": "uint256[]"
        }
      ],
      "name": "getTuple3",
      "outputs": [
        {
          "components": [
            {
              "internalType": "uint256",
              "name": "a",
              "type": "uint256"
            },
            {
              "internalType": "uint256",
              "name": "b",
              "type": "uint256"
            }
          ],
          "internalType": "struct TupleTest.Input[]",
          "name": "k",
          "type": "tuple[]"
        }
      ],
      "stateMutability": "view",
      "type": "function"
    },
    {
      "inputs": [
        {
          "internalType": "uint256",
          "name": "a",
          "type": "uint256"
        }
      ],
      "name": "setNonReentrant1",
      "outputs": [],
      "stateMutability": "nonpayable",
      "type": "function"
    },
    {
      "inputs": [
        {
          "internalType": "uint256",
          "name": "a",
          "type": "uint256"
        }
      ],
      "name": "setNonReentrant2",
      "outputs": [],
      "stateMutability": "nonpayable",
      "type": "function"
    },
    {
      "inputs": [
        {
          "internalType": "uint256",
          "name": "_inputs",
          "type": "uint256"
        }
      ],
      "name": "set2",
      "outputs": [],
      "stateMutability": "nonpayable",
      "type": "function"
    },
    {
      "inputs": [
        {
          "components": [
            {
              "internalType": "uint256",
              "name": "a",
              "type": "uint256"
            },
            {
              "internalType": "uint256",
              "name": "b",
              "type": "uint256"
            }
          ],
          "internalType": "struct TupleTest.Input",
          "name": "_inputs",
          "type": "tuple"
        }
      ],
      "name": "set3",
      "outputs": [],
      "stateMutability": "nonpayable",
      "type": "function"
    },
    {
      "inputs": [
        {
          "components": [
            {
              "internalType": "uint256",
              "name": "a",
              "type": "uint256"
            },
            {
              "internalType": "uint256",
              "name": "b",
              "type": "uint256"
            }
          ],
          "internalType": "struct TupleTest.Input",
          "name": "_inputs",
          "type": "tuple"
        }
      ],
      "name": "set4",
      "outputs": [],
      "stateMutability": "nonpayable",
      "type": "function"
    },
    {
      "inputs": [],
      "name": "getEnergy",
      "outputs": [
        {
          "internalType": "uint256",
          "name": "amount",
          "type": "uint256"
        }
      ],
      "stateMutability": "view",
      "type": "function"
    },
    {
      "inputs": [
        {
          "internalType": "address payable",
          "name": "recipient",
          "type": "address"
        },
        {
          "internalType": "uint256",
          "name": "amount",
          "type": "uint256"
        }
      ],
      "name": "ownerWithdraw",
      "outputs": [],
      "stateMutability": "nonpayable",
      "type": "function"
    },
    {
      "inputs": [],
      "name": "getTimestamp",
      "outputs": [
        {
          "internalType": "uint256",
          "name": "",
          "type": "uint256"
        }
      ],
      "stateMutability": "view",
      "type": "function"
    }
  ],
  "bytecode": "0x608060405234801561001057600080fd5b5060016000819055506113cc806100286000396000f3fe608060405234801561001057600080fd5b50600436106101215760003560e01c80638e67faa8116100ad578063cc42010b11610071578063cc42010b146102f3578063ce01e1ec14610323578063d3fc64f91461033f578063d9c88e141461035b578063e78004111461037757610121565b80638e67faa81461023a578063acba3d0614610256578063c02e705714610286578063c3da42b8146102a4578063c3eb556a146102c257610121565b8063616c597b116100f4578063616c597b146101ae57806384799231146101ca578063851c37ad146101e6578063867cbecf146102025780638aa58ae41461021e57610121565b80631593dee114610126578063188ec356146101425780632fa7d1f2146101605780634df7e3d014610190575b600080fd5b610140600480360381019061013b9190610c7c565b6103a8565b005b61014a61043b565b6040516101579190611096565b60405180910390f35b61017a60048036038101906101759190610d0c565b610443565b6040516101879190611039565b60405180910390f35b61019861059d565b6040516101a59190611096565b60405180910390f35b6101c860048036038101906101c39190610d76565b6105a3565b005b6101e460048036038101906101df9190610ccb565b6105b1565b005b61020060048036038101906101fb9190610e2d565b61063f565b005b61021c60048036038101906102179190610d9f565b610683565b005b61023860048036038101906102339190610d9f565b6106fe565b005b610254600480360381019061024f9190610df1565b610770565b005b610270600480360381019061026b9190610d9f565b61079f565b60405161027d919061107b565b60405180910390f35b61028e6107e0565b60405161029b9190611096565b60405180910390f35b6102ac610876565b6040516102b99190611096565b60405180910390f35b6102dc60048036038101906102d79190610d9f565b61087c565b6040516102ea9291906110b1565b60405180910390f35b61030d60048036038101906103089190610c17565b6108a0565b60405161031a9190611096565b60405180910390f35b61033d60048036038101906103389190610d9f565b610932565b005b61035960048036038101906103549190610d76565b61093c565b005b61037560048036038101906103709190610c40565b61094a565b005b610391600480360381019061038c9190610d9f565b6109e2565b60405161039f9291906110b1565b60405180910390f35b8273ffffffffffffffffffffffffffffffffffffffff1663a9059cbb83836040518363ffffffff1660e01b81526004016103e3929190611010565b602060405180830381600087803b1580156103fd57600080fd5b505af1158015610411573d6000803e3d6000fd5b505050506040513d601f19601f820116820180604052508101906104359190610d4d565b50505050565b600042905090565b6060815167ffffffffffffffff811115610486577f4e487b7100000000000000000000000000000000000000000000000000000000600052604160045260246000fd5b6040519080825280602002602001820160405280156104bf57816020015b6104ac610a1c565b8152602001906001900390816104a45790505b50905060005b8251811015610597576001600084838151811061050b577f4e487b7100000000000000000000000000000000000000000000000000000000600052603260045260246000fd5b6020026020010151815260200190815260200160002060405180604001604052908160008201548152602001600182015481525050828281518110610579577f4e487b7100000000000000000000000000000000000000000000000000000000600052603260045260246000fd5b6020026020010181905250808061058f90611293565b9150506104c5565b50919050565b60025481565b806020015160028190555050565b60005b815181101561063b578181815181106105f6577f4e487b7100000000000000000000000000000000000000000000000000000000600052603260045260246000fd5b6020026020010151600160008381526020019081526020016000206000820151816000015560208201518160010155905050808061063390611293565b9150506105b4565b5050565b604051806040016040528083815260200182815250600160008581526020019081526020016000206000820151816000015560208201518160010155905050505050565b600260005414156106c9576040517f08c379a00000000000000000000000000000000000000000000000000000000081526004016106c09061105b565b60405180910390fd5b600260008190555080600260008282546106e391906111ad565b925050819055506106f3816106fe565b600160008190555050565b60026000541415610744576040517f08c379a000000000000000000000000000000000000000000000000000000000815260040161073b9061105b565b60405180910390fd5b6002600081905550806003600082825461075e91906111ad565b92505081905550600160008190555050565b806001600084815260200190815260200160002060008201518160000155602082015181600101559050505050565b6107a7610a1c565b60016000838152602001908152602001600020604051806040016040529081600082015481526020016001820154815250509050919050565b600065456e6572677973ffffffffffffffffffffffffffffffffffffffff166370a08231306040518263ffffffff1660e01b81526004016108219190610fcc565b60206040518083038186803b15801561083957600080fd5b505afa15801561084d573d6000803e3d6000fd5b505050506040513d601f19601f820116820180604052508101906108719190610dc8565b905090565b60035481565b60016020528060005260406000206000915090508060000154908060010154905082565b60008173ffffffffffffffffffffffffffffffffffffffff166370a08231306040518263ffffffff1660e01b81526004016108db9190610fcc565b60206040518083038186803b1580156108f357600080fd5b505afa158015610907573d6000803e3d6000fd5b505050506040513d601f19601f8201168201806040525081019061092b9190610dc8565b9050919050565b8060028190555050565b806000015160028190555050565b65456e6572677973ffffffffffffffffffffffffffffffffffffffff1663a9059cbb83836040518363ffffffff1660e01b815260040161098b929190610fe7565b602060405180830381600087803b1580156109a557600080fd5b505af11580156109b9573d6000803e3d6000fd5b505050506040513d601f19601f820116820180604052508101906109dd9190610d4d565b505050565b6000806001600084815260200190815260200160002060000154600160008581526020019081526020016000206001015491509150915091565b604051806040016040528060008152602001600081525090565b6000610a49610a448461110b565b6110da565b90508083825260208201905082856040860282011115610a6857600080fd5b60005b85811015610a985781610a7e8882610ba1565b845260208401935060408301925050600181019050610a6b565b5050509392505050565b6000610ab5610ab084611137565b6110da565b90508083825260208201905082856020860282011115610ad457600080fd5b60005b85811015610b045781610aea8882610bed565b845260208401935060208301925050600181019050610ad7565b5050509392505050565b600081359050610b1d8161133a565b92915050565b600081359050610b3281611351565b92915050565b600082601f830112610b4957600080fd5b8135610b59848260208601610a36565b91505092915050565b600082601f830112610b7357600080fd5b8135610b83848260208601610aa2565b91505092915050565b600081519050610b9b81611368565b92915050565b600060408284031215610bb357600080fd5b610bbd60406110da565b90506000610bcd84828501610bed565b6000830152506020610be184828501610bed565b60208301525092915050565b600081359050610bfc8161137f565b92915050565b600081519050610c118161137f565b92915050565b600060208284031215610c2957600080fd5b6000610c3784828501610b0e565b91505092915050565b60008060408385031215610c5357600080fd5b6000610c6185828601610b23565b9250506020610c7285828601610bed565b9150509250929050565b600080600060608486031215610c9157600080fd5b6000610c9f86828701610b0e565b9350506020610cb086828701610b0e565b9250506040610cc186828701610bed565b9150509250925092565b600060208284031215610cdd57600080fd5b600082013567ffffffffffffffff811115610cf757600080fd5b610d0384828501610b38565b91505092915050565b600060208284031215610d1e57600080fd5b600082013567ffffffffffffffff811115610d3857600080fd5b610d4484828501610b62565b91505092915050565b600060208284031215610d5f57600080fd5b6000610d6d84828501610b8c565b91505092915050565b600060408284031215610d8857600080fd5b6000610d9684828501610ba1565b91505092915050565b600060208284031215610db157600080fd5b6000610dbf84828501610bed565b91505092915050565b600060208284031215610dda57600080fd5b6000610de884828501610c02565b91505092915050565b60008060608385031215610e0457600080fd5b6000610e1285828601610bed565b9250506020610e2385828601610ba1565b9150509250929050565b600080600060608486031215610e4257600080fd5b6000610e5086828701610bed565b9350506020610e6186828701610bed565b9250506040610e7286828701610bed565b9150509250925092565b6000610e888383610f50565b60408301905092915050565b610e9d8161125d565b82525050565b610eac81611203565b82525050565b6000610ebd82611173565b610ec7818561118b565b9350610ed283611163565b8060005b83811015610f03578151610eea8882610e7c565b9750610ef58361117e565b925050600181019050610ed6565b5085935050505092915050565b6000610f1d601f8361119c565b91507f5265656e7472616e637947756172643a207265656e7472616e742063616c6c006000830152602082019050919050565b604082016000820151610f666000850182610fae565b506020820151610f796020850182610fae565b50505050565b604082016000820151610f956000850182610fae565b506020820151610fa86020850182610fae565b50505050565b610fb781611253565b82525050565b610fc681611253565b82525050565b6000602082019050610fe16000830184610ea3565b92915050565b6000604082019050610ffc6000830185610e94565b6110096020830184610fbd565b9392505050565b60006040820190506110256000830185610ea3565b6110326020830184610fbd565b9392505050565b600060208201905081810360008301526110538184610eb2565b905092915050565b6000602082019050818103600083015261107481610f10565b9050919050565b60006040820190506110906000830184610f7f565b92915050565b60006020820190506110ab6000830184610fbd565b92915050565b60006040820190506110c66000830185610fbd565b6110d36020830184610fbd565b9392505050565b6000604051905081810181811067ffffffffffffffff821117156111015761110061130b565b5b8060405250919050565b600067ffffffffffffffff8211156111265761112561130b565b5b602082029050602081019050919050565b600067ffffffffffffffff8211156111525761115161130b565b5b602082029050602081019050919050565b6000819050602082019050919050565b600081519050919050565b6000602082019050919050565b600082825260208201905092915050565b600082825260208201905092915050565b60006111b882611253565b91506111c383611253565b9250827fffffffffffffffffffffffffffffffffffffffffffffffffffffffffffffffff038211156111f8576111f76112dc565b5b828201905092915050565b600061120e82611233565b9050919050565b600061122082611233565b9050919050565b60008115159050919050565b600073ffffffffffffffffffffffffffffffffffffffff82169050919050565b6000819050919050565b60006112688261126f565b9050919050565b600061127a82611281565b9050919050565b600061128c82611233565b9050919050565b600061129e82611253565b91507fffffffffffffffffffffffffffffffffffffffffffffffffffffffffffffffff8214156112d1576112d06112dc565b5b600182019050919050565b7f4e487b7100000000000000000000000000000000000000000000000000000000600052601160045260246000fd5b7f4e487b7100000000000000000000000000000000000000000000000000000000600052604160045260246000fd5b61134381611203565b811461134e57600080fd5b50565b61135a81611215565b811461136557600080fd5b50565b61137181611227565b811461137c57600080fd5b50565b61138881611253565b811461139357600080fd5b5056fea26469706673582212202f3ab492a32cc9dcc2d78f792e8054f55834ea7e2dd9d5080e5e22a4280320ab64736f6c63430008000033",
  "immutableReferences": {},
  "source": "// SPDX-License-Identifier: MIT\r\npragma solidity ^0.8.0;\r\npragma experimental ABIEncoderV2;\r\n\r\n// import \"https://github.com/tv-truong/openzeppelin-contracts-4.3.2/contracts/security/ReentrancyGuard.sol\";\r\nimport \"@openzeppelin/contracts/security/ReentrancyGuard.sol\";\r\n\r\ninterface Energy {\r\n    function balanceOf(address _owner) external view returns (uint256 balance);\r\n    /// @notice transfer '_amount' of VeThor from msg sender to account '_to'\r\n    function transfer(address _to, uint256 _amount) external returns (bool success);\r\n}\r\n\r\n// openzeppelin-contracts/v4.3.2\r\ninterface IERC20 {\r\n    function balanceOf(address account) external view returns (uint256);\r\n    function transfer(address recipient, uint256 amount) external returns (bool);\r\n    function allowance(address owner, address spender) external view returns (uint256);\r\n    function approve(address spender, uint256 amount) external returns (bool);\r\n    function transferFrom(address sender, address recipient, uint256 amount) external returns (bool);\r\n    // function permit(address owner, address spender, uint value, uint deadline, uint8 v, bytes32 r, bytes32 s) external;\r\n}\r\n\r\ncontract TupleTest is ReentrancyGuard {\r\n    struct Input {\r\n        uint256 a;\r\n        uint256 b;\r\n    }\r\n    \r\n    mapping (uint256 => Input) public tupleA;\r\n    uint256 public b;\r\n    uint256 public c;\r\n    //\r\n    Energy constant energy = Energy(0x0000000000000000000000000000456E65726779); // E not e\r\n\r\n    // -------------------\r\n    function getErc20Balance(address erc20) public view returns(uint256){\r\n        return IERC20(erc20).balanceOf(address(this));\r\n    }\r\n    function withdrawErc20(address erc20, address recipient, uint256 amount) external {\r\n        IERC20(erc20).transfer(recipient, amount);\r\n    }\r\n    // ------\r\n    function setTuple1(uint256 id, uint256 a, uint256 _b) public {\r\n        tupleA[id] = Input(a, _b);\r\n    }\r\n    function setTuple2(uint256 id, Input memory _input) public {\r\n        tupleA[id] = _input;\r\n    }\r\n    function setTuple3(Input[] memory _inputs) public {\r\n        for (uint i = 0; i < _inputs.length; i++) {\r\n            tupleA[i] = _inputs[i];\r\n        }\r\n    }\r\n    function getTuple1(uint256 id) public view returns(uint256, uint256){\r\n        return (tupleA[id].a, tupleA[id].b);\r\n    }\r\n    function getTuple2(uint256 id) public view returns(Input memory){\r\n        return tupleA[id];\r\n    }\r\n    function getTuple3(uint256[] memory ids) public view returns(Input[] memory k){\r\n        k = new Input[](ids.length);\r\n        for (uint i = 0; i < ids.length; i++) {\r\n            k[i] = tupleA[ids[i]];\r\n        }\r\n    }\r\n    // ------\r\n    function setNonReentrant1(uint256 a) public nonReentrant {\r\n        b += a;\r\n        setNonReentrant2(a);\r\n    }\r\n    function setNonReentrant2(uint256 a) public nonReentrant {\r\n        c += a;\r\n    }\r\n    // -------------------\r\n    \r\n    function set2(uint256 _inputs) public {\r\n        b = _inputs;\r\n    }\r\n    \r\n    function set3(Input memory _inputs) public {\r\n        b = _inputs.a;\r\n    }\r\n    \r\n    function set4(Input memory _inputs) public {\r\n        b = _inputs.b;\r\n    }\r\n    \r\n    //\r\n    function getEnergy() public view returns(uint256 amount){\r\n        return energy.balanceOf(address(this));\r\n    }\r\n    //\r\n    function ownerWithdraw(address payable recipient, uint256 amount) external {\r\n        energy.transfer(recipient, amount);\r\n    }\r\n    function getTimestamp() public view returns (uint256) {\r\n        return block.timestamp;\r\n    }\r\n}",
  "sourcePath": "C:\\Working\\Blockchain\\Vechain\\0_tvt\\Vefam\\contracts\\TupleTest.sol",
  "compiler": {
    "name": "solc",
    "version": "0.8.0+commit.c7dfd78e.Emscripten.clang"
  },
  "schemaVersion": "3.4.3",
  "updatedAt": "2021-10-25T20:50:06.863Z",
  "devdoc": {
    "kind": "dev",
    "methods": {},
    "version": 1
  },
  "userdoc": {
    "kind": "user",
    "methods": {},
    "version": 1
  }
}